S01600002E2E2F526F626F7450726F6A6563742E73313976
S32D0000C00000000020D5E8000031EC000031EC000031EC000031EC000031EC0000000000000000000000000000A4
S32D0000C0280000000031EC000031EC00000000000031EC000031EC000031EC000031EC000031EC000031EC000002
S32D0000C05031EC000031EC000031EC000031EC000031EC000031EC000031EC000031EC000031EC000031EC0000A0
S32D0000C07831EC000031EC000031EC000031EC000031EC000031EC000031EC000031EC000031EC000031EC000078
S32D0000C0A031EC000031EC000031EC000031EC000031EC000031EC000031EC000031EC000031EC000031EC000050
S32D0000C0C831EC000031EC000031EC000031EC000031EC000031EC000031EC000031EC000031EC000031EC000028
S32D0000C0F031EC00005158010031EC000031EC000031EC000031EC000031EC000031EC000031EC000031EC000073
S32D0000C11831EC000031EC000031EC000031EC000031EC000031EC000031EC000031EC000031EC000031EC0000D7
S32D0000C14031EC000031EC000031EC000031EC0000D520010031EC000031EC000031EC000031EC000031EC0000D6
S32D0000C16831EC000031EC000031EC000031EC000031EC000031EC000031EC000031EC000031EC000031EC000087
S32D0000C19031EC000031EC000031EC0000351B0100891901005D1A010081EC00000D1C010031EC000031EC0000ED
S32D0000C1B831EC000031EC000031EC000031EC000031EC000031EC000031EC000031EC000031EC000031EC000037
S32D0000C41081F0004102E000BF83F0004330B54FEA41044FEA430594EA050F08BF90EA020F1FBF54EA000C55EAC6
S32D0000C438020C7FEA645C7FEA655C00F0E2804FEA5454D4EB5555B8BF6D420CDD2C4480EA020281EA030382EA0F
S32D0000C460000083EA010180EA020281EA0303362D88BF30BD11F0004F4FEA01314FF4801C4CEA113102D0404263
S32D0000C48861EB410113F0004F4FEA03334CEA133302D0524263EB430394EA050F00F0A780A4F10104D5F1200E8A
S32D0000C4B00DDB02FA0EFC22FA05F2801841F1000103FA0EF2801843FA05F359410EE0A5F120050EF1200E012A2D
S32D0000C4D803FA0EFC28BF4CF0020C43FA05F3C01851EBE37101F0004507D54FF0000EDCF1000C7EEB00006EEB67
S32D0000C5000101B1F5801F1BD3B1F5001F0CD349085FEA30004FEA3C0C04F101044FEA445212F5800F80F09A8000
S32D0000C528BCF1004F08BF5FEA500C50F1000041EB045141EA050130BD5FEA4C0C404141EB010111F4801FA4F114
S32D0000C5500104E9D191F0000F04BF01460020B1FA81F308BF2033A3F10B03B3F120020CDA0C3208DD02F1140C87
S32D0000C578C2F10C0201FA0CF021FA02F10CE002F11402D8BFC2F1200C01FA02F120FA0CFCDCBF41EA0C019040B1
S32D0000C5A0E41AA2BF01EB0451294330BD6FEA04041F3C1CDA0C340EDC04F11404C4F1200220FA04F001FA02F3B6
S32D0000C5C840EA030021FA04F345EA030130BDC4F10C04C4F1200220FA02F001FA04F340EA0300294630BD21FAA8
S32D0000C5F004F0294630BD94F0000F83F4801306BF81F480110134013D4EE77FEA645C18BF7FEA655C29D094EA1C
S32D0000C618050F08BF90EA020F05D054EA000C04BF1946104630BD91EA030F1EBF0021002030BD5FEA545C05D1A3
S32D0000C6404000494128BF41F0004130BD14F580043CBF01F5801130BD01F0004545F0FE4141F470014FF0000031
S32D0000C66830BD7FEA645C1ABF194610467FEA655C1CBF0B46024650EA013406BF52EA033591EA030F41F40021D7
S32D0000C69030BD00BF90F0000F04BF0021704730B54FF4806404F132044FF000054FF0000150E700BF90F0000F66
S32D0000C6B804BF0021704730B54FF4806404F1320410F0004548BF40424FF000013EE700BF42004FEAE2014FEAF9
S32D0000C6E031014FEA02701FBF12F07F4393F07F4F81F06051704792F0000F14BF93F07F4F704730B54FF460741B
S32D0000C70801F0004521F0004120E700BF50EA010208BF704730B54FF000050AE050EA010208BF704730B511F046
S32D0000C730004502D5404261EB41014FF4806404F132045FEA915C3FF4DCAE4FF003025FEADC0C18BF03325FEAA0
S32D0000C758DC0C18BF033202EBDC02C2F1200300FA03FC20FA02F001FA03FE40EA0E0021FA02F11444C1E600BF19
S32D0000C78070B54FF0FF0C4CF4E06C1CEA11541DBF1CEA135594EA0C0F95EA0C0F00F0DEF82C4481EA030621EAF3
S32D0000C7A84C5123EA4C5350EA013518BF52EA033541F4801143F4801338D0A0FB02CE4FF00005E1FB02E506F05F
S32D0000C7D00042E0FB03E54FF00006E1FB03569CF0000F18BF4EF0010EA4F1FF04B6F5007F64F5407404D25FEA0F
S32D0000C7F84E0E6D4146EB060642EAC62141EA55514FEAC52040EA5E504FEACE2EB4F1FD0C88BFBCF5E06F1ED8D2
S32D0000C820BEF1004F08BF5FEA500E50F1000041EB045170BD06F0004646EA010140EA020081EA0301B4EB5C0487
S32D0000C848C2BFD4EB0C0541EA045170BD41F480114FF0000E013C00F3AB8014F1360FDEBF002001F0004170BDF0
S32D0000C870C4F10004203C35DA0C341BDC04F11404C4F1200500FA05F320FA04F001FA05F240EA020001F0004207
S32D0000C89821F0004110EBD37021FA04F642EB06015EEA430E08BF20EAD37070BDC4F10C04C4F1200500FA04F32F
S32D0000C8C020FA05F001FA04F240EA020001F0004110EBD37041F100015EEA430E08BF20EAD37070BDC4F12005C7
S32D0000C8E800FA05F24EEA020E20FA04F301FA05F243EA020321FA04F001F0004121FA04F220EA020000EBD37028
S32D0000C9105EEA430E08BF20EAD37070BD94F0000F0FD101F00046400041EB010111F4801F08BF013CF7D041EA6D
S32D0000C938060195F0000F18BF704703F00046520043EB030313F4801F08BF013DF7D043EA0603704794EA0C0FF1
S32D0000C9600CEA135518BF95EA0C0F0CD050EA410618BF52EA4306D1D181EA030101F000414FF0000070BD50EA38
S32D0000C988410606BF1046194652EA430619D094EA0C0F02D150EA013613D195EA0C0F05D152EA03361CBF10467B
S32D0000C9B019460AD181EA030101F0004141F0FE4141F470014FF0000070BD41F0FE4141F4780170BD70B54FF04D
S32D0000C9D8FF0C4CF4E06C1CEA11541DBF1CEA135594EA0C0F95EA0C0F00F0A7F8A4EB050481EA030E52EA03359B
S32D0000CA004FEA013100F088804FEA03334FF0805545EA131343EA12634FEA022245EA111545EA10654FEA002676
S32D0000CA280EF000419D4208BF964244F1FD0404F5407402D25B084FEA3202B61A65EB03055B084FEA32024FF461
S32D0000CA5080104FF4002CB6EB020E75EB030E22BFB61A754640EA0C005B084FEA3202B6EB020E75EB030E22BF22
S32D0000CA78B61A754640EA5C005B084FEA3202B6EB020E75EB030E22BFB61A754640EA9C005B084FEA3202B6EBEA
S32D0000CAA0020E75EB030E22BFB61A754640EADC0055EA060E18D04FEA051545EA16754FEA06164FEAC30343EAAC
S32D0000CAC852734FEAC2025FEA1C1CC0D111F4801F0BD141EA00014FF000004FF0004CB6E711F4801F04BF0143AE
S32D0000CAF00020B4F1FD0C88BFBCF5E06F3FF6AFAEB5EB030C04BFB6EB020C5FEA500C50F1000041EB045170BDBC
S32D0000CB180EF0004E4EEA113114EB5C04C2BFD4EB0C0541EA045170BD41F480114FF0000E013C90E645EA060EC3
S32D0000CB408DE60CEA135594EA0C0F08BF95EA0C0F3FF43BAF94EA0C0F0AD150EA01347FF434AF95EA0C0F7FF499
S32D0000CB6825AF104619462CE795EA0C0F06D152EA03353FF4FDAE1046194622E750EA410618BF52EA43067FF432
S32D0000CB90C5AE50EA41047FF40DAF52EA43057FF4EBAE12E74FF0FF3C06E000BF4FF0010C02E000BF4FF0010C75
S32D0000CBB84DF804CD4FEA410C7FEA6C5C4FEA430C18BF7FEA6C5C1BD001B050EA410C0CBF52EA430C91EA030FEC
S32D0000CBE002BF90EA020F0020704710F1000F91EA030F58BF994208BF90422CBFD8176FEAE37040F0010070476E
S32D0000CC084FEA410C7FEA6C5C02D150EA013C07D14FEA430C7FEA6C5CD6D152EA033CD3D05DF8040B704700BFCD
S32D0000CC308446104662468C461946634600E000BF01B5FFF7B7FF002848BF10F1000F01BD4DF808EDFFF7F4FF13
S32D0000CC580CBF012000205DF808FB00BF4DF808EDFFF7EAFF34BF012000205DF808FB00BF4DF808EDFFF7E0FF18
S32D0000CC8094BF012000205DF808FB00BF4DF808EDFFF7CEFF94BF012000205DF808FB00BF4DF808EDFFF7C4FF40
S32D0000CCA834BF012000205DF808FB00BF4FEA410212F5001215D211D56FF47873B3EB625212D94FEAC12343F0D6
S32D0000CCD0004343EA505311F0004F23FA02F018BF404270474FF00000704750EA013005D111F0004008BF6FF016
S32D0000CCF8004070474FF00000704700BF4A0011D212F5001211D20DD56FF47873B3EB62520ED44FEAC12343F085
S32D0000CD20004343EA505323FA02F070474FF00000704750EA013002D14FF0FF3070474FF0000070474FEA410241
S32D0000CD48B2F1E04324BFB3F5001CDCF1FE5C0DD901F0004C4FEAC0024CEA5070B2F1004F40EB830008BF20F09E
S32D0000CD700100704711F0804F21D113F13872BCBF01F00040704741F480114FEA5252C2F11802C2F1200C10FAB1
S32D0000CD980CF320FA02F018BF40F001004FEAC1234FEAD32303FA0CFC40EA0C0023FA02F34FEA4303CCE77FEA26
S32D0000CDC0625307D150EA01331EBF4FF0FE4040F44000704701F0004040F0FE4040F40000704700BF80F00040CC
S32D0000CDE802E000BF81F0004142001FBF5FEA410392EA030F7FEA226C7FEA236C6AD04FEA1262D2EB1363C1BF06
S32D0000CE10D218414048404140B8BF5B42192B88BF704710F0004F40F4000020F07F4018BF404211F0004F41F4FA
S32D0000CE38000121F07F4118BF494292EA030F3FD0A2F1010241FA03FC10EB0C00C3F1200301FA03F100F000432B
S32D0000CE6002D5494260EB4000B0F5000F13D3B0F1807F06D340084FEA310102F10102FE2A51D2B1F1004F40EB94
S32D0000CE88C25008BF20F0010040EA03007047490040EB000010F4000FA2F10102EDD1B0FA80FCACF1080CB2EB5F
S32D0000CEB00C0200FA0CF0AABF00EBC25052421843BCBFD0401843704792F0000F81F4000106BF80F400000132EB
S32D0000CED8013BB5E74FEA41037FEA226C18BF7FEA236C21D092EA030F04D092F0000F08BF0846704790EA010FD7
S32D0000CF001CBF0020704712F07F4F04D1400028BF40F00040704712F100723CBF00F50000704700F0004343F0DC
S32D0000CF28FE4040F4000070477FEA226216BF08467FEA23630146420206BF5FEA412390EA010F40F480007047C1
S32D0000CF504FF0000304E000BF10F0004348BF40425FEA000C08BF704743F0964301464FF000001CE050EA010264
S32D0000CF7808BF70474FF000030AE000BF50EA010208BF704711F0004302D5404261EB41015FEA010C02BF84465B
S32D0000CFA00146002043F0B64308BFA3F18053A3F50003BCFA8CF2083AA3EBC25310DB01FA02FC634400FA02FC6B
S32D0000CFC8C2F12002BCF1004F20FA02F243EB020008BF20F00100704702F1200201FA02FCC2F1200250EA4C0034
S32D0000CFF021FA02F243EB020008BF20EADC7070474FF0FF0C1CEAD0521EBF1CEAD15392EA0C0F93EA0C0F6FD019
S32D0000D0181A4480EA010C400218BF5FEA41211ED04FF0006343EA501043EA5111A0FB01310CF00040B1F5000FE7
S32D0000D0403EBF490041EAD3715B0040EA010062F17F02FD2A1DD8B3F1004F40EBC25008BF20F00100704790F058
S32D0000D068000F0CF0004C08BF49024CEA502040EA51207F3AC2BFD2F1FF0340EAC250704740F400004FF0000388
S32D0000D090013A5DDC12F1190FDCBF00F000407047C2F10002410021FA02F1C2F1200200FA02FC5FEA310040F1D5
S32D0000D0B8000053EA4C0308BF20EADC70704792F0000F00F0004C02BF400010F4000F013AF9D040EA0C0093F04C
S32D0000D0E0000F01F0004C02BF490011F4000F013BF9D041EA0C018FE70CEAD15392EA0C0F18BF93EA0C0F0AD00B
S32D0000D10830F0004C18BF31F0004CD8D180EA010000F00040704790F0000F17BF90F0004F084691F0000F91F0BB
S32D0000D130004F14D092EA0C0F01D142020FD193EA0C0F03D14B0218BF084608D180EA010000F0004040F0FE4051
S32D0000D15840F40000704740F0FE4040F4400070474FF0FF0C1CEAD0521EBF1CEAD15392EA0C0F93EA0C0F69D044
S32D0000D180A2EB030280EA010C49024FEA402037D04FF0805343EA111143EA10130CF000408B4238BF5B0042F14E
S32D0000D1A87D024FF4000C8B4224BF5B1A40EA0C00B3EB510F24BFA3EB510340EA5C00B3EB910F24BFA3EB9103A4
S32D0000D1D040EA9C00B3EBD10F24BFA3EBD10340EADC001B0118BF5FEA1C1CE0D1FD2A3FF650AF8B4240EBC25018
S32D0000D1F808BF20F0010070470CF0004C4CEA50207F32C2BFD2F1FF0340EAC250704740F400004FF00003013AF1
S32D0000D22037E792F0000F00F0004C02BF400010F4000F013AF9D040EA0C0093F0000F01F0004C02BF490011F4C9
S32D0000D248000F013BF9D041EA0C0195E70CEAD15392EA0C0F08D142027FF47DAF93EA0C0F7FF470AF084676E7AE
S32D0000D27093EA0C0F04D14B023FF44CAF08466EE730F0004C18BF31F0004CCAD130F000427FF45CAF31F0004376
S32D0000D2987FF43CAF5FE700BF4FF0FF3C06E000BF4FF0010C02E000BF4FF0010C4DF804CD4FEA40024FEA41039F
S32D0000D2C07FEA226C18BF7FEA236C11D001B052EA530C18BF90EA010F58BFB2EB030088BFC81738BF6FEAE1706E
S32D0000D2E818BF40F0010070477FEA226C02D15FEA402C05D17FEA236CE4D15FEA412CE1D05DF8040B704700BF16
S32D0000D310844608466146FFE70FB5FFF7C9FF002848BF10F1000F0FBD4DF808EDFFF7F4FF0CBF012000205DF839
S32D0000D33808FB00BF4DF808EDFFF7EAFF34BF012000205DF808FB00BF4DF808EDFFF7E0FF94BF012000205DF8A9
S32D0000D36008FB00BF4DF808EDFFF7D2FF94BF012000205DF808FB00BF4DF808EDFFF7C8FF34BF012000205DF8B1
S32D0000D38808FB00BF4FEA4002B2F1FE4F0FD34FF09E03B3EB12620DD94FEA002343F0004310F0004F23FA02F060
S32D0000D3B018BF404270474FF00000704712F1610F01D1420205D110F0004008BF6FF0004070474FF00000704797
S32D0000D3D880B483B000AF78607B6823F00043184607F10C07BD4680BC704700BF80B500AF41F26410C1F6FF7031
S32D0000D40004F080FC41F26010C1F6FF7004F07AFC80BD00BF84B080B582B002AF07F1080C8CE80F0041F26C40A5
S32D0000D428C1F6FF7005F020FEBB6841F26C40C1F6FF7019464FF001024FF0780306F0F4F8FB6841F26C40C1F63F
S32D0000D450FF7019464FF002024FF0780306F0E8F83B6941F26C40C1F6FF7019464FF003024FF0780306F0DCF83D
S32D0000D4787B6941F26C40C1F6FF7019464FF004024FF0780306F0D0F8BB6941F26C40C1F6FF7019464FF00502B3
S32D0000D4A04FF0780306F0C4F841F26C40C1F6FF7048F24C21C0F201014FF006024FF0000306F096F8D7E908239A
S32D0000D4C84FF0060100914FF07801019141F26C40C1F6FF7006F0E8F841F26C40C1F6FF7048F25421C0F20101D2
S32D0000D4F04FF007024FF0000306F07AF8D7E90A234FF0070100914FF07801019141F26C40C1F6FF7006F0CCF84E
S32D0000D51841F26C40C1F6FF7048F25C21C0F201014FF008024FF0000306F05EF8D7E90C234FF0080100914FF097
S32D0000D5407801019141F26C40C1F6FF7006F0B0F841F26C40C1F6FF7048F26C21C0F201014FF009024FF0000303
S32D0000D56806F042F8D7E90E234FF0090100914FF07801019141F26C40C1F6FF7006F094F841F26C40C1F6FF70C4
S32D0000D59048F27821C0F201014FF00A024FF0000306F026F8D7E910234FF00A0100914FF07801019141F26C404E
S32D0000D5B8C1F6FF7006F078F841F26C40C1F6FF7048F28021C0F201014FF00B024FF0000306F00AF8D7E91223AA
S32D0000D5E04FF00B0100914FF07801019141F26C40C1F6FF7006F05CF8BD46BDE8804004B0704700BF0000000016
S32D0000D608B0B5B6B00EAFC7E902017A60D7E902014FF000024FF0804303F51013FFF7D6F902460B4610461946AB
S32D0000D63069A3D3E90023FFF7A3F802460B4610461946FFF737FB0346C7F888304FF00003C7F89C307B6803F176
S32D0000D658FF331846FFF72AF802460B46C7E924234FF00003C7F884304FF00003C7F88C304FF00003C7F8803049
S32D0000D6804FF00003FB674FF000024FF0804303F57813C7E91C2352A3D3E90023C7E91A2341F26410C1F6FF7095
S32D0000D6A804F02CFB41F26010C1F6FF7004F026FB0BE17868FFF74CFC034641F25810C1F6FF70194601F0B4FB48
S32D0000D6D0D7E92401FFF736FB034641F25010C1F6FF70194601F0A8FB41F26410C1F6FF7004F0F4FA044641F2FF
S32D0000D6F86010C1F6FF7004F0EDFA0346E31AC7F88430D7F88400FEF7D1FF02460B4610461946D7E91C23FFF77F
S32D0000D72059F902460B46C7E91823D7F88420D7F88C30D31A1846FEF7BDFF02460B4610461946D7E91A23FFF7CA
S32D0000D7481BF802460B46C7E916237B68002B10DDD7E91801D7E91623FEF75CFE02460B46D7E92401FEF756FE3B
S32D0000D77002460B46C7E924230FE0D7E91801D7E91623FEF74BFE02460B46D7E92401FEF743FE02460B46C7E9FF
S32D0000D79824234FF001031C46D7E924014FF000024FF0404303F5B203FFF758FA0346002B02D14FF000031C46AF
S32D0000D7C0E3B2002B10D04FF000024FF0404303F5B203C7E9242325E000000000004044409A9999999999C93F8C
S32D0000D7E84FF001031C46D7E924014FF000024FF0804303F5B203FFF74FFA0346002B02D14FF000031C46E3B2DA
S32D0000D810002B07D04FF000024FF0804303F5B203C7E9242341F26410C1F6FF7004F056FA0346C7F89C3041F2E9
S32D0000D8386410C1F6FF7004F04DFA03463B6141F26010C1F6FF7004F045FA03467B61D7F888303B627B68BB61C4
S32D0000D860D7E92401FFF726FA0346FB61D7F88400FEF720FF02460B46C7E912236C4607F120050FCD0FC40FCDBB
S32D0000D8880FC40FCD0FC495E8030084E8030007F110030FCBFFF7BAFD4FF0320003F0C0FDD7F88430C7F88C3050
S32D0000D8B041F26410C1F6FF7004F010FA0346C7F8803041F26010C1F6FF7004F007FA0346FB67D7F89C3083EA56
S32D0000D8D8E372A2EBE372D7F888309A42ACBF00230123DBB2002B7FF4E4AE41F25810C1F6FF7001F04DFA41F2ED
S32D0000D9005010C1F6FF7001F047FA07F1A007BD46B0BD00BFAFF3008090B583B000AF41F24C10C1F6FF7004F081
S32D0000D92813FA03467B6007E041F24C10C1F6FF7004F00AFA03467B6040F20043C1F6FF731B684FF0010214462B
S32D0000D95078681946FFF710FD0346002B02D14FF000031C46E3B2002BE2D17B68184607F10C07BD4690BD00BFAE
S32D0000D978F0B5A5B00EAF78606A4B3B65FFF736FD4FF001031C4678686749FFF7F1FC0346002B02D14FF00003D3
S32D0000D9A01C46E3B2002B1BD040F21043C1F6FF731B681846FFF7D0FA034641F25810C1F6FF70194601F038FA71
S32D0000D9C878685A49FFF7CCFB03461846396DFFF713FB03467B6571E040F21043C1F6FF731B68C3F100031846E0
S32D0000D9F0FFF7B2FA034641F25810C1F6FF70194601F01AFA7B6883F0004318464949FFF7ABFB03461846396D87
S32D0000DA18FFF7F2FA03467B6550E040F21043C1F6FF731B683B6141F26010C1F6FF7004F051F90346BB60786D88
S32D0000DA40FEF74AFE40F20843C1F6FF73D3E90023FEF796FE02460B4614461D4641F26410C1F6FF7004F03AF923
S32D0000DA6803461846FEF722FE02460B4620462946FEF7CEFC02460B46C7E9102341F2D440C1F6FF7009F0BEF90E
S32D0000DA9003461846FEF720FE02460B46C7E90C236C4607F118050FCD0FC40FCD0FC40FCD0FC495E8030084E876
S32D0000DAB8030007F108030FCBFFF7A8FC41F26410C1F6FF7004F006F903461846FEF7EEFD04460D46786DFEF708
S32D0000DAE0FBFD40F20843C1F6FF73D3E90023FEF747FE02460B464FF001010E4620462946FFF7B0F80346002B4C
S32D0000DB0802D14FF000031E46F3B2002B85D141F25810C1F6FF7001F03BF907F15C07BD46F0BD00BF57A5294239
S32D0000DB30000000000000B443F0B5A5B00EAF78606A4B3B65FFF756FC4FF001031C4678686749FFF711FC034623
S32D0000DB58002B02D14FF000031C46E3B2002B1BD040F21043C1F6FF731B681846FFF7F0F9034641F25010C1F651
S32D0000DB80FF70194601F058F978685A49FFF7ECFA03461846396DFFF733FA03467B6571E040F21043C1F6FF7370
S32D0000DBA81B68C3F100031846FFF7D2F9034641F25010C1F6FF70194601F03AF97B6883F0004318464949FFF7F2
S32D0000DBD0CBFA03461846396DFFF712FA03467B6550E040F21043C1F6FF731B687B6141F26010C1F6FF7004F0F0
S32D0000DBF871F80346FB60786DFEF76AFD40F20843C1F6FF73D3E90023FEF7B6FD02460B4614461D4641F260108B
S32D0000DC20C1F6FF7004F05AF803461846FEF742FD02460B4620462946FEF7EEFB02460B46C7E9102341F2D44080
S32D0000DC48C1F6FF7009F0DEF803461846FEF740FD02460B46C7E90C236C4607F118050FCD0FC40FCD0FC40FCD67
S32D0000DC700FC495E8030084E8030007F108030FCBFFF7C8FB41F26010C1F6FF7004F026F803461846FEF70EFDAC
S32D0000DC9804460D46786DFEF71BFD40F20843C1F6FF73D3E90023FEF767FD02460B464FF001010E4620462946EE
S32D0000DCC0FEF7D0FF0346002B02D14FF000031E46F3B2002B85D141F25010C1F6FF7001F05BF807F15C07BD4604
S32D0000DCE8F0BD00BF57A52942000000000000B443F0B5A5B00EAF786041F2D440C1F6FF7009F080F803464FF04F
S32D0000DD10010214461846A649FFF72EFB0346002B02D14FF000031C46E3B2002B0BD041F2D440C1F6FF7009F030
S32D0000DD3869F8024641F28013C1F6FF731A607868FFF716FE41F28013C1F6FF731B6818467968FFF747F8034692
S32D0000DD607B654FF001031C46786D9149FFF7E6FA0346002B02D14FF000031C46E3B2002B06D0786D8B49FFF74B
S32D0000DD8833F803467B65A8E04FF001031C46786D8649FFF7EDFA0346002B02D14FF000031C46E3B2002B00F0C0
S32D0000DDB09880786D7F49FFF719F803467B6590E041F2D440C1F6FF7009F020F8034618467949FFF70DF80346B5
S32D0000DDD84FF0010214461846796DFFF7ABFA0346002B02D14FF000031C46E3B2002B2AD07048FFF7BDFD41F262
S32D0000DE00D440C1F6FF7009F001F803461846FEF763FC02460B46C7E90C23786DFEF75CFC02460B46C7E90E23A9
S32D0000DE286C4607F118050FCD0FC40FCD0FC40FCD0FC495E8030084E8030007F108030FCBFFF7E4FA45E041F200
S32D0000DE50D440C1F6FF7008F0D9FF034618465649FEF7C4FF03464FF0010214461846796DFFF782FA0346002B8D
S32D0000DE7802D14FF000031C46E3B2002B29D04E48FFF776FD41F2D440C1F6FF7008F0BAFF03461846FEF71CFC7B
S32D0000DEA002460B46C7E90C23786DFEF715FC02460B46C7E90E236C4607F118050FCD0FC40FCD0FC40FCD0FC4A3
S32D0000DEC895E8030084E8030007F108030FCBFFF79DFA4FF4967003F0A3FA786DFEF7F8FB04460D4641F2D44049
S32D0000DEF0C1F6FF7008F08AFF03461846FEF7ECFB02460B46104619464FF000024FF07E5303F5F003FEF782FADF
S32D0000DF1802460B464FF001010E4620462946FEF7BBFE0346002B02D14FF000031E46F3B2002B2CD1786DFEF796
S32D0000DF40CBFB04460D4641F2D440C1F6FF7008F05DFF03461846FEF7BFFB02460B46104619464FF000024FF06B
S32D0000DF687E5303F5F003FEF753FA02460B464FF001010E4620462946FEF770FE0346002B02D14FF000031E463A
S32D0000DF90F3B2002B02D04FF0010301E04FF00003002B7FF40DAF07F15C07BD46F0BD00BF000000000000B44340
S32D0000DFB80000803F000000BF0000003F0000000080B582B000AF40F22043C1F6FF731B681846FFF7D7F90346BA
S32D0000DFE041F27410C1F6FF70194604F077FA40F21C43C1F6FF731B681846FFF7C7F9034641F27410C1F6FF70FB
S32D0000E008194604F085FA41F27410C1F6FF70AA4904F09EFA40F21843C1F6FF731B681846FFF7B0F9034641F20A
S32D0000E0306810C1F6FF70194604F050FA40F21443C1F6FF731B681846FFF7A0F9034641F26810C1F6FF701946EC
S32D0000E05804F05EFA41F26810C1F6FF70974904F077FA41F2D440C1F6FF7008F0DBF941F26C40C1F6FF706FF09B
S32D0000E0807F4105F015F841F26C40C1F6FF704FF0000105F035F841F26C40C1F6FF7004F0E7FF00BF07F10402AD
S32D0000E0A83B4641F26C40C1F6FF7011461A4605F067F90346002BF1D153E041F2D440C1F6FF7008F07FFE024625
S32D0000E0D040F22843C1F6FF731A6041F2D440C1F6FF7008F083FE024640F22443C1F6FF731A6041F2D440C1F67A
S32D0000E0F8FF7008F087FE024640F22C43C1F6FF731A6040F22843C1F6FF731B6841F26C40C1F6FF7019464FF096
S32D0000E12000024FF0000305F0A3FA40F22443C1F6FF731B6841F26C40C1F6FF7019464FF001024FF0000305F0D9
S32D0000E14893FA40F22C43C1F6FF731B6841F26C40C1F6FF7019464FF002024FF0000305F083FA07F104023B46F5
S32D0000E17041F26C40C1F6FF7011461A4605F004F9034683F00103DBB2002B9AD14AA1D1E9000103F065F909E010
S32D0000E19841F26C40C1F6FF7048F28C21C0F2010105F0EAFA07F104023B4641F26C40C1F6FF7011461A4605F0B0
S32D0000E1C0E3F80346002BE7D13BA1D1E9000103F047F900BF07F104023B4641F26C40C1F6FF7011461A4605F071
S32D0000E1E8CFF8034683F00103DBB2002BEED14FF000004FF07E5101F5E00103F02DF909E041F26C40C1F6FF70E0
S32D0000E21048F28C21C0F2010105F0B2FA07F104023B4641F26C40C1F6FF7011461A4605F0ABF80346002BE7D1A5
S32D0000E2384FF000004FF07E5101F5E00103F00CF900BF07F104023B4641F26C40C1F6FF7011461A4605F094F821
S32D0000E260034683F00103DBB2002BEED141F26C40C1F6FF7004F0FCFE41F26C40C1F6FF706FF07F4104F014FF3B
S32D0000E28841F26C40C1F6FF704FF0000104F034FF41F26C40C1F6FF7048F2A021C0F2010105F06AFAFFF734FBCA
S32D0000E2B007F10807BD4680BD9A9999999999B93F000048420000A041F0B583B000AF41F2D440C1F6FF7008F013
S32D0000E2D879FD03467B6041F2D440C1F6FF7008F081FD03463B606DE041F2D440C1F6FF7008F068FD03467B607C
S32D0000E30041F2D440C1F6FF7008F070FD03463B604FF000004FF0804101F5A0116FF02202FFF772F940F22443D6
S32D0000E328C1F6FF731B6838681946FEF75BFD03461846FFF74DF803464FF00102144618463849FFF715F80346DD
S32D0000E350002B02D14FF000031C46E3B2002B35D040F22443C1F6FF731B684FF00102144638681946FFF700F86A
S32D0000E3780346002B02D14FF000031C46E3B2002B10D02948FFF7D4FB4FF000004FF0804101F500216FF00E02F1
S32D0000E3A0FFF732F92248FFF7E7FA0FE02048FFF7E3FA4FF000004FF0804101F500216FF00E02FFF721F91A488C
S32D0000E3C8FFF7B6FB7868FEF783F904460D4640F22843C1F6FF731B681846FEF779F902460B46104619464FF0F7
S32D0000E3F000024FF0804303F58023FEF70DF802460B464FF001010E4620462946FEF72AFC0346002B02D14FF0C2
S32D0000E41800031E46F3B2002B7FF466AF07F10C07BD46F0BD0000803ECDCC4C3E00000000B0B596B000AFFFF72B
S32D0000E440C3FD41F2D440C1F6FF7008F0DFFC024641F28013C1F6FF731A6041F28013C1F6FF731A6841F28413C2
S32D0000E468C1F6FF731A6003F023F802460B4610461946FEF763FC03463B650BE041F2D440C1F6FF7008F0BEFC40
S32D0000E490024641F28013C1F6FF731A6041F28013C1F6FF731B681846C549FEF73DFF0346002B27D141F280136C
S32D0000E4B8C1F6FF731B681846C049FEF731FF0346002B1BD102F0F4FF04460D46386DFEF7FFF802460B4620468C
S32D0000E4E02946FDF799FF02460B46104619464FF000024FF0804303F53813FEF7A9FB0346002B02D04FF001031D
S32D0000E50801E04FF00003002BB8D14FF000004FF080414FF00F02FFF773F8A948FFF708FB4FF000004FF08041F5
S32D0000E53001F510114FF04602FFF766F8FFF7C4FE4FF000004FF0804101F5A01102F088FF9E4BFB6494A1D1E97D
S32D0000E55800016FF02702FFF753F84FF000004FF0804101F580114FF01402FFF749F84FF000004FF0804101F544
S32D0000E58050116FF02702FFF73FF84FF000004FF0804101F510114FF00F02FFF735F88C48FFF7AAFB4FF00000E0
S32D0000E5A84FF0804101F5E8016FF02702FFF728F84FF000004FF0804101F5A8014FF02802FFF71EF841F26C4096
S32D0000E5D0C1F6FF7004F04CFD41F26C40C1F6FF7048F2A821C0F201014FF000024FF0000304F0FEFF4FF000004B
S32D0000E5F84FF07E5101F5E00102F02EFF4FF0010387F857304FF00003BB6467A1D1E900014FF03202FEF7F4FF29
S32D0000E62024E04FF000004FF0804101F5A0114FF03202FEF7E9FF41F2D440C1F6FF7008F0D5FB03464FF00102D2
S32D0000E648144618466149FEF775FE0346002B02D14FF000031C46E3B2002B03D04FF0000387F8573097F85730FE
S32D0000E670002BD6D15648FFF75FFA4FF000004FF0804101F592016FF03102FEF7BDFF4FF000004FF0804101F57D
S32D0000E69886014FF01E02FEF7B3FF41F27410C1F6FF704B4903F054FF41F27410C1F6FF70484903F04DFF4FF024
S32D0000E6C0C80002F0B1FE41F25810C1F6FF70444900F0B2FB41F25010C1F6FF70414900F0ABFB35A1D1E900016E
S32D0000E6E802F0BAFE41F25810C1F6FF7000F050FB41F25010C1F6FF7000F04AFB41F26410C1F6FF7003F0FAFABC
S32D0000E71041F26010C1F6FF7003F0F4FA4FF4FA7002F082FE41F27410C1F6FF702E4903F013FF4FF000004FF03B
S32D0000E738804101F5D2016FF02702FEF761FF2248FFF7F6F94FF000004FF0804101F578114FF02802FEF754FF8E
S32D0000E7602148FFF7E9F94FF000004FF0804101F5F2014FF03202FEF747FF1C48FFF7DCF94FF000004FF0804106
S32D0000E78801F5F2014FF03202FEF73AFF4FF00003184607F15807BD46B0BD00BFAFF3008000000000008076405B
S32D0000E7B000000000006076409A9999999999F93F000080BF000000C000000743000040400000B4420000000097
S32D0000E7D800003043000028430000F041000038420000A041000082C280B582B000AF786039607B68012B3ED1C0
S32D0000E8003A684FF6FF739A4239D141F24C10C1F6FF704FF0080103F089FA41F25010C1F6FF704FF00001184ADD
S32D0000E82800F05EFA41F25810C1F6FF704FF00101134A00F055FA41F26010C1F6FF704FF0000102F08FFE41F221
S32D0000E8506410C1F6FF704FF0070102F087FE41F26810C1F6FF704FF0000103F019FE41F27410C1F6FF704FF00B
S32D0000E878010103F011FE07F10807BD4680BD00BF0000104180B500AF4FF001004FF6FF71FFF7AAFF80BD00BFA3
S32D0000E8A080B500AF41F23872C1F6FF7241F24C13C1F6FF73D31A194641F24C13C1F6FF731A460B4610464FF059
S32D0000E8C800011A4608F033FC80BD00BF09F0A8FC00F0B0F9FFF7E0FF09F07AFC09F016FC09F0AEFC00F00CF882
S32D0000E8F04FF0000041F28811C1F6FF71FFF79CFD0346184608F0F2FB80B500AF4FF4E043C4F204034FF4E04241
S32D0000E918C4F2040202F5805202F13802126842F4785203F5805303F138031A6000F02EF900F094F841F2B83380
S32D0000E940C1F6FF734FF058021A6041F2B833C1F6FF731B684FF47A7202FB03F241F2B433C1F6FF731A6041F292
S32D0000E968B433C1F6FF731B681A464FF4E043C4F2040303F5825303F104031B6803F070634FEA136303F10103B3
S32D0000E990B2FBF3F31A4641F2BC33C1F6FF731A604FF4E043C4F204034FF4E042C4F2040202F5805202F13C0263
S32D0000E9B8126842F0225203F5805303F13C031A604FF4E043C4F204034FF4E042C4F2040202F5805202F1300267
S32D0000E9E0126842F0006203F5805303F130031A604FF45043C4F203034FF480721A614FF0640002F0A5FB4FF4D5
S32D0000EA085043C4F203034FF45042C4F20302526922F010025A614FF45043C4F203034FF000021A604FF4504344
S32D0000EA30C4F203034FF010025A6103F0BBFA03F063FB41F2B030C1F6FF7002F005FC41F26C40C1F6FF7004F0D2
S32D0000EA5843F941F2883002F0E3FC80BD80B400AF4FF48043C4F206034FF000025A704FF48043C4F206034FF0A4
S32D0000EA8098021A704FF48043C4F206039B79DBB203F01003002B0CBF00230123DBB2002BF0D14FF48043C4F266
S32D0000EAA806039B79DBB203F00C034FEA9303022B0CBF00230123DBB2002BEED14FF48043C4F206034FF01802F1
S32D0000EAD01A714FF48043C4F206034FF000025A714FF4E043C4F2040303F5825303F104034FF00002C0F21312B9
S32D0000EAF81A604FF48043C4F206034FF054025A7100BF4FF48043C4F206039B79DBB203F02003002B14BF0023F5
S32D0000EB200123DBB2002BF0D100BF4FF48043C4F206039B79DBB203F04003002B14BF00230123DBB2002BF0D111
S32D0000EB484FF48043C4F206034FF48042C4F206021278D2B202F03F02D2B21A704FF48043C4F206039B79DBB262
S32D0000EB7003F00C034FEA9303032B0CBF00230123DBB2002BEED14FF000031846BD4680BC704700BF80B400AFB7
S32D0000EB984FF44043C4F204034FF480725A634FF2C003C4F20F034FF2C002C4F20F02526942F400525A614FF205
S32D0000EBC0C003C4F20F034FF2C002C4F20F02126842F400521A604FF44043C4F2040340F20312C0F20A021A6351
S32D0000EBE84FF46143CEF200034FF46142CEF20002D2F8882142F08062C3F888214FF46143CEF200034FF4614232
S32D0000EC10CEF20002926842F080629A60BD4680BC704700BF80B483B000AF7860FEE700BF80B400AF00BEBD4621
S32D0000EC3880BC704780B400AF4FF0E0224CF20003C0F20003C2F8083D4FF40053C4F205034CF22052DA814FF400
S32D0000EC600053C4F205034DF62812DA814FF40053C4F205034FF0D2021A80BD4680BC704780B500AF4FF44043FC
S32D0000EC88C4F20403D3F8A03003F48053002B0CBF00230123DBB2002B1FD04FF44043C4F204034FF44042C4F25A
S32D0000ECB00402D2F8A02022F48052C3F8A02041F2F440C1F6FF7008F097F94FF2C003C4F20F034FF2C002C4F2A9
S32D0000ECD80F02126822F400521A6080BD0000000090B585B000AFF8600B467A60FB72FB68FA7A1A71FB684FF047
S32D0000ED0000025A714FF001031C4678682049FEF733FB0346002B02D14FF000031C46E3B2002B02D01A4B7B604A
S32D0000ED2811E04FF001031C4678681849FEF70CFB0346002B02D14FF000031C46E3B2002B01D0124B7B60786856
S32D0000ED50FDF7C2FC02460B46104619460AA3D3E90023FDF70DFD02460B4610461946FDF7E9FF0246FB681A60BC
S32D0000ED78FB68184607F11407BD4690BDAFF30080ABAAAAAAAAAA2040000040410000803F80B582B000AF78609C
S32D0000EDA07B685B79002B10D07B684FF000025A717B681B7941F2B030C1F6FF7019464FF000024FF01E0302F0F2
S32D0000EDC891FA07F10807BD4680BD00BF80B584B000AF786039603B687F2B03DD4FF07F03FB7309E03B6813F117
S32D0000EDF0800F03DA4FF08003FB7301E03B68FB737B685B79FA7B9A420FD07B68FA7B5A717B681A79FB7B41F23E
S32D0000EE18B030C1F6FF7011461A464FF01E0302F061FA07F11007BD4680BD00BF00000000B0B584B000AF786034
S32D0000EE4039604FF001031C4638684D49FEF776FA0346002B02D14FF000031C46E3B2002B02D0474B3B6011E030
S32D0000EE684FF001031C4638684449FEF781FA0346002B02D14FF000031C46E3B2002B01D03E4B3B603868FDF706
S32D0000EE9023FC04460D467B681B681846FDF71CFC02460B46104619464FF000024FF0804303F5B203FDF78EFD0B
S32D0000EEB802460B4620462946FDF75EFC02460B4610461946FDF73AFF03463B604FF001031C4638682A49FEF764
S32D0000EEE041FA0346002B02D14FF000031C46E3B2002B14D03868FDF7EFFB02460B46104619461DA3D3E90023CF
S32D0000EF08FDF73AFC02460B4610461946FDF7CEFE0346FB6022E03868FDF7DAFB02460B46104619464FF0000205
S32D0000EF304FF0804303F5C003FDF722FC02460B46104619464FF000024FF0804303F5B203FDF740FD02460B46DC
S32D0000EF5810461946FDF7AAFE0346FB607868F968FFF734FF07F11007BD46B0BDAFF3008052B81E85EB51F43F6F
S32D0000EF800000C8C20000C84200000000AFF3008080B485B000AF02460B46FA71BB71BB79002B07D141F28C135C
S32D0000EFA8C1F6FF734FF000021A7006E041F28C13C1F6FF734FF001021A704FF03803FB7341F28C13C1F6FF73B7
S32D0000EFD01A78FB7B1343FB734FF4C043C4F206034FF4C042C4F206029278D2B242F01002D2B29A704FF4C04399
S32D0000EFF8C4F206034FF4C042C4F206029278D2B242F02002D2B29A704FF4C043C4F20603FA7B1A7107F11407A1
S32D0000F020BD4680BC704700BF80B483B000AF4FF001037B6004E000BF7B6803F101037B607B68312BCCBF002393
S32D0000F0480123DBB2002BF2D107F10C07BD4680BC704700BF80B582B000AF02460B46FA71BB7141F28D13C1F66B
S32D0000F070FF731B7818464FF00001FFF789FF4FF4C043C4F20603DB78DBB203F00203002B14BF00230123DBB2A2
S32D0000F098002BF0D14FF4C043C4F206034FF4C042C4F20602D278D2B242F00202D2B2DA704FF4C043C4F206037F
S32D0000F0C0FA791A714FF4C043C4F20603DB78DBB203F00203002B14BF00230123DBB2002BF0D14FF4C043C4F28D
S32D0000F0E806034FF4C042C4F20602D278D2B242F00202D2B2DA704FF4C043C4F20603BA791A714FF4C043C4F25D
S32D0000F1100603DB78DBB203F00203002B14BF00230123DBB2002BF0D14FF4C043C4F206034FF4C042C4F206022A
S32D0000F138D278D2B242F00202D2B2DA704FF4C043C4F206034FF4C042C4F206029278D2B222F02002D2B29A707F
S32D0000F1604FF4C043C4F206034FF4C042C4F206029278D2B222F01002D2B29A70FFF754FF07F10807BD4680BDA9
S32D0000F18880B582B000AF0346FB71FB79184600F06BF807F10807BD4680BD00BF80B582B000AF02460B46FA7149
S32D0000F1B0BB7100F039F8FB794FEA4303DBB21846FFF7E2FFBB791846FFF7DEFF00F03EF807F10807BD4680BD5D
S32D0000F1D880B500AF4FF0FF0000F046F80346184680BD00BF80B584B000AF0346FB7100F017F8FB794FEA430357
S32D0000F200DBB243F00103DBB2DBB21846FFF7BCFFFFF7E2FF0346FB7300F018F8FB7B184607F11007BD4680BD42
S32D0000F22880B400AF4FF24003C4F20F034FF24002C4F20F02926842F480129A60BD4680BC704700BF80B400AFEB
S32D0000F2504FF24003C4F20F034FF24002C4F20F02526842F480125A60BD4680BC704700BF80B485B000AF0346A8
S32D0000F278FB714FF00003BB7303E0FB7B03F10103FB734FF44043C4F20A03DB6A4FF00003002BF2D14FF4404309
S32D0000F2A0C4F20A034FF44042C4F20A02D26A42F00042DA624FF44043C4F20A03FA795A6300BF4FF44043C4F216
S32D0000F2C80A03DB6A03F40033002B14BF00230123DBB2002BF1D14FF44043C4F20A039B6BBB73BB7B184607F194
S32D0000F2F01407BD4680BC704780B582B000AF4FF4E043C4F204034FF4E042C4F2040202F5805202F1300212681D
S32D0000F31842F4805203F5805303F130031A604FF42043C4F204034FF480721A654FF24003C4F20F034FF240026D
S32D0000F340C4F20F02526942F480125A61FFF77EFF4FF42043C4F204034FF400725A654FF42043C4F204034FF4AA
S32D0000F36800729A654FF42043C4F204034FF40072DA654FF44043C4F20A034FF44062C8F200021A604FF4404345
S32D0000F390C4F20A034FF00502C3F60062DA604FF000037B6007E04FF0FF00FFF7EDFE7B6803F101037B607B6835
S32D0000F3B8092BCCBF00230123DBB2002BEFD104A1D1E9000102F048F807F10807BD4680BD9A9999999999B93F41
S32D0000F3E090B486B000AFF860B9607A60FA684FF42043C4F206039A4214D14FF4E043C4F204034FF4E042C4F2C5
S32D0000F408040202F5805202F13402126842F4806203F5805303F134031A6083E0FA684FF43043C4F206039A42C6
S32D0000F43014D14FF4E043C4F204034FF4E042C4F2040202F5805202F13402126842F4006203F5805303F134038B
S32D0000F4581A6067E0FA684FF44043C4F206039A4214D14FF4E043C4F204034FF4E042C4F2040202F5805202F11D
S32D0000F4803402126842F4805203F5805303F134031A604BE0FA684FF45043C4F206039A4214D14FF4E043C4F237
S32D0000F4A804034FF4E042C4F2040202F5805202F13402126842F4005203F5805303F134031A602FE0FA684FF4F6
S32D0000F4D02043C4F20E039A4214D14FF4E043C4F204034FF4E042C4F2040202F5805202F12802126842F4806267
S32D0000F4F803F5805303F128031A6013E04FF4E043C4F204034FF4E042C4F2040202F5805202F12802126842F4B5
S32D0000F520006203F5805303F128031A60FB68DB78DBB223F00C03DAB2FB68DA70FB684FF000029A70BB684FF445
S32D0000F5487A7202FB03F27B684FEA031392FBF3F39CB2FB681B78DBB223F01F03FB75234603F4F8534FEA232372
S32D0000F570DBB203F01F03DAB2FB7D1343DAB2FB681A70E2B2FB685A70BB684FF4FA4202FB03F27B684FEA031371
S32D0000F59892FBF3F39AB2234619464FEAC121CB1A4FEA43139BB2D3189CB2FB689B7ADBB223F01F03FB75E3B26A
S32D0000F5C003F01F03DAB2FB7D1343DAB2FB689A72FB68DB78DBB243F00C03DAB2FB68DA7007F11807BD4690BC8F
S32D0000F5E8704700BF80B483B000AF786000BF7B681B79DBB203F02003002B14BF00230123DBB2002BF3D17B6814
S32D0000F610DB79DBB2184607F10C07BD4680BC704780B483B000AF78600B46FB7000BF7B681B79DBB2DBB26FEA39
S32D0000F6380303DBB24FEAD313DBB2002BF3D17B68FA78DA7107F10C07BD4680BC704700BF80B487B000AFF860A4
S32D0000F660B9607A60FB687B6107E0BB68DAB27B691A707B6903F101037B617B68002B0CBF00230123DBB27A68FF
S32D0000F68802F1FF327A60002BEBD107F11C07BD4680BC704780B584B000AF786039607B681B6BFB60FA683B680C
S32D0000F6B09A4264D07B681B79002B43D07B685A787B6803F1340310461946FA684FF0010301F0ACFB0346002B3E
S32D0000F6D80CBF00230123DBB2002B02D04FF001034BE07B684FF000021A717B685A6A7B681B6AD218FB689A4213
S32D0000F70020D97B68DB78FB7214E07B681B6AFA68D318FB607B685A787B6803F1340310461946FA684FF001031E
S32D0000F72801F080FBFB7A03F1FF33FB72FB7A012B94BF00230123DBB2002BE2D13B68002B19D07B685A787B684A
S32D0000F75003F13403104619463A684FF0010301F057FA0346002B0CBF00230123DBB2002B02D04FF0010304E04D
S32D0000F7787B683A681A634FF00003184607F11007BD4680BD80B584B000AF786078684FF00001FFF77FFF0346A5
S32D0000F7A0FB73FB7B002B40F0AE807B681B78032B40F095807B685B79002B00F090807B684FF000021A637B687F
S32D0000F7C803F1340318464FF000014FF40072FFF73FFF7B684FF0550283F832227B684FF0AA0283F833227B6898
S32D0000F7F04FF0520283F834207B684FF0520283F835207B684FF0610283F836207B684FF0410283F837207B68D3
S32D0000F8184FF0720283F818227B684FF0720283F819227B684FF0410283F81A227B684FF0610283F81B227B68D2
S32D0000F8401B69DAB27B6883F81C227B681B699BB24FEA2323DAB27B6883F81D227B681B694FEA1343DAB27B682D
S32D0000F86883F81E227B681B694FEA1363DAB27B6883F81F227B68DB68DAB27B6883F820227B68DB689BB24FEA78
S32D0000F8902323DAB27B6883F821227B68DB684FEA1343DAB27B6883F822227B68DB684FEA1363DAB27B6883F835
S32D0000F8B823227B6859787B6803F134027B685B69084611461A464FF0010301F0ABFA7B684FF000025A717B68C5
S32D0000F8E05B7818464FF000014FF0000201F084FB0346002B0CBF00230123DBB2002B02D04FF00103FB73FB7BA1
S32D0000F908184607F11007BD4680BD00BF80B582B000AF78600B467B807B68002B08D07B681B78002B04D07B68ED
S32D0000F930DB887A889A4202D04FF009030FE07B685B78184601F0ECFB034603F00103DBB2002B02D04FF0030361
S32D0000F95801E04FF00003184607F10807BD4680BD80B586B000AF78607B681A687B689B8810461946FFF7CAFFE8
S32D0000F9800346FB75FB7D002B40F0C8807B689B7903F02003002B00F0C1807B689B7903F04003002B20D07B68F1
S32D0000F9A81B6859787B6803F128027B689B69084611461A464FF0010301F034FA0346002B0CBF00230123DBB27B
S32D0000F9D0002B02D04FF00103A1E07B689B7923F04003DAB27B689A717B681A687B68DB6910461946FFF752FEFA
S32D0000F9F80346FB75FB7D002B40F08C807B681B6A3B613B6903F10B033A6902F10B02127842F02002D2B21A7010
S32D0000FA203B6903F11C037A68D268D2B21A703B6903F11D037A68D26892B24FEA2222D2B21A703B6903F11E037B
S32D0000FA487A68D2684FEA1242D2B21A703B6903F11F037A68D2684FEA1262D2B21A703B6903F11A037A68126936
S32D0000FA70D2B21A703B6903F11B037A68126992B24FEA2222D2B21A703B6903F114037A6812694FEA1242D2B25B
S32D0000FA981A703B6903F115037A6812694FEA124292B24FEA2222D2B21A704FF00003FB603B6903F11603FA689D
S32D0000FAC0D2B21A703B6903F11703FA6892B24FEA2222D2B21A703B6903F11803FA684FEA1242D2B21A703B69D3
S32D0000FAE803F11903FA684FEA1262D2B21A707B689B7923F02003DAB27B689A717B681B684FF001021A717B6806
S32D0000FB101B681846FFF73AFE0346FB75FB7D184607F11807BD4680BD80B584B000AF78607868FFF719FF0346AB
S32D0000FB38FB73FB7B002B03D17B684FF000021A60FB7B184607F11007BD4680BD80B588B000AF786039604FF02F
S32D0000FB6080033B614FF00F03FB604FF0FF337B614FF00203FB612AE04FF00103BB611AE0FB69BA6902FB03F3E2
S32D0000FB883A6802FB03F27B68D31ABB60BB68002B09DBBA687B699A4205D2BB687B61FB693B61BB69FB60BB6943
S32D0000FBB003F10103BB61BB69102B8CBF00230123DBB2002BDCD1FB694FEA4303FB61FB69B3F5807F8CBF002305
S32D0000FBD80123DBB2002BCBD14FF48053C4F20B034FF48052C4F20B02D26A22F00802DA624FF48053C4F20B0367
S32D0000FC00DB6A1A464FF00F03CFF6F0731340BB614FF48053C4F20B033A694FEA52024FEA02224FEA02424FEA2C
S32D0000FC281242F96801F1FF314FEA0111C9B21143BA690A4342F46022DA6203E04FF00A0001F0EEFB4FF480533D
S32D0000FC50C4F20B035B6A03F00803002B14BF00230123DBB2002BEDD14FF48053C4F20B034FF48052C4F20B0292
S32D0000FC78D26A42F00802DA624FF48053C4F20B034FF48052C4F20B02126B42F480121A6307F12007BD4680BDD7
S32D0000FCA080B582B000AF786039607B684FF000021A604FF48053C4F20B034FF40042C0F20012DA624FF480539C
S32D0000FCC8C4F20B03DB6A03F08073002B0CBF00230123DBB2002BF1D14FF48053C4F20B034FF00002C3F8C020B2
S32D0000FCF04FF48053C4F20B034FF481325A604FF48053C4F20B034FF028029A624FF48053C4F20B034FF00112F1
S32D0000FD185A643B689B6818464CF66041C0F20501FFF714FF4FF48053C4F20B035B6A03F00303002B0CBF0023A6
S32D0000FD400123DBB2002BF1D14FF45043C4F2040340F243421A604FF45043C4F2040340F243425A604FF4504359
S32D0000FD68C4F204034FF488629A604FF45043C4F2040340F24342DA604FF45043C4F2040340F243421A614FF4FD
S32D0000FD905043C4F2040340F243425A614FF4E043C4F204034FF4E042C4F2040202F5805202F13002126842F4A1
S32D0000FDB8003203F5805303F130031A604FF48053C4F20B034FF6FF721A634FF48053C4F20B034FF0B302C0F2F2
S32D0000FDE07F025A634FF48053C4F20B034FF48052C4F20B02D26A42F00062DA624FF48053C4F20B03DB6A03F0E7
S32D0000FE080063002B0CBF00230123DBB2002BF1D14FF48053C4F20B035B6A03F48033002B0CBF00230123DBB29F
S32D0000FE30002B03D07B684FF001021A604FF48053C4F20B034FF48052C4F20B02126B42F080021A634FF0000365
S32D0000FE58184607F10807BD4680BD00BF80B400AF4FF48053C4F20B035B6A1A4640F207331340002B0CBF00235E
S32D0000FE800123DBB21846BD4680BC704780B485B000AF78604FF48053C4F20B031B6B1A467B681340FB60FB68AB
S32D0000FEA8002B14BF00230123DBB2002BEED1FB68184607F11407BD4680BC704780B584B000AF78607B681B7840
S32D0000FED003F03F0248F2A453C0F2010353F82230FB60FB68002B06D17B681B78002B02D04FF0010330E14FF482
S32D0000FEF88053C4F20B034FF48052C4F20B02126B42F080021A634FF48053C4F20B035B6A03F00103DBB2002B71
S32D0000FF20F5D14FF48053C4F20B037A6852689A60FB6823F44003FB607B685B784FEA835303F44003FA681343AE
S32D0000FF48FB607B685B78022B03D1FB6843F40013FB607B685B78042B16D1FB6803F44033B3F5003F08D1FB68B5
S32D0000FF7023F44033FB60FB6843F44033FB6007E0FB6823F44033FB60FB6843F40033FB604FF48053C4F20B03E5
S32D0000FF984FF48052C4F20B0252684FEA02424FEA12425A607B68DB68002B32D0FB6803F44033B3F5403F03D0CB
S32D0000FFC0FB6843F40013FB607B681B7A002B03D0FB6843F01003FB607B68DB68012B03D9FB6843F02003FB604F
S32D0000FFE87B68DB68B3F1FF3F13D04FF48053C4F20B034FF48052C4F20B02526811467A68D2684FEA02420A4357
S32D000100105A60FB6843F00203FB604FF48053C4F20B034FF000021A604FF48053C4F20B03FA68DA604FF00100C6
S32D00010038C0F20E00FFF726FF0346012B0CBF00230123DBB2002B10D04FF48053C4F20B034FF48052C4F20B02ED
S32D00010060126B42F4702242F001021A634FF0010372E04FF48053C4F20B031B6B03F08003002B0CBF00230123D2
S32D00010088DBB2002B0ED04FF48053C4F20B034FF48052C4F20B02126B42F001121A634FF0010355E04FF4805334
S32D000100B0C4F20B031B6B03F48033002B0CBF00230123DBB2002B0ED04FF48053C4F20B034FF48052C4F20B02A8
S32D000100D8126B42F001121A634FF0FF3338E0FB6803F44033002B25D04FF48053C4F20B031B691A467B681A6128
S32D00010100FB6803F44033B3F5803F17D14FF48053C4F20B035B691A467B685A614FF48053C4F20B039B691A46DA
S32D000101287B689A614FF48053C4F20B03DB691A467B68DA614FF48053C4F20B034FF48052C4F20B02126B42F0CD
S32D0001015001021A634FF00003184607F11007BD4680BD00BF80B592B000AF786039604FF00003FB633B68BB635A
S32D0001017841F2A413C1F6FF737B637B6B002B03D140F6012300F0A0BC41F2A833C1F6FF733B633B6B002B03D162
S32D000101A040F60B2300F094BC3B6B1B68FB62FB6A002B03D140F60B2300F08ABC7B6841F20432934200F038823D
S32D000101C841F2043293421BD841F20132934238D041F20132934207D8032B00F03D84092B00F0298400F066BCB8
S32D000101F041F20232934200F0128241F20332934200F0BE8300F05ABC41F20732934200F04B8341F2073293426C
S32D000102180BD841F20532934200F0348241F20632934200F0108300F045BC41F20832934200F0B68241F2093263
S32D00010240934200F0C48200F039BC786B48F29851C0F20101FFF724FD0346FB63FB6B002B40F030844FF0000370
S32D0001026887F847304FF0000387F82B304FF0000387F82A304FF0000387F829304FF0000387F846304FF00003A7
S32D0001029087F828304FF000033B724FF000037B724FF00003FB604FF000033B744FF000037B6107F1080318463D
S32D000102B8FFF704FE0346002B0CBF00230123DBB2002B03D04FF00103FB63FCE340F24C4001F0A6F84FF00803F7
S32D000102E03B724FF000037B724FF4D573FB604FF000033B744FF000037B6107F108031846FFF7E0FD03463B6402
S32D000103083B6C002B0BD1BA69FB689A4203D04FF00103FB63D7E34FF0010387F846304FF0010387F8283097F8A7
S32D000103302830002B00F0C6804FF037033B724FF000037B724FF00003FB604FF000033B744FF000037B6107F1EC
S32D0001035808031846FFF7B2FD03463B643B6C002B03D04FF00103FB63ADE34FF069033B724FF000037B724FF0E4
S32D000103800003FB604FF000033B744FF000037B6107F108031846FFF795FD0346002B0CBF00230123DBB2002BBA
S32D000103A803D04FF00103FB638DE3BB6903F44013002B00F083804FF000033B644FF00A0001F02EF83B6C03F1DA
S32D000103D001033B644FF037033B724FF000037B724FF00003FB604FF000033B744FF000037B6107F108031846F9
S32D000103F8FFF764FD0346002B0CBF00230123DBB2002B03D04FF00103FB6336E04FF069033B724FF000037B7230
S32D0001042097F84630002B05D04FF00003C4F23003FB6002E04FF44013FB604FF000033B744FF000037B6107F148
S32D0001044808031846FFF73AFD0346002B0CBF00230123DBB2002B03D04FF00103FB630CE0BB69002B05DB3B6C7B
S32D00010470632B02D84FF0010301E04FF00003002BA0D1FB6B002B40F01F833B6C632B04D94FF0000387F8463047
S32D0001049814E04FF0010387F8473097F84630002B0CD04FF0000387F84630BB6903F08043002B03D04FF00103AA
S32D000104C087F8463097F82A30002B03D07B6B4FF007021A6097F82930002B03D07B6B4FF008021A6097F82B3010
S32D000104E8002B03D07B6B4FF004021A6097F84730002B0BD07B6B4FF002021A6097F84630002B03D07B6B4FF06B
S32D0001051003021A6097F82B30002B0FD097F84730002B0BD07B6B4FF005021A6097F84630002B03D07B6B4FF06F
S32D0001053806021A604FF45043C4F204034FF000021A604FF45043C4F204034FF000025A604FF45043C4F20403A3
S32D000105604FF000029A604FF45043C4F204034FF00002DA604FF45043C4F204034FF000021A614FF45043C4F248
S32D0001058804034FF000025A61FB6A9A68FB6A5B6810461946FFF7DAFA4FF45043C4F2040340F243421A604FF42C
S32D000105B05043C4F2040340F243425A604FF45043C4F204034FF488629A604FF45043C4F2040340F24342DA601D
S32D000105D84FF45043C4F2040340F243421A614FF45043C4F2040340F243425A614FF4E043C4F204034FF4E042A2
S32D00010600C4F2040202F5805202F13002126842F4003203F5805303F130031A6057E2B86BFFF750FC03463B644D
S32D000106283B6C002B00F04E824FF00203FB6349E2BB6B002B03D14FF00C03FB6343E24FF48053C4F20B03DB6A2F
S32D0001065003F47F434FEA13234FEA43033B644FF48053C4F20B03DB6A03F0F0034FEA131303F101023B6C02FB36
S32D0001067803F33B64FB6A9A683B6CB2FBF3F2BB6B1A6020E2BB6B002B03D14FF00C03FB6319E2BB6B1B68002BDC
S32D000106A003D14FF00C03FB6311E2FFF7DBFB0346002B14BF00230123DBB2002B70D04FF45043C4F204034FF094
S32D000106C800021A604FF45043C4F204034FF000025A604FF45043C4F204034FF000029A604FF45043C4F2040398
S32D000106F04FF00002DA604FF45043C4F204034FF000021A614FF45043C4F204034FF000025A61FB6A9A68BB6BF5
S32D000107181B6810461946FFF719FA4FF45043C4F2040340F243421A604FF45043C4F2040340F243425A604FF466
S32D000107405043C4F204034FF488629A604FF45043C4F2040340F24342DA604FF45043C4F2040340F243421A61CA
S32D000107684FF45043C4F2040340F243425A614FF4E043C4F204034FF4E042C4F2040202F5805202F130021268B1
S32D0001079042F4003203F5805303F130031A6096E140F60A23FB6392E1BB6B002B03D14FF00C03FB638BE14FF43B
S32D000107B88053C4F20B035B684FEAC3434FEAD343BA6B13607FE1BB6B002B03D14FF00C03FB6378E1FFF742FBD5
S32D000107E00346002B14BF00230123DBB2002B2AD0BB6B1A6840F6FF739A4203D94FF00C03FB6364E14FF480539B
S32D00010808C4F20B034FF48052C4F20B02526822F4FE5222F03F025A604FF48053C4F20B034FF48052C4F20B0246
S32D0001083052681146BA6B12684FEAC2424FEAD2420A435A6043E140F60A23FB633FE1BB6B002B03D14FF00C03E0
S32D00010858FB6338E14FF48053C4F20B039B6A03F006034FEA53033B643B6C002B04D1BB6B4FF000021A6026E162
S32D000108803B6C012B04D1BB6B4FF001021A601EE13B6C102B04D1BB6B4FF002021A6016E14FF00503FB6312E197
S32D000108A8BB6B002B03D14FF00C03FB630BE1FFF7D5FA0346002B14BF00230123DBB2002B56D0BB6B1B68002B5F
S32D000108D016D14FF48053C4F20B034FF48052C4F20B02926A22F006029A624FF48053C4F20B034FF48052C4F2A9
S32D000108F80B02926A9A62E6E0BB6B1B68012B18D14FF48053C4F20B034FF48052C4F20B02926A22F006029A6284
S32D000109204FF48053C4F20B034FF48052C4F20B02926A42F002029A62C9E0BB6B1B68022B16D14FF48053C4F296
S32D000109480B034FF48052C4F20B02926A22F006029A624FF48053C4F20B034FF48052C4F20B02926A9A62AEE050
S32D000109704FF00503FB63AAE040F60A23FB63A6E0BB6B002B03D14FF00C03FB639FE04FF48053C4F20B034FF475
S32D000109988052C4F20B02D26A42F00062DA624FF48053C4F20B03DB6A03F00063002B0CBF00230123DBB2002B25
S32D000109C0F1D14FF48053C4F20B031B6B03F08003002B0CBF00230123DBB2002B0FD04FF48053C4F20B034FF47F
S32D000109E88052C4F20B02126B42F080021A637B6B4FF000021A604FF48053C4F20B035B6A03F48033002B0CBFBD
S32D00010A1000230123DBB2002B08D07B6B1B68002B08D17B6B4FF001021A6003E07B6B4FF000021A607B6B1A68E5
S32D00010A38BB6B1A6047E0BB6B4FF01C021A60BB6B03F104034FF004021A60BB6B03F108034FF41E721A6036E063
S32D00010A604FF00200FFF712FA4FF48053C4F20B031B6B03F4E003002B0CBF00230123DBB2002B0ED04FF4805301
S32D00010A88C4F20B034FF48052C4F20B02126B42F4E0021A634FF00403FB634FF48053C4F20B034FF48052C4F248
S32D00010AB00B02126B42F032021A6308E040F60923FB6304E000BF02E000BF00E000BFFB6B184607F14807BD4611
S32D00010AD880BD00BF80B489B000AF786039607B687B6141F2A413C1F6FF733B613B69002B02D14FF0000381E0B3
S32D00010B003B691B68022B0BD03B691B68032B07D03B691B68072B03D03B691B68082B0DD14FF48053C4F20B032D
S32D00010B285B6A03F00403002B0CBF00230123DBB2002BF1D13B68FB6156E0FB69B3F5007F28BF4FF40073FB6070
S32D00010B50FB6803F103034FEA9303BB613CE04FF48053C4F20B031B6B03F4E003002B0CBF00230123DBB2002BE3
S32D00010B7810D04FF48053C4F20B034FF48052C4F20B02126B42F4E00242F020021A634FF0000333E04FF48053EB
S32D00010BA0C4F20B035B6A03F40063002B14BF00230123DBB2002BF1D14FF48053C4F20B031B6A1A467B691A6067
S32D00010BC87B6903F104037B61BB6903F1FF33BB61BB69002B0CBF00230123DBB2002BBAD1FA69FB68D31AFB612A
S32D00010BF0FB69002B0CBF00230123DBB2002BA0D14FF00103184607F12407BD4680BC704780B58EB000AFB96017
S32D00010C187A600246FA73BB7341F29013C1F6FF737B63FB7B002B02D1BB7B002B02D14FF0040381E040F230431F
S32D00010C40C1F6FF731B78DBB203F00103DBB2002B02D04FF0030373E0BB68002B02D14FF000036DE07B6B1B7BF7
S32D00010C68002B03D17B684FEA43237B60BB7B012B2CD14FF011033B754FF000037B757B68BB614FF001033B7779
S32D00010C90BB7B3B6207F1140341F202301946FFF761FA0346002B14BF00230123DBB2002B3ED0B8684FF4007116
S32D00010CB8FFF710FF0346002B0CBF00230123DBB2002B31D04FF00003BB732DE04FF012033B754FF000037B7516
S32D00010CE07B68BB614FF001033B77BB7B3B6207F1140341F202301946FFF734FA0346002B14BF00230123DBB20C
S32D00010D08002B11D0BB7B4FEA4323B8681946FFF7E1FE0346002B0CBF00230123DBB2002B02D04FF00003BB7307
S32D00010D30BB7B002B02D04FF0010301E04FF00003184607F13807BD4680BD00BF80B487B000AF786039607B68F9
S32D00010D58FB603B687B6155E07B69B3F5007F28BF4FF400733B617A693B69D31A7B613B6903F103034FEA93035C
S32D00010D803B613BE04FF48053C4F20B031B6B03F4E003002B0CBF00230123DBB2002B10D04FF48053C4F20B03A4
S32D00010DA84FF48052C4F20B02126B42F4E00242F010021A634FF0FF332EE04FF48053C4F20B035B6A03F48063F6
S32D00010DD0002B14BF00230123DBB2002BF1D14FF48053C4F20B03FA6812681A62FB6803F10403FB603B6903F1B2
S32D00010DF8FF333B613B69002B0CBF00230123DBB2002BBBD17B69002B0CBF00230123DBB2002BA1D14FF001034B
S32D00010E20184607F11C07BD4680BC704780B58EB000AFB9607A600246FA73BB7341F29013C1F6FF737B63FB7BE9
S32D00010E48002B02D1BB7B002B02D14FF00403CAE040F23043C1F6FF731B78DBB203F00103DBB2002B02D04FF0AB
S32D00010E700303BCE040F23043C1F6FF731B78DBB203F00403002B0CBF00230123DBB2002B02D04FF00203AAE034
S32D00010E98BB68002B02D14FF00003A4E07B6B1B7B002B03D17B684FEA43237B60BB7B012B2CD14FF018033B7503
S32D00010EC04FF000037B757B68BB614FF000033B77BB7B3B6207F1140341F202301946FFF741F90346002B14BFC1
S32D00010EE800230123DBB2002B3ED0B8684FF40071FFF728FF0346002B0CBF00230123DBB2002B31D04FF000035C
S32D00010F10BB732DE04FF019033B754FF000037B757B68BB614FF000033B77BB7B3B6207F1140341F202301946A1
S32D00010F38FFF714F90346002B14BF00230123DBB2002B11D0BB7B4FEA4323B8681946FFF7F9FE0346002B0CBFE0
S32D00010F6000230123DBB2002B02D04FF00003BB734FF00D033B754FF000037B757B6B1B69BB614FF000033B7776
S32D00010F884FF000033B6207F1140341F202301946FFF7E4F80346002B0CBF00230123DBB2002B02D04FF0010363
S32D00010FB01DE07A6A48F20803CFF6D9731340002B02D04FF0010312E07B6A03F4F853B3F5106F0CBF00230123F6
S32D00010FD8DBB2002BC8D1BB7B002B02D04FF0010301E04FF00003184607F13807BD4680BD80B58CB000AF0B46BA
S32D000110003A600246FA71BB7141F29013C1F6FF73BB62FB79002B02D04FF004037AE04FF0010387F82F3040F2C8
S32D000110283043C1F6FF731B78DBB203F00103DBB2002B02D04FF0030368E0BB79032B5FD801A252F823F000BF77
S32D00011050611001006B1001007D1001008F1001004FF0000387F82F3052E0BB6A9A683B681A604FF0000387F8FE
S32D000110782F3049E03B684FF400721A804FF0000387F82F3040E04FF009033B724FF000037B72BB6A1B69FB6064
S32D000110A04FF000033B744FF000037B6107F1080341F202301946FFF755F80346002B0CBF00230123DBB2002BCA
S32D000110C802D04FF0010321E07B6A03F44003002B11D13B6A4FEA934303F07F0303F101027B6A4FEA132303F050
S32D000110F0030303F1FF3302FA03F23B681A604FF0000387F82F3003E04FF0040387F82F3097F82F30184607F12C
S32D000111183007BD4680BD00BF80B483B000AF0346FB71FB79002B02D04FF0010305E040F23043C1F6FF731B78AD
S32D00011140DBB2184607F10C07BD4680BC704700BF80B483B000AF78604FF4E043C4F204034FF4E042C4F20402A3
S32D0001116802F5805202F13802126842F0010203F5805303F138031A604FF00003C4F204037A689A604FF0000322
S32D00011190C4F204034FF005025A604FF00003C4F204034FF00002C4F20402126842F001021A6000BF4FF000034D
S32D000111B8C4F204031B6803F08003002B14BF00230123DBB2002BF1D14FF00003C4F204034FF00002C4F2040297
S32D000111E0126822F001021A6007F10C07BD4680BC704700BF80B582B000AF786039607B68012B0AD13A684FF6BF
S32D00011208FF739A4205D141F2B030C1F6FF7000F00FF807F10807BD4680BD00BF80B500AF4FF001004FF6FF7184
S32D00011230FFF7E0FF80BD00BF80B483B000AF78607B684FF000021A707B68184607F10C07BD4680BC704700BF21
S32D0001125880B582B000AF78607B681B7883F00103DBB2002B36D04FF4E043C4F2040303F5805303F128034FF47E
S32D0001128000621A604FF45043C4F204034FF440721A624FF45043C4F204034FF440725A6241F2B433C1F6FF73D8
S32D000112A81B684FEAD372D3184FEA63034FF43040C4F20E0019464FF46142FEF78DF84FF0640000F0ADF87B683B
S32D000112D04FF001021A704FF0010301E04FF00003184607F10807BD4680BD00BF80B582B000AF7860F970BA70D8
S32D000112F87B704FF43040C4F20E004FF07F01FEF78BF94FF43040C4F20E004FF00801FEF783F9FB784FF43040D7
S32D00011320C4F20E001946FEF77BF9BB784FF43040C4F20E001946FEF773F97B784FF43040C4F20E001946FEF7EA
S32D000113486BF94FF43040C4F20E004FF0FF01FEF763F907F10807BD4680BD00BF80B487B000AFF860B9607A60A0
S32D00011370FA6844F6D353C1F26203A3FB02134FEA9312BB68D3187B61FA6844F6D353C1F26203A3FB02134FEA33
S32D0001139893134FF47A7101FB03F3D31AFB60FB684FEAC33244F6D353C1F26203A3FB02134FEA93127B68D318B0
S32D000113C03B613B694FEAD3337A69D3187B613B694FEA43434FEA53433B614FF45043C4F203031B681A467B69AE
S32D000113E89A4211D34FF45043C4F203031B681A467B699A420BD14FF45043C4F203035B681A463B699A4202D2FC
S32D000114104FF0010301E04FF00003002BDDD107F11C07BD4680BC704780B584B000AF78604FF45043C4F20303DB
S32D000114381B68FB604FF45043C4F203035B68BB607B681846F968BA68FFF788FF07F11007BD4680BD00000000A7
S32D0001146080B584B000AFC7E900014FF45043C4F203031B68FB604FF45043C4F203035B68BB60D7E900010AA346
S32D00011488D3E90023FBF778F902460B4610461946FBF734FC03461846F968BA68FFF75EFF07F11007BD4680BDB7
S32D000114B00000000000408F4080B584B000AF4FF45043C4F203031B68FB604FF45043C4F203035B68BB60F868A6
S32D000114D8FBF7DCF802460B46C7E90023B868FBF7D5F802460B46104619464FF000024FF0804303F56003FBF7F6
S32D0001150069FA02460B46D7E90001FAF787FF02460B46C7E90023D7E900231046194607F11007BD4680BD00BF76
S32D0001152880B483B000AF4FF45043C4F203031B684FF47A7202FB03F37B604FF45043C4F203035B684FF47A72E8
S32D0001155002FB03F34FEAD3337A68D3187B607B68184607F10C07BD4680BC704780B584B000AF78600B46FB70A4
S32D000115784FF00B03FB73FA78FB7B786811461A4600F0ECF87B68184607F11007BD4680BD80B485B000AF7860B6
S32D000115A07B68A3F11003002B01DA03F11F034FEA6313FB60FB68012B48D0022B00F08980002B40F0C9804FF4B8
S32D000115C86142CEF200024FF46143CEF20003D3F8803119467B68A3F110004FF01F03C8F200030340002B05DA18
S32D000115F003F1FF3363F01F0303F101034FF0010000FA03F30B43C2F880314FF46142CEF200024FF46143CEF201
S32D0001161800031B6819467B68A3F110004FF01F03C8F200030340002B05DA03F1FF3363F01F0303F101034FF0FA
S32D00011640010000FA03F30B43136085E04FF46142CEF200024FF46143CEF20003D3F8843119467B68A3F11000AC
S32D000116684FF01F03C8F200030340002B05DA03F1FF3363F01F0303F101034FF0010000FA03F30B43C2F8843168
S32D000116904FF46142CEF200024FF46143CEF200035B6819467B68A3F110004FF01F03C8F200030340002B05DAC5
S32D000116B803F1FF3363F01F0303F101034FF0010000FA03F30B43536042E04FF46142CEF200024FF46143CEF2CE
S32D000116E00003D3F8883119467B68A3F110004FF01F03C8F200030340002B05DA03F1FF3363F01F0303F1010370
S32D000117084FF0010000FA03F30B43C2F888314FF46142CEF200024FF46143CEF200039B6819467B68A3F1100086
S32D000117304FF01F03C8F200030340002B05DA03F1FF3363F01F0303F101034FF0010000FA03F30B43936000BF5C
S32D0001175807F11407BD4680BC704700BF80B584B000AF786013460A46FA70BB707B68FA781A70BB78FB737B6809
S32D000117801B781A4648F2A463C0F201039B5C042B00F2F68001A252F823F000BFB117010025180100991801004A
S32D000117A8811901000D1901004FF41043C4F204037A681278114648F2E862C0F2010252F82110FA7B4FEA024294
S32D000117D002F4702242F4887242F0030243F821204FF47043C4F20F034FF47042C4F20F02526911467A68127887
S32D000117F8104648F2E862C0F2010252F8202002F01F024FF0010000FA02F26FEA02020A405A614FF06700FFF76A
S32D00011820BBFEADE04FF42043C4F204037A681278114648F2E862C0F2010252F82110FA7B4FEA024202F47022FF
S32D0001184842F4887242F0030243F821204FF24003C4F20F034FF24002C4F20F02526911467A681278104648F2EA
S32D00011870E862C0F2010252F8202002F01F024FF0010000FA02F26FEA02020A405A614FF06800FFF781FE73E0AE
S32D000118984FF43043C4F204037A681278114648F2E862C0F2010252F82110FA7B4FEA024202F4702242F488728D
S32D000118C042F0030243F821204FF28003C4F20F034FF28002C4F20F02526911467A681278104648F2E862C0F226
S32D000118E8010252F8202002F01F024FF0010000FA02F26FEA02020A405A614FF06900FFF747FE39E04FF45043CF
S32D00011910C4F204037A681278114648F2E862C0F2010252F82110FA7B4FEA024202F4702242F4887242F0030293
S32D0001193843F821204FF47143C4F20F034FF47142C4F20F02526911467A681278104648F2E862C0F2010252F831
S32D00011960202002F01F024FF0010000FA02F26FEA02020A405A614FF06B00FFF70DFE00BF07F11007BD4680BDBC
S32D00011988B0B48BB000AF48F2B423C0F2010307F104041D460FCD0FC495E80F0084E80F004FF000037B6248E0BB
S32D000119B04FF42043C4F20403D3F8A0301A467B6A4FEA830307F12800C31853F8243C4FF0010101FA03F31340DB
S32D000119D8002B0CBF00230123DBB2002B29D041F2E033C1F6FF737A6A53F8223003F1010141F2E033C1F6FF739D
S32D00011A007A6A43F822104FF42043C4F204034FF42042C4F20402D2F8A02011467A6A4FEA820207F12800821866
S32D00011A2852F8242C4FF0010000FA02F20A40C3F8A0207B6A03F101037B627B6A072BCCBF00230123DBB2002BA7
S32D00011A50AED107F12C07BD46B0BC7047B0B489B000AF48F2D423C0F2010307F104041D460FCD0FC495E80300D2
S32D00011A7884E803004FF00003FB6149E04FF43043C4F20403D3F8A0301A46FB694FEA830307F12000C31853F83A
S32D00011AA01C3C4FF0010101FA03F31340002B0CBF00230123DBB2002B2AD0FB6903F1080241F2E033C1F6FF737A
S32D00011AC853F8223003F1010141F2E033C1F6FF7343F822104FF43043C4F204034FF43042C4F20402D2F8A02012
S32D00011AF01146FA694FEA820207F12000821852F81C2C4FF0010000FA02F20A40C3F8A020FB6903F10103FB6161
S32D00011B18FB69052BCCBF00230123DBB2002BADD107F12407BD46B0BC704700BFB0B48DB000AF48F2EC23C0F2AF
S32D00011B4001033C461D460FCD0FC40FCD0FC495E8070084E807004FF00003FB6249E04FF41043C4F20403D3F852
S32D00011B68A0301A46FB6A4FEA830307F13000C31853F8303C4FF0010101FA03F31340002B0CBF00230123DBB2F1
S32D00011B90002B2AD0FB6A03F10E0241F2E033C1F6FF7353F8223003F1010141F2E033C1F6FF7343F822104FF477
S32D00011BB81043C4F204034FF41042C4F20402D2F8A0201146FA6A4FEA820207F13000821852F8302C4FF00100F3
S32D00011BE000FA02F20A40C3F8A020FB6A03F10103FB62FB6A0A2BCCBF00230123DBB2002BADD107F13407BD4691
S32D00011C08B0BC7047B0B487B000AF48F21833C0F201033C461D460FCD0FC42B6823604FF000037B6149E04FF4D1
S32D00011C305043C4F20403D3F8A0301A467B694FEA830307F11800C31853F8183C4FF0010101FA03F31340002B5D
S32D00011C580CBF00230123DBB2002B2AD07B6903F1190241F2E033C1F6FF7353F8223003F1010141F2E033C1F6A7
S32D00011C80FF7343F822104FF45043C4F204034FF45042C4F20402D2F8A02011467A694FEA820207F11800821807
S32D00011CA852F8182C4FF0010000FA02F20A40C3F8A0207B6903F101037B617B69042BCCBF00230123DBB2002B37
S32D00011CD0ADD107F11C07BD46B0BC704780B483B000AF78607B681B781A4641F2E033C1F6FF7353F822301846F8
S32D00011CF807F10C07BD4680BC704700BF80B483B000AF78607B681B781A4641F2E033C1F6FF734FF0000143F84F
S32D00011D20221007F10C07BD4680BC704780B483B000AF78600B46FB707B68FA781A707B68184607F10C07BD4689
S32D00011D4880BC70470000000080B586B000AF78607B681B781A4648F26873C0F2010353F822303B617B681B7837
S32D00011D701A4648F2C463C0F201039B5CFB733B69DBB203F01F03DAB241F2C033C1F6FF731A723B69DBB203F097
S32D00011D981F03DAB241F2C033C1F6FF735A724FF46143CEF200034FF01002C3F88820FB7B002B1ED14FF43040B2
S32D00011DC0C4F2030041F2C031C1F6FF7100F004FB4FF43043C4F203031B6803F08003002B14BF00230123DBB2C4
S32D00011DE8002BF1D14FF43043C4F203031B697B611DE04FF43040C4F20B0041F2C031C1F6FF7100F0E5FA4FF43F
S32D00011E103043C4F20B031B6803F08003002B14BF00230123DBB2002BF1D14FF43043C4F20B031B697B614FF497
S32D00011E386143CEF200034FF46142CEF20002D2F8882142F01002C3F888214FF46143CEF200034FF46142CEF201
S32D00011E600002926842F010029A607B694FEA03434FEA13431846FAF70DFC02460B46104619460FA3D3E90023F0
S32D00011E88FAF77AFC02460B46104619460CA3D3E90023FAF79BFD02460B4610461946FAF74DFF0346BB60BB684D
S32D00011EB0184607F11807BD4680BD00BFAFF30080A4703D0AD7A30A4000000000E0FFEF4080B586B000AF78604E
S32D00011ED87B681B781A4648F26873C0F2010353F822303B617B681B781A4648F2C463C0F201039B5CFB733B690B
S32D00011F00DBB203F01F03DAB241F2D033C1F6FF731A723B69DBB203F01F03DAB241F2D033C1F6FF735A72FB7B26
S32D00011F28002B1ED14FF43040C4F2030041F2D031C1F6FF7100F04CFA4FF43043C4F203031B6803F08003002BDD
S32D00011F5014BF00230123DBB2002BF1D14FF43043C4F203031B697B611DE04FF43040C4F20B0041F2D031C1F6A0
S32D00011F78FF7100F02DFA4FF43043C4F20B031B6803F08003002B14BF00230123DBB2002BF1D14FF43043C4F215
S32D00011FA00B031B697B617B69184607F11807BD4680BD00BF98B500AF41F2C033C1F6FF734FF05C021A7041F2A7
S32D00011FC8C033C1F6FF734FF010025A7041F2C033C1F6FF7341F234225A8041F2C033C1F6FF7345F278629A8087
S32D00011FF041F2C033C1F6FF734FF010029A7141F2C033C1F6FF734FF00702DA7141F2C033C1F6FF734FF4C022C1
S32D00012018DA6041F2C033C1F6FF734FF01F021A7241F2C033C1F6FF734FF01F025A724FF43040C4F2030041F20A
S32D00012040C031C1F6FF7100F0C7F94FF43040C4F20B0041F2C031C1F6FF7100F0BDF94FF43040C4F20B0000F0E0
S32D0001206811F94FF43040C4F2030000F00BF94FF43040C4F20B0041F2C031C1F6FF7100F0A7F94FF43040C4F227
S32D00012090030041F2C031C1F6FF7100F09DF941F2D032C1F6FF7241F2C033C1F6FF7314460FCB84E80F0041F2BF
S32D000120B8D033C1F6FF734FF05C021A7041F2D033C1F6FF734FF00402DA7198BD80B500AF41F26443C1F6FF737B
S32D000120E01B6803F1010241F26443C1F6FF731A6000F04CF84FF4E043C4F203034FF00102C3F80C2180BD00BF5E
S32D0001210880B500AF4FF4E043C4F203034FF001021A6048F2A060C0F2010000F023F84FF4E043C4F203034FF08D
S32D000121300302C3F808214FF46143CEF200034FF46142CEF20002D2F8882142F01002C3F888214FF46143CEF283
S32D0001215800034FF46142CEF20002926842F010029A6080BD80B483B000AF78604FF4E043C4F203037A68C3F88B
S32D00012180002107F10C07BD4680BC704780B584B000AF41F26043C1F6FF731B68FB6029E0FB685B78FB71FB680B
S32D000121A89B68184600F02EF80346BB71BB79002B19D0FB685B68012B15DDFB689B681B69BB6008E0BB685B68BD
S32D000121D003F10102BB685A60BB681B69BB60BB68002B0CBF00230123DBB2002BEED1FB68DB68FB60FB68002BE4
S32D000121F80CBF00230123DBB2002BCDD107F11007BD4680BD80B584B000AF78607868FFF75BFE0346FB607B685B
S32D000122209B695B78FB72FB7A002B12D17B68DA68FB689A420DDA7B689B694FF001025A707B685B6803F10102ED
S32D000122487B685A604FF0010317E0FB7A012B12D17B689A68FB689A420DDD7B689B694FF000025A707B685B6866
S32D0001227003F101027B685A604FF0010301E04FF00003184607F11007BD4680BD80B485B000AF78607B681B6A40
S32D0001229823F040027B681A627B685B6A23F00B027B685A627B685B6A43F007027B685A627B685B6A43F080021C
S32D000122C07B685A627B681B6803F08003002B14BF00230123DBB2002BF4D17B685B6A03F04003002B0CBF0023BB
S32D000122E80123DBB2002B02D04FF0010369E04FF00003FB817B68DB6CFB817B689B6C9AB2FB89D318FB817B6825
S32D000123105B6C9AB2FB89D318FB817B681B6C9AB2FB89D318FB817B68DB6B9AB2FB89D318FB817B689B6B9AB26A
S32D00012338FB89D318FB81FB894FEA5303FB81FB896FEA43436FEA5343FB81FA897B68DA624FF00003FB817B68EB
S32D00012360DB6EFB817B689B6E9AB2FB89D318FB817B685B6E9AB2FB89D318FB817B681B6E9AB2FB89D318FB81E0
S32D000123887B68DB6D9AB2FB89D318FB817B689B6D9AB2FB89D318FB81FB894FEA5303FB81FB896FEA43436FEA57
S32D000123B05343FB81FA897B681A637B685B6A23F080027B685A624FF00003184607F11407BD4680BC704700BFC5
S32D000123D880B483B000AF786039603B681B781A467B689A603B685B781A467B68DA603B685B881A467B689A6125
S32D000124003B689B881A467B68DA613B689B791A467B681A623B68DB791A467B685A623B68DA687B681A653B6813
S32D000124281B7A1A467B681A603B685B7A1A467B685A6007F10C07BD4680BC704780B483B000AF78607B6818468E
S32D0001245007F10C07BD4680BC704700BF80B582B000AF786039607B68012B0AD13A684FF6FF739A4205D141F2EE
S32D000124786840C1F6FF70FFF7E1FF07F10807BD4680BD00BF80B500AF4FF001004FF6FF71FFF7E0FF80BD00BFE1
S32D000124A080B483B000AF78600B46FB707B68FA781A707B684FF4FA725A807B6840F6C4129A807B68044A9A60E4
S32D000124C87B68184607F10C07BD4680BC704700BF000080BF80B483B000AF786039603A6840F2F3139A4204DD87
S32D000124F03A6840F6C4139A4204DD7B684FF4FA725A8003E03B689AB27B685A8007F10C07BD4680BC704700BF96
S32D0001251880B483B000AF786039603A6840F2F3139A4204DD3A6840F6C4139A4204DD7B6840F6C4129A8003E01E
S32D000125403B689AB27B689A8007F10C07BD4680BC704700BF00000000F0B585B000AF786039604FF001031C4621
S32D0001256838684B49FAF7E6FE0346002B02D14FF000031C46E3B2002B01D0454B3B604FF001031C4638684349C3
S32D00012590FAF7F2FE0346002B02D14FF000031C46E3B2002B01D03D4B3B607B689B6818463968FAF7B9FE0346C6
S32D000125B8002B64D17B683A689A607B685E887B689B881A467B685B88D31A1846FAF76EF802460B461046194630
S32D000125E02BA3D3E90023FAF7F5F902460B4614461D463868FAF770F802460B4620462946FAF7BEF802460B4643
S32D0001260810461946FAF77AFB03469BB2F318FB81FB897B73FB894FEA23233B734FF43040C4F20E004FF07F0112
S32D00012630FCF7F6FF4FF43040C4F20E004FF00501FCF7EEFF7B681B784FF43040C4F20E001946FCF7E5FF3B7B1E
S32D000126584FF43040C4F20E001946FCF7DDFF7B7B4FF43040C4F20E001946FCF7D5FF4FF43040C4F20E004FF065
S32D00012680FF01FCF7CDFF07F11407BD46F0BD00BF0000000000806640000000000000344380B582B000AF78605F
S32D000126A84FF43043C4F204034FF48072DA604FF42043C4F204034FF480729A644FF42043C4F204034FF48072F3
S32D000126D01A644FF42043C4F204034FF480725A644FF42043C4F204034FF48072DA604FF28003C4F20F034FF268
S32D000126F88002C4F20F02526942F008025A614FF24003C4F20F034FF24002C4F20F02526942F480225A614FF293
S32D000127204003C4F20F034FF24002C4F20F02526942F480325A614FF24003C4F20F034FF24002C4F20F02526986
S32D0001274842F400325A614FF24003C4F20F034FF24002C4F20F02126842F008021A604FF24003C4F20F034FF2EC
S32D000127704002C4F20F02526942F008025A614FF28003C4F20F034FF28002C4F20F02126842F008021A604FF4F6
S32D000127982043C4F204034FF480725A624FF42043C4F204034FF480721A624FF43043C4F204034FF480721A61CA
S32D000127C04FF43043C4F204034FF480725A614FF43043C4F204034FF480729A614FF43043C4F204034FF480723C
S32D000127E8DA614FF43043C4F204034FF480721A634FF43043C4F204034FF480725A634FF43043C4F204034FF447
S32D0001281080729A634FF43043C4F204034FF48072DA634FF43043C4F204034FF480721A644FF43043C4F204032C
S32D000128384FF480725A644FF43043C4F204034FF480729A644FF43043C4F204034FF48072DA644FF44043C4F276
S32D0001286004034FF480721A604FF44043C4F204034FF480729A604FF44043C4F204034FF48072DA604FF4404329
S32D00012888C4F204034FF480721A614FF24003C4F20F034FF24002C4F20F02526942F440725A614FF28002C4F247
S32D000128B00F024FF28003C4F20F035B6919464FF2F003C0F20F030B4353614FF2C003C4F20F034FF2C002C4F2BA
S32D000128D80F02526942F01D025A6178684FF0E20100F074FF78684FF01D0101F0B3F878684FF0020101F0AEF802
S32D0001290078684FF0040101F0A9F878684FF0E00100F060FF78684FF0010101F09FF84FF06400FEF781FD786804
S32D000129284FF0E00100F052FF78684FF0030101F091F878684FF0010100F048FF4FF00100FEF76EFD78684FF06B
S32D00012950E60100F03FFF78684FF0010101F07EF878684FF0A00101F079F878684FF0FF0101F074F878684FF0FE
S32D00012978B00100F02BFF78684FF01C0101F06AF878684FF00F0101F065F878684FF0010101F060F878684FF0D0
S32D000129A03F0101F05BF878684FF0000101F056F878684FF0EF0101F051F878684FF0000101F04CF878684FF068
S32D000129C8B40100F003FF78684FF0010101F042F878684FF0990101F03DF878684FF0000101F038F878684FF0AE
S32D000129F0450101F033F878684FF0020101F02EF878684FF0000101F029F878684FF0000101F024F878684FF09F
S32D00012A18000101F01FF878684FF0B60100F0D6FE78684FF0010101F015F878684FF0090101F010F878684FF08C
S32D00012A40000101F00BF878684FF00E0101F006F878684FF0020101F001F878684FF0000100F0FCFF78684FF01F
S32D00012A68000100F0F7FF78684FF0BA0100F0AEFE78684FF00F0100F0EDFF4FF06400FEF7CFFC78684FF03A011A
S32D00012A9000F0A0FE78684FF0600100F0DFFF78684FF02A0100F096FE78684FF0000100F0D5FF78684FF0000169
S32D00012AB800F0D0FF78684FF0010100F0CBFF78684FF03F0100F0C6FF78684FF02B0100F07DFE78684FF000016B
S32D00012AE000F0BCFF78684FF0000100F0B7FF78684FF0000100F0B2FF78684FF0EF0100F0ADFF78684FF0360194
S32D00012B0800F064FE78684FF0000100F0A3FF78684FF0F00100F05AFE78684FF0040100F099FF78684FF0B801BE
S32D00012B3000F050FE78684FF00F0100F08FFF78684FF0010100F08AFF4FF24003C4F20F034FF24002C4F20F025B
