S01600002E2E2F526F626F7450726F6A6563742E73313976
S32D0000C00000000020EDF8000049FC000049FC000049FC000049FC000049FC0000000000000000000000000000B4
S32D0000C0280000000049FC000049FC00000000000049FC000049FC000049FC000049FC000049FC000049FC0000C2
S32D0000C05049FC000049FC000049FC000049FC000049FC000049FC000049FC000049FC000049FC000049FC000010
S32D0000C07849FC000049FC000049FC000049FC000049FC000049FC000049FC000049FC000049FC000049FC0000E8
S32D0000C0A049FC000049FC000049FC000049FC000049FC000049FC000049FC000049FC000049FC000049FC0000C0
S32D0000C0C849FC000049FC000049FC000049FC000049FC000049FC000049FC000049FC000049FC000049FC000098
S32D0000C0F049FC00006968010049FC000049FC000049FC000049FC000049FC000049FC000049FC000049FC0000E3
S32D0000C11849FC000049FC000049FC000049FC000049FC000049FC000049FC000049FC000049FC000049FC000047
S32D0000C14049FC000049FC000049FC000049FC0000ED30010049FC000049FC000049FC000049FC000049FC000046
S32D0000C16849FC000049FC000049FC000049FC000049FC000049FC000049FC000049FC000049FC000049FC0000F7
S32D0000C19049FC000049FC000049FC00004D2B0100A1290100752A010099FC0000252C010049FC000049FC00005D
S32D0000C1B849FC000049FC000049FC000049FC000049FC000049FC000049FC000049FC000049FC000049FC0000A7
S32D0000C41081F0004102E000BF83F0004330B54FEA41044FEA430594EA050F08BF90EA020F1FBF54EA000C55EAC6
S32D0000C438020C7FEA645C7FEA655C00F0E2804FEA5454D4EB5555B8BF6D420CDD2C4480EA020281EA030382EA0F
S32D0000C460000083EA010180EA020281EA0303362D88BF30BD11F0004F4FEA01314FF4801C4CEA113102D0404263
S32D0000C48861EB410113F0004F4FEA03334CEA133302D0524263EB430394EA050F00F0A780A4F10104D5F1200E8A
S32D0000C4B00DDB02FA0EFC22FA05F2801841F1000103FA0EF2801843FA05F359410EE0A5F120050EF1200E012A2D
S32D0000C4D803FA0EFC28BF4CF0020C43FA05F3C01851EBE37101F0004507D54FF0000EDCF1000C7EEB00006EEB67
S32D0000C5000101B1F5801F1BD3B1F5001F0CD349085FEA30004FEA3C0C04F101044FEA445212F5800F80F09A8000
S32D0000C528BCF1004F08BF5FEA500C50F1000041EB045141EA050130BD5FEA4C0C404141EB010111F4801FA4F114
S32D0000C5500104E9D191F0000F04BF01460020B1FA81F308BF2033A3F10B03B3F120020CDA0C3208DD02F1140C87
S32D0000C578C2F10C0201FA0CF021FA02F10CE002F11402D8BFC2F1200C01FA02F120FA0CFCDCBF41EA0C019040B1
S32D0000C5A0E41AA2BF01EB0451294330BD6FEA04041F3C1CDA0C340EDC04F11404C4F1200220FA04F001FA02F3B6
S32D0000C5C840EA030021FA04F345EA030130BDC4F10C04C4F1200220FA02F001FA04F340EA0300294630BD21FAA8
S32D0000C5F004F0294630BD94F0000F83F4801306BF81F480110134013D4EE77FEA645C18BF7FEA655C29D094EA1C
S32D0000C618050F08BF90EA020F05D054EA000C04BF1946104630BD91EA030F1EBF0021002030BD5FEA545C05D1A3
S32D0000C6404000494128BF41F0004130BD14F580043CBF01F5801130BD01F0004545F0FE4141F470014FF0000031
S32D0000C66830BD7FEA645C1ABF194610467FEA655C1CBF0B46024650EA013406BF52EA033591EA030F41F40021D7
S32D0000C69030BD00BF90F0000F04BF0021704730B54FF4806404F132044FF000054FF0000150E700BF90F0000F66
S32D0000C6B804BF0021704730B54FF4806404F1320410F0004548BF40424FF000013EE700BF42004FEAE2014FEAF9
S32D0000C6E031014FEA02701FBF12F07F4393F07F4F81F06051704792F0000F14BF93F07F4F704730B54FF460741B
S32D0000C70801F0004521F0004120E700BF50EA010208BF704730B54FF000050AE050EA010208BF704730B511F046
S32D0000C730004502D5404261EB41014FF4806404F132045FEA915C3FF4DCAE4FF003025FEADC0C18BF03325FEAA0
S32D0000C758DC0C18BF033202EBDC02C2F1200300FA03FC20FA02F001FA03FE40EA0E0021FA02F11444C1E600BF19
S32D0000C78070B54FF0FF0C4CF4E06C1CEA11541DBF1CEA135594EA0C0F95EA0C0F00F0DEF82C4481EA030621EAF3
S32D0000C7A84C5123EA4C5350EA013518BF52EA033541F4801143F4801338D0A0FB02CE4FF00005E1FB02E506F05F
S32D0000C7D00042E0FB03E54FF00006E1FB03569CF0000F18BF4EF0010EA4F1FF04B6F5007F64F5407404D25FEA0F
S32D0000C7F84E0E6D4146EB060642EAC62141EA55514FEAC52040EA5E504FEACE2EB4F1FD0C88BFBCF5E06F1ED8D2
S32D0000C820BEF1004F08BF5FEA500E50F1000041EB045170BD06F0004646EA010140EA020081EA0301B4EB5C0487
S32D0000C848C2BFD4EB0C0541EA045170BD41F480114FF0000E013C00F3AB8014F1360FDEBF002001F0004170BDF0
S32D0000C870C4F10004203C35DA0C341BDC04F11404C4F1200500FA05F320FA04F001FA05F240EA020001F0004207
S32D0000C89821F0004110EBD37021FA04F642EB06015EEA430E08BF20EAD37070BDC4F10C04C4F1200500FA04F32F
S32D0000C8C020FA05F001FA04F240EA020001F0004110EBD37041F100015EEA430E08BF20EAD37070BDC4F12005C7
S32D0000C8E800FA05F24EEA020E20FA04F301FA05F243EA020321FA04F001F0004121FA04F220EA020000EBD37028
S32D0000C9105EEA430E08BF20EAD37070BD94F0000F0FD101F00046400041EB010111F4801F08BF013CF7D041EA6D
S32D0000C938060195F0000F18BF704703F00046520043EB030313F4801F08BF013DF7D043EA0603704794EA0C0FF1
S32D0000C9600CEA135518BF95EA0C0F0CD050EA410618BF52EA4306D1D181EA030101F000414FF0000070BD50EA38
S32D0000C988410606BF1046194652EA430619D094EA0C0F02D150EA013613D195EA0C0F05D152EA03361CBF10467B
S32D0000C9B019460AD181EA030101F0004141F0FE4141F470014FF0000070BD41F0FE4141F4780170BD70B54FF04D
S32D0000C9D8FF0C4CF4E06C1CEA11541DBF1CEA135594EA0C0F95EA0C0F00F0A7F8A4EB050481EA030E52EA03359B
S32D0000CA004FEA013100F088804FEA03334FF0805545EA131343EA12634FEA022245EA111545EA10654FEA002676
S32D0000CA280EF000419D4208BF964244F1FD0404F5407402D25B084FEA3202B61A65EB03055B084FEA32024FF461
S32D0000CA5080104FF4002CB6EB020E75EB030E22BFB61A754640EA0C005B084FEA3202B6EB020E75EB030E22BF22
S32D0000CA78B61A754640EA5C005B084FEA3202B6EB020E75EB030E22BFB61A754640EA9C005B084FEA3202B6EBEA
S32D0000CAA0020E75EB030E22BFB61A754640EADC0055EA060E18D04FEA051545EA16754FEA06164FEAC30343EAAC
S32D0000CAC852734FEAC2025FEA1C1CC0D111F4801F0BD141EA00014FF000004FF0004CB6E711F4801F04BF0143AE
S32D0000CAF00020B4F1FD0C88BFBCF5E06F3FF6AFAEB5EB030C04BFB6EB020C5FEA500C50F1000041EB045170BDBC
S32D0000CB180EF0004E4EEA113114EB5C04C2BFD4EB0C0541EA045170BD41F480114FF0000E013C90E645EA060EC3
S32D0000CB408DE60CEA135594EA0C0F08BF95EA0C0F3FF43BAF94EA0C0F0AD150EA01347FF434AF95EA0C0F7FF499
S32D0000CB6825AF104619462CE795EA0C0F06D152EA03353FF4FDAE1046194622E750EA410618BF52EA43067FF432
S32D0000CB90C5AE50EA41047FF40DAF52EA43057FF4EBAE12E74FF0FF3C06E000BF4FF0010C02E000BF4FF0010C75
S32D0000CBB84DF804CD4FEA410C7FEA6C5C4FEA430C18BF7FEA6C5C1BD001B050EA410C0CBF52EA430C91EA030FEC
S32D0000CBE002BF90EA020F0020704710F1000F91EA030F58BF994208BF90422CBFD8176FEAE37040F0010070476E
S32D0000CC084FEA410C7FEA6C5C02D150EA013C07D14FEA430C7FEA6C5CD6D152EA033CD3D05DF8040B704700BFCD
S32D0000CC308446104662468C461946634600E000BF01B5FFF7B7FF002848BF10F1000F01BD4DF808EDFFF7F4FF13
S32D0000CC580CBF012000205DF808FB00BF4DF808EDFFF7EAFF34BF012000205DF808FB00BF4DF808EDFFF7E0FF18
S32D0000CC8094BF012000205DF808FB00BF4DF808EDFFF7CEFF94BF012000205DF808FB00BF4DF808EDFFF7C4FF40
S32D0000CCA834BF012000205DF808FB00BF4FEA410212F5001215D211D56FF47873B3EB625212D94FEAC12343F0D6
S32D0000CCD0004343EA505311F0004F23FA02F018BF404270474FF00000704750EA013005D111F0004008BF6FF016
S32D0000CCF8004070474FF00000704700BF4A0011D212F5001211D20DD56FF47873B3EB62520ED44FEAC12343F085
S32D0000CD20004343EA505323FA02F070474FF00000704750EA013002D14FF0FF3070474FF0000070474FEA410241
S32D0000CD48B2F1E04324BFB3F5001CDCF1FE5C0DD901F0004C4FEAC0024CEA5070B2F1004F40EB830008BF20F09E
S32D0000CD700100704711F0804F21D113F13872BCBF01F00040704741F480114FEA5252C2F11802C2F1200C10FAB1
S32D0000CD980CF320FA02F018BF40F001004FEAC1234FEAD32303FA0CFC40EA0C0023FA02F34FEA4303CCE77FEA26
S32D0000CDC0625307D150EA01331EBF4FF0FE4040F44000704701F0004040F0FE4040F40000704700BF80F00040CC
S32D0000CDE802E000BF81F0004142001FBF5FEA410392EA030F7FEA226C7FEA236C6AD04FEA1262D2EB1363C1BF06
S32D0000CE10D218414048404140B8BF5B42192B88BF704710F0004F40F4000020F07F4018BF404211F0004F41F4FA
S32D0000CE38000121F07F4118BF494292EA030F3FD0A2F1010241FA03FC10EB0C00C3F1200301FA03F100F000432B
S32D0000CE6002D5494260EB4000B0F5000F13D3B0F1807F06D340084FEA310102F10102FE2A51D2B1F1004F40EB94
S32D0000CE88C25008BF20F0010040EA03007047490040EB000010F4000FA2F10102EDD1B0FA80FCACF1080CB2EB5F
S32D0000CEB00C0200FA0CF0AABF00EBC25052421843BCBFD0401843704792F0000F81F4000106BF80F400000132EB
S32D0000CED8013BB5E74FEA41037FEA226C18BF7FEA236C21D092EA030F04D092F0000F08BF0846704790EA010FD7
S32D0000CF001CBF0020704712F07F4F04D1400028BF40F00040704712F100723CBF00F50000704700F0004343F0DC
S32D0000CF28FE4040F4000070477FEA226216BF08467FEA23630146420206BF5FEA412390EA010F40F480007047C1
S32D0000CF504FF0000304E000BF10F0004348BF40425FEA000C08BF704743F0964301464FF000001CE050EA010264
S32D0000CF7808BF70474FF000030AE000BF50EA010208BF704711F0004302D5404261EB41015FEA010C02BF84465B
S32D0000CFA00146002043F0B64308BFA3F18053A3F50003BCFA8CF2083AA3EBC25310DB01FA02FC634400FA02FC6B
S32D0000CFC8C2F12002BCF1004F20FA02F243EB020008BF20F00100704702F1200201FA02FCC2F1200250EA4C0034
S32D0000CFF021FA02F243EB020008BF20EADC7070474FF0FF0C1CEAD0521EBF1CEAD15392EA0C0F93EA0C0F6FD019
S32D0000D0181A4480EA010C400218BF5FEA41211ED04FF0006343EA501043EA5111A0FB01310CF00040B1F5000FE7
S32D0000D0403EBF490041EAD3715B0040EA010062F17F02FD2A1DD8B3F1004F40EBC25008BF20F00100704790F058
S32D0000D068000F0CF0004C08BF49024CEA502040EA51207F3AC2BFD2F1FF0340EAC250704740F400004FF0000388
S32D0000D090013A5DDC12F1190FDCBF00F000407047C2F10002410021FA02F1C2F1200200FA02FC5FEA310040F1D5
S32D0000D0B8000053EA4C0308BF20EADC70704792F0000F00F0004C02BF400010F4000F013AF9D040EA0C0093F04C
S32D0000D0E0000F01F0004C02BF490011F4000F013BF9D041EA0C018FE70CEAD15392EA0C0F18BF93EA0C0F0AD00B
S32D0000D10830F0004C18BF31F0004CD8D180EA010000F00040704790F0000F17BF90F0004F084691F0000F91F0BB
S32D0000D130004F14D092EA0C0F01D142020FD193EA0C0F03D14B0218BF084608D180EA010000F0004040F0FE4051
S32D0000D15840F40000704740F0FE4040F4400070474FF0FF0C1CEAD0521EBF1CEAD15392EA0C0F93EA0C0F69D044
S32D0000D180A2EB030280EA010C49024FEA402037D04FF0805343EA111143EA10130CF000408B4238BF5B0042F14E
S32D0000D1A87D024FF4000C8B4224BF5B1A40EA0C00B3EB510F24BFA3EB510340EA5C00B3EB910F24BFA3EB9103A4
S32D0000D1D040EA9C00B3EBD10F24BFA3EBD10340EADC001B0118BF5FEA1C1CE0D1FD2A3FF650AF8B4240EBC25018
S32D0000D1F808BF20F0010070470CF0004C4CEA50207F32C2BFD2F1FF0340EAC250704740F400004FF00003013AF1
S32D0000D22037E792F0000F00F0004C02BF400010F4000F013AF9D040EA0C0093F0000F01F0004C02BF490011F4C9
S32D0000D248000F013BF9D041EA0C0195E70CEAD15392EA0C0F08D142027FF47DAF93EA0C0F7FF470AF084676E7AE
S32D0000D27093EA0C0F04D14B023FF44CAF08466EE730F0004C18BF31F0004CCAD130F000427FF45CAF31F0004376
S32D0000D2987FF43CAF5FE700BF4FF0FF3C06E000BF4FF0010C02E000BF4FF0010C4DF804CD4FEA40024FEA41039F
S32D0000D2C07FEA226C18BF7FEA236C11D001B052EA530C18BF90EA010F58BFB2EB030088BFC81738BF6FEAE1706E
S32D0000D2E818BF40F0010070477FEA226C02D15FEA402C05D17FEA236CE4D15FEA412CE1D05DF8040B704700BF16
S32D0000D310844608466146FFE70FB5FFF7C9FF002848BF10F1000F0FBD4DF808EDFFF7F4FF0CBF012000205DF839
S32D0000D33808FB00BF4DF808EDFFF7EAFF34BF012000205DF808FB00BF4DF808EDFFF7E0FF94BF012000205DF8A9
S32D0000D36008FB00BF4DF808EDFFF7D2FF94BF012000205DF808FB00BF4DF808EDFFF7C8FF34BF012000205DF8B1
S32D0000D38808FB00BF4FEA4002B2F1FE4F0FD34FF09E03B3EB12620DD94FEA002343F0004310F0004F23FA02F060
S32D0000D3B018BF404270474FF00000704712F1610F01D1420205D110F0004008BF6FF0004070474FF00000704797
S32D0000D3D880B483B000AF78607B6823F00043184607F10C07BD4680BC704700BF80B500AF41F27010C1F6FF7025
S32D0000D40005F08CFC41F26C10C1F6FF7005F086FC80BD00BF84B080B582B002AF07F1080C8CE80F0041F2CC401F
S32D0000D428C1F6FF7006F02CFEBB6841F2CC40C1F6FF7019464FF001024FF0780307F000F9FB6841F2CC40C1F664
S32D0000D450FF7019464FF002024FF0780307F0F4F83B6941F2CC40C1F6FF7019464FF003024FF0780307F0E8F8C3
S32D0000D4787B6941F2CC40C1F6FF7019464FF004024FF0780307F0DCF8BB6941F2CC40C1F6FF7019464FF00502E6
S32D0000D4A04FF0780307F0D0F841F2CC40C1F6FF7049F26421C0F201014FF006024FF0000307F0A2F8D7E9082307
S32D0000D4C84FF0060100914FF07801019141F2CC40C1F6FF7007F0F4F841F2CC40C1F6FF7049F26C21C0F20101EC
S32D0000D4F04FF007024FF0000307F086F8D7E90A234FF0070100914FF07801019141F2CC40C1F6FF7007F0D8F8D4
S32D0000D51841F2CC40C1F6FF7049F27421C0F201014FF008024FF0000307F06AF8D7E90C234FF0080100914FF011
S32D0000D5407801019141F2CC40C1F6FF7007F0BCF841F2CC40C1F6FF7049F28421C0F201014FF009024FF000031D
S32D0000D56807F04EF8D7E90E234FF0090100914FF07801019141F2CC40C1F6FF7007F0A0F841F2CC40C1F6FF70EA
S32D0000D59049F29021C0F201014FF00A024FF0000307F032F8D7E910234FF00A0100914FF07801019141F2CC40C8
S32D0000D5B8C1F6FF7007F084F841F2CC40C1F6FF7049F29821C0F201014FF00C024FF0000307F016F83B6D41F230
S32D0000D5E0CC40C1F6FF7019464FF00C024FF0780307F04AF8BD46BDE8804004B0704700BF98B500AF41F2641017
S32D0000D608C1F6FF70174902F01FFC41F25C10C1F6FF70154902F018FC00BF41F23450C1F6FF700AF0EBFB034673
S32D0000D6304FF00102144618460E49FFF793FE0346002B02D14FF000031C46E3B2002BE8D141F26410C1F6FF70C3
S32D0000D65802F0AAFB41F25C10C1F6FF7002F0A4FB98BD00BF0000AA420000A042000080BFF0B5A7B010AFC7E92B
S32D0000D68002017A60D7E902014FF000024FF0804303F51013FFF79EF902460B46104619466FA3D3E90023FFF7BC
S32D0000D6A86BF802460B4610461946FFF7FFFA03463B644FF000037B657868FEF7F7FF02460B46C7E912237B687E
S32D0000D6D0002B0ADD7B6803F102031846FEF7EAFF02460B46C7E9122309E07B6803F1FF331846FEF7DFFF024619
S32D0000D6F80B46C7E912234FF00003FB634FF000037B644FF00003BB634FF000037B634FF000024FF0804303F552
S32D0000D720C803C7E90A2350A3D3E90023C7E9082341F27010C1F6FF7005F0F0FA41F26C10C1F6FF7005F0EAFA20
S32D0000D7481AE17868FFF704FC034641F26410C1F6FF70194602F078FBD7E91201FFF7EEFA034641F25C10C1F6B8
S32D0000D770FF70194602F06CFB41F27010C1F6FF7005F0B8FA044641F26C10C1F6FF7005F0B1FA0346E31AFB6381
S32D0000D798F86BFEF78BFF02460B4610461946D7E90A23FFF713F902460B46C7E90623FA6B7B6CD31A1846FEF746
S32D0000D7C079FF02460B4610461946D7E90823FEF7D7FF02460B46C7E904237B68002B10DDD7E90601D7E90423A6
S32D0000D7E8FEF718FE02460B46D7E91201FEF712FE02460B46C7E912230FE0D7E90601D7E90423FEF707FE02463A
S32D0000D8100B46D7E91201FEF7FFFD02460B46C7E912234FF001031C46D7E912014FF000024FF0404303F5B2032F
S32D0000D838FFF714FA0346002B02D14FF000031C46E3B2002B10D04FF000024FF0404303F5B203C7E9122325E099
S32D0000D86000000000004044409A9999999999C93F4FF001031C46D7E912014FF000024FF0804303F5B203FFF7D9
S32D0000D8880BFA0346002B02D14FF000031C46E3B2002B07D04FF000024FF0804303F5B203C7E9122341F2701063
S32D0000D8B0C1F6FF7005F01EFA03467B6541F27010C1F6FF7005F016FA024641F29813C1F6FF731A6041F26C1098
S32D0000D8D8C1F6FF7005F00AFA024641F29813C1F6FF735A6041F29813C1F6FF733A6C1A6141F29813C1F6FF73CB
S32D0000D9007A689A60D7E91201FFF7D4F9024641F29813C1F6FF73DA60F86BFEF7CBFE41F29813C1F6FF73C3E92A
S32D0000D9280E0141F29816C1F6FF766C4606F110050FCD0FC40FCD0FC40FCD0FC495E80F0084E80F0096E80F0056
S32D0000D950FFF760FD4FF0320004F072FDFB6B7B6441F27010C1F6FF7005F0C4F90346BB6341F26C10C1F6FF7076
S32D0000D97805F0BCF903467B637B6D83EAE372A2EBE3723B6C9A42ACBF00230123DBB2002B7FF4D7AE41F2641098
S32D0000D9A0C1F6FF7002F004FA41F25C10C1F6FF7002F0FEF907F15C07BD46F0BDAFF3008090B583B000AF41F20E
S32D0000D9C85810C1F6FF7005F0CBF903467B6007E041F25810C1F6FF7005F0C2F903467B6040F20043C1F6FF73AC
S32D0000D9F01B684FF00102144678681946FFF7BCFC0346002B02D14FF000031C46E3B2002BE2D17B68184607F166
S32D0000DA180C07BD4690BD00BF90B585B000AF7860704BFB60FFF7E2FC4FF001031C4678686D49FFF79DFC0346C0
S32D0000DA40002B02D14FF000031C46E3B2002B0ED041F25C10C1F6FF70664902F0F9F941F26410C1F6FF706449A6
S32D0000DA6802F0F2F911E041F25C10C1F6FF70604902F0EAF941F26410C1F6FF705B4902F0E3F97B6883F00043A7
S32D0000DA907B6078685949FFF767FB03461846F968FFF7AEFA03461846FEF716FE40F20843C1F6FF73D3E90023D8
S32D0000DAB8FEF762FE02460B4610461946FFF73EF90346BB6041E041F26C10C1F6FF7005F00DF903461846FFF77E
S32D0000DAE03BFA03464FF0010214461846B968FFF739FC0346002B02D14FF000031C46E3B2002B05D041F25C1035
S32D0000DB08C1F6FF7002F050F941F27010C1F6FF7005F0ECF803461846FFF71AFA03464FF0010214461846B968C7
S32D0000DB30FFF718FC0346002B02D14FF000031C46E3B2002B05D041F26410C1F6FF7002F02FF941F26C10C1F6F0
S32D0000DB58FF7005F0CBF803461846FFF7F9F903464FF0010214461846B968FFF7E3FB0346002B02D14FF0000328
S32D0000DB801C46E3B2002B1AD141F27010C1F6FF7005F0B0F803461846FFF7DEF903464FF0010214461846B9681C
S32D0000DBA8FFF7C8FB0346002B02D14FF000031C46E3B2002B02D04FF0010301E04FF00003002B80D141F25C1098
S32D0000DBD0C1F6FF7002F0ECF841F26410C1F6FF7002F0E6F807F11407BD4690BD19A4A941000000000000A0C123
S32D0000DBF80000A0410000B443F0B595B010AF7860744BBB60FFF7F2FB4FF001031C4678687149FFF7ADFB0346C3
S32D0000DC20002B02D14FF000031C46E3B2002B1BD040F21043C1F6FF731B681846FFF78CF9034641F26410C1F6D8
S32D0000DC48FF70194602F000F978686449FFF788FA03461846B968FFF7CFF90346FB6084E040F21043C1F6FF73B4
S32D0000DC701B68C3F100031846FFF76EF9034641F26410C1F6FF70194602F0E2F87B6883F0004318465349FFF7C7
S32D0000DC9867FA03461846B968FFF7AEF90346FB6063E040F21043C1F6FF731A6841F29813C1F6FF739A6041F24D
S32D0000DCC06C10C1F6FF7005F015F8024641F29813C1F6FF731A60F868FEF7FEFC40F20843C1F6FF73D3E90023F5
S32D0000DCE8FEF74AFD02460B4614461D4641F27010C1F6FF7004F0FAFF03461846FEF7D6FC02460B4620462946DA
S32D0000DD10FEF782FB02460B461046194641F29813C1F6FF73C3E90E0141F23450C1F6FF700AF078F80346184675
S32D0000DD38FEF7CEFC41F29813C1F6FF73C3E90A0141F29816C1F6FF766C4606F110050FCD0FC40FCD0FC40FCD3B
S32D0000DD600FC495E80F0084E80F0096E80F00FFF751FB41F27010C1F6FF7004F0BBFF03461846FEF797FC0446EC
S32D0000DD880D46F868FEF7A4FC40F20843C1F6FF73D3E90023FEF7F0FC02460B464FF001010E4620462946FEF7C7
S32D0000DDB059FF0346002B02D14FF000031E46F3B2002B7FF472AF41F26410C1F6FF7001F0EFFF07F11407BD46DA
S32D0000DDD8F0BD00BF57A52942000000000000B443F0B595B010AF7860744BBB60FFF7FEFA4FF001031C46786885
S32D0000DE007149FFF7B9FA0346002B02D14FF000031C46E3B2002B1BD040F21043C1F6FF731B681846FFF798F8E6
S32D0000DE28034641F25C10C1F6FF70194602F00CF878686449FFF794F903461846B968FFF7DBF80346FB6084E0C0
S32D0000DE5040F21043C1F6FF731B68C3F100031846FFF77AF8034641F25C10C1F6FF70194601F0EEFF7B6883F055
S32D0000DE78004318465349FFF773F903461846B968FFF7BAF80346FB6063E040F21043C1F6FF731A6841F2981378
S32D0000DEA0C1F6FF73DA6041F26C10C1F6FF7004F021FF024641F29813C1F6FF735A60F868FEF70AFC40F2084327
S32D0000DEC8C1F6FF73D3E90023FEF756FC02460B4614461D4641F26C10C1F6FF7004F006FF03461846FEF7E2FB40
S32D0000DEF002460B4620462946FEF78EFA02460B461046194641F29813C1F6FF73C3E90E0141F23450C1F6FF702C
S32D0000DF1809F084FF03461846FEF7DAFB41F29813C1F6FF73C3E90A0141F29816C1F6FF766C4606F110050FCD89
S32D0000DF400FC40FCD0FC40FCD0FC495E80F0084E80F0096E80F00FFF75DFA41F26C10C1F6FF7004F0C7FE0346CA
S32D0000DF681846FEF7A3FB04460D46F868FEF7B0FB40F20843C1F6FF73D3E90023FEF7FCFB02460B464FF00101B2
S32D0000DF900E4620462946FEF765FE0346002B02D14FF000031E46F3B2002B7FF472AF41F25C10C1F6FF7001F0DB
S32D0000DFB8FBFE07F11407BD46F0BD00BF57A52942000000000000B443F0B595B010AF786041F23450C1F6FF7004
S32D0000DFE009F020FF03464FF0010214461846AD49FFF7C2F90346002B02D14FF000031C46E3B2002B0BD041F258
S32D0000E0083450C1F6FF7009F009FF024641F29013C1F6FF731A607868FFF7EEFD41F29013C1F6FF731B681846DD
S32D0000E0307968FEF7DBFE0346FB604FF001031C46F8689849FFF77AF90346002B02D14FF000031C46E3B2002B75
S32D0000E05806D0F8689249FEF7C7FE0346FB60B6E04FF001031C46F8688D49FFF781F90346002B02D14FF00003C1
S32D0000E0801C46E3B2002B00F0A680F8688649FEF7ADFE0346FB609EE041F23450C1F6FF7009F0C0FE034618460E
S32D0000E0A88049FEF7A1FE03464FF0010214461846F968FFF73FF90346002B02D14FF000031C46E3B2002B31D06F
S32D0000E0D07748FFF795FD41F23450C1F6FF7009F0A1FE03461846FEF7F7FA41F29813C1F6FF73C3E90A01F868BB
S32D0000E0F8FEF7EEFA41F29813C1F6FF73C3E90C0141F29816C1F6FF766C4606F110050FCD0FC40FCD0FC40FCD58
S32D0000E1200FC495E80F0084E80F0096E80F00FFF771F94CE041F23450C1F6FF7009F072FE034618465949FEF75A
S32D0000E14851FE03464FF0010214461846F968FFF70FF90346002B02D14FF000031C46E3B2002B30D05148FFF77E
S32D0000E17047FD41F23450C1F6FF7009F053FE03461846FEF7A9FA41F29813C1F6FF73C3E90A01F868FEF7A0FA2A
S32D0000E19841F29813C1F6FF73C3E90C0141F29816C1F6FF766C4606F110050FCD0FC40FCD0FC40FCD0FC495E844
S32D0000E1C00F0084E80F0096E80F00FFF723F94FF4967004F035F9F868FEF77EFA04460D4641F23450C1F6FF7056
S32D0000E1E809F01CFE03461846FEF772FA02460B46104619464FF000024FF07E5303F5F003FEF708F902460B46D5
S32D0000E2104FF001010E4620462946FEF741FD0346002B02D14FF000031E46F3B2002B2CD1F868FEF751FA04469F
S32D0000E2380D4641F23450C1F6FF7009F0EFFD03461846FEF745FA02460B46104619464FF000024FF07E5303F531
S32D0000E260F003FEF7D9F802460B464FF001010E4620462946FEF7F6FC0346002B02D14FF000031E46F3B2002B30
S32D0000E28802D04FF0010301E04FF00003002B7FF4FFAE07F11407BD46F0BD00BF000000000000B4430000803FAD
S32D0000E2B0000000BF0000003F90B585B000AF41F23450C1F6FF7009F08DFD0346FB6041F23450C1F6FF7009F03F
S32D0000E2D895FD0346BB6041F23450C1F6FF7009F09DFD03467B6039E041F23450C1F6FF7009F074FD024640F2B4
S32D0000E3003043C1F6FF731B6810461946FEF76EFD03464FF00102144618462D49FFF72CF80346002B02D14FF062
S32D0000E32800031C46E3B2002B0AD04FF000004FF07E5101F5E0016FF01D02FFF799F909E04FF000004FF07E5168
S32D0000E35001F5E0014FF01E02FFF78EF94FF0C80004F06EF841F23450C1F6FF7009F03AFD024640F23043C1F6DA
S32D0000E378FF731B6810461946FEF734FD03461846FFF726F803461846FEF7A2F902460B464FF001010C46104633
S32D0000E3A0194609A3D3E90023FEF77AFC0346002B02D14FF000031C46E3B2002B98D107F11407BD4690BD00BFC4
S32D0000E3C89A9999999999C93F00000000AFF3008080B582B000AF40F22043C1F6FF731B681846FEF7CFFF0346A5
S32D0000E3F041F28010C1F6FF70194605F07BF840F21C43C1F6FF731B681846FEF7BFFF034641F28010C1F6FF70CF
S32D0000E418194605F089F841F28010C1F6FF70DFF8381405F0A1F840F21843C1F6FF731B681846FEF7A7FF0346EC
S32D0000E44041F27410C1F6FF70194605F053F840F21443C1F6FF731B681846FEF797FF034641F27410C1F6FF70EE
S32D0000E468194605F061F841F27410C1F6FF70FB4905F07AF841F23450C1F6FF7008F0DEFF41F2CC40C1F6FF703A
S32D0000E4906FF07F4105F018FE41F2CC40C1F6FF704FF0000105F038FE41F2CC40C1F6FF7005F0EAFD00BF07F16C
S32D0000E4B804023B4641F2CC40C1F6FF7011461A4605F06AFF0346002BF1D153E041F23450C1F6FF7009F082FC78
S32D0000E4E0024640F22843C1F6FF731A6041F23450C1F6FF7009F086FC024640F22443C1F6FF731A6041F23450F3
S32D0000E508C1F6FF7009F08AFC024640F22C43C1F6FF731A6040F22843C1F6FF731B6841F2CC40C1F6FF701946A7
S32D0000E5304FF000024FF0000306F0A6F840F22443C1F6FF731B6841F2CC40C1F6FF7019464FF001024FF0000319
S32D0000E55806F096F840F22C43C1F6FF731B6841F2CC40C1F6FF7019464FF002024FF0000306F086F807F1040209
S32D0000E5803B4641F2CC40C1F6FF7011461A4605F007FF034683F00103DBB2002B9AD1AEA1D1E9000103F068FF8E
S32D0000E5A809E041F2CC40C1F6FF7049F2A421C0F2010106F0EDF807F104023B4641F2CC40C1F6FF7011461A46CD
S32D0000E5D005F0E6FE0346002BE7D109E041F2CC40C1F6FF7049F2AC21C0F2010106F0D4F807F104023B4641F29A
S32D0000E5F8CC40C1F6FF7011461A4605F0CDFE0346002BE7D141F2CC40C1F6FF7005F038FD53E041F23450C1F6F0
S32D0000E620FF7009F0DFFB024640F23043C1F6FF731A6041F23450C1F6FF7009F0E3FB024640F23443C1F6FF732C
S32D0000E6481A6041F23450C1F6FF7009F0E7FB024640F23843C1F6FF731A6040F23043C1F6FF731B6841F2CC404A
S32D0000E670C1F6FF7019464FF000024FF0000306F003F840F23443C1F6FF731B6841F2CC40C1F6FF7019464FF02B
S32D0000E69801024FF0000305F0F3FF40F23843C1F6FF731B6841F2CC40C1F6FF7019464FF002024FF0000305F091
S32D0000E6C0E3FF07F104023B4641F2CC40C1F6FF7011461A4605F064FE034683F00103DBB2002B9AD14FF0000036
S32D0000E6E84FF07E5101F5C00103F0C2FE41F2CC40C1F6FF7005F0C4FC00BF07F104023B4641F2CC40C1F6FF70CF
S32D0000E71011461A4605F044FE034683F00103DBB2002BEED14FF000004FF07E5101F5C00103F0A2FE09E041F203
S32D0000E738CC40C1F6FF7049F2C421C0F2010106F027F807F104023B4641F2CC40C1F6FF7011461A4605F020FEEA
S32D0000E7600346002BE7D14FF000004FF07E5101F5E00103F081FE00BF07F104023B4641F2CC40C1F6FF701146CF
S32D0000E7881A4605F009FE034683F00103DBB2002BEED141F2CC40C1F6FF7005F071FC41F2CC40C1F6FF706FF045
S32D0000E7B07F4105F089FC41F2CC40C1F6FF704FF0000105F0A9FC41F2CC40C1F6FF7049F2D821C0F2010105F080
S32D0000E7D8DFFF4FF000004FF07E5101F5E00103F047FE00BF07F104023B4641F2CC40C1F6FF7011461A4605F08A
S32D0000E800CFFD034683F00103DBB2002BEED100BF07F104023B4641F2CC40C1F6FF7011461A4605F0BDFD034695
S32D0000E828002BF1D141F2CC40C1F6FF704FF4004105F046FC41F2CC40C1F6FF7005F020FCFFF7BAF807F1080790
S32D0000E850BD4680BDAFF300809A9999999999B93F000048420000A041B0B586B000AF786039604FF001031C46DE
S32D0000E8787868A949FEF75EFD0346002B02D14FF000031C46E3B2002B08D07868A349FEF7ABFA03463B617B689F
S32D0000E8A07B6109E09F487968FEF7A0FA034683F000437B617B683B613868FDF70DFF02460B461046194690A3B3
S32D0000E8C8D3E90023FDF7A6FD02460B4610461946FEF734FA0346FB603868FDF7F9FE02460B461046194686A395
S32D0000E8F0D3E90023FDF790FD02460B4610461946FEF720FA0346BB60F868FDF7E5FE02460B464FF001010C4676
S32D0000E918104619467CA3D3E90023FEF7BDF90346002B02D14FF000031C46E3B2002B05D0F8687A49FEF756FA8B
S32D0000E9400346FB604FF001031C46B8687649FEF7F5FC0346002B02D14FF000031C46E3B2002B05D06F48B96843
S32D0000E968FEF740FA0346BB604FF001031C4638686C49FEF7E9FC0346002B02D14FF000031C46E3B283F0010323
S32D0000E990DBB2002B1BD13868FDF79EFE02460B464FF001010C46104619465BA3D3E90023FEF758F90346002B0D
S32D0000E9B802D14FF000031C46E3B283F00103DBB2002B00F062814FF001031C4638685649FEF7C4FC0346002B16
S32D0000E9E002D14FF000031C46E3B283F00103DBB2002B40F0A1804FF001031C4638684949FEF7A6FC0346002B9B
S32D0000EA0802D14FF000031C46E3B283F00103DBB2002B00F03A818BE041F23450C1F6FF7009F0FCF903464FF03C
S32D0000EA300102144618463A49FEF780FC0346002B02D14FF000031C46E3B2002B15D041F23450C1F6FF7009F0A3
S32D0000EA58E5F9034618463149FEF7C6F903463B6141F23450C1F6FF7009F0D8F903467B6116E041F23450C1F6C8
S32D0000EA80FF7009F0CFF9034626481946FEF7AEF9034683F000437B6141F23450C1F6FF7009F0C0F903463B6137
S32D0000EAA838683969FEF79EF903461846FEF790FC054638687969FEF795F903461846FEF787FC03464FF0010250
S32D0000EAD0144628461946FEF74FFC0346002B02D14FF000031C46E3B2002B03D01148FFF787F802E00F48FFF736
S32D0000EAF877F94FF4967003F09FFC1AE0AFF300809A9999999999C93FA4703D0AD77F76409A9999999999B9BF78
S32D0000EB20000034430000B443000000000000803F0080B343CDCCCC3E00BF41F23450C1F6FF7009F06FF903463B
S32D0000EB484FF0010214461846B968FEF711FC0346002B02D14FF000031C46E3B283F00103DBB2002B19D041F2B7
S32D0000EB703450C1F6FF7009F055F903464FF0010214461846F968FEF7D9FB0346002B02D14FF000031C46E3B299
S32D0000EB98002B02D04FF0010301E04FF00003002B7FF43AAFE2E041F23450C1F6FF7009F035F903464FF0010214
S32D0000EBC0144618466D49FEF7B9FB0346002B02D14FF000031C46E3B2002B15D041F23450C1F6FF7009F01EF993
S32D0000EBE8034618466449FEF7FFF803463B6141F23450C1F6FF7009F011F903467B6116E041F23450C1F6FF7002
S32D0000EC1009F008F903465A481946FEF7E7F8034683F000437B6141F23450C1F6FF7009F0F9F803463B61386897
S32D0000EC383969FEF7D7F803461846FEF7C9FB054638687969FEF7CEF803461846FEF7C0FB03464FF00102144624
S32D0000EC6028461946FEF788FB0346002B02D14FF000031C46E3B2002B03D04248FEF7C0FF02E04048FFF7B0F87D
S32D0000EC884FF0640003F0D8FB00E000BF41F23450C1F6FF7009F0C2F803464FF00102144618463749FEF75AFBB9
S32D0000ECB00346002B02D14FF000031C46E3B283F00103DBB2002B19D141F23450C1F6FF7009F0A8F803464FF09F
S32D0000ECD80102144618462B49FEF736FB0346002B02D14FF000031C46E3B283F00103DBB2002B36D041F234504D
S32D0000ED00C1F6FF7009F08EF803464FF00102144618461F49FEF726FB0346002B02D14FF000031C46E3B283F08C
S32D0000ED280103DBB2002B19D141F23450C1F6FF7009F074F803464FF00102144618460E49FEF702FB0346002BD5
S32D0000ED5002D14FF000031C46E3B283F00103DBB2002B02D04FF0010301E04FF00003002B7FF41DAF07F11807A1
S32D0000ED78BD46B0BD000034430000B4439A99993E000000000000003F00C0B343AFF30080F0B597B010AF41F290
S32D0000EDA03450C1F6FF7009F01DF803467B6141F23450C1F6FF7009F025F803463B6141F23450C1F6FF7009F0BA
S32D0000EDC82DF80346FB6003F07FFB02460B4610461946FDF7B3FF0346BB6041F28C13C1F6FF73D74A1A60D64BD8
S32D0000EDF07B604FF000004FF0804101F550116FF03B02FEF739FC41F23450C1F6FF7009F009F8024640F22C43FE
S32D0000EE18C1F6FF731B6810461946FDF7E3FF03463B6041F23450C1F6FF7008F0F7FF024640F22C43C1F6FF73D4
S32D0000EE401B6810461946FFF70FFD35E04FF000004FF0804101F592016FF03102FEF70CFC41F23450C1F6FF7021
S32D0000EE6808F0DCFF024640F22C43C1F6FF731B6810461946FFF7F4FC41F23450C1F6FF7008F0ACFF03467B61D4
S32D0000EE9041F23450C1F6FF7008F0B4FF03463B6141F23450C1F6FF7008F0BCFF0346FB604FF0C80003F0C4FAFB
S32D0000EEB840F22843C1F6FF731B684FF00102144678691946FEF736FA0346002B02D14FF000031C46E3B2002B37
S32D0000EEE0B4D14FF0C80003F0ABFA41F23450C1F6FF7008F087FF024640F22443C1F6FF731B684FF001010C4665
S32D0000EF0810461946FEF734FA0346002B02D14FF000031C46E3B2002B7CD041F26C10C1F6FF7003F0F7FE41F21C
S32D0000EF306410C1F6FF70854900F08AFF41F25C10C1F6FF70824900F083FF4CE041F25810C1F6FF7003F008FFE9
S32D0000EF58024641F28C13C1F6FF731B684FF001010C4610461946FEF7E5F90346002B02D14FF000031C46E3B22A
S32D0000EF80002B30D041F25810C1F6FF7003F0ECFE024641F28C13C1F6FF731A6041F2CC40C1F6FF7005F070F81B
S32D0000EFA841F28C13C1F6FF731A6841F29813C1F6FF739A6441F29816C1F6FF766C4606F110050FCD0FC40FCD63
S32D0000EFD00FC40FCD0FC495E80F0084E80F0096E80F00FEF717FA41F26C10C1F6FF7003F081FE0346452BCCBF6C
S32D0000EFF800230123DBB2002BA4D141F26410C1F6FF7000F0D1FE41F25C10C1F6FF7000F0CBFE7BE041F270105F
S32D0000F020C1F6FF7003F07AFE41F26410C1F6FF70474900F00DFF41F25C10C1F6FF70434900F006FF4CE041F233
S32D0000F0485810C1F6FF7003F08BFE024641F28C13C1F6FF731B684FF001010C4610461946FEF768F90346002BB8
S32D0000F07002D14FF000031C46E3B2002B30D041F25810C1F6FF7003F06FFE024641F28C13C1F6FF731A6041F22A
S32D0000F098CC40C1F6FF7004F0F3FF41F28C13C1F6FF731A6841F29813C1F6FF739A6441F29816C1F6FF766C46F1
S32D0000F0C006F110050FCD0FC40FCD0FC40FCD0FC495E80F0084E80F0096E80F00FEF79AF941F27010C1F6FF7014
S32D0000F0E803F004FE0346452BCCBF00230123DBB2002BA4D141F26410C1F6FF7000F054FE41F25C10C1F6FF7079
S32D0000F11000F04EFE41F27010C1F6FF7003F0FEFD41F26C10C1F6FF7003F0F8FD4FF000004FF0804101F5781153
S32D0000F1386FF03B02FEF79CFA07F11C07BD46F0BD33335340000000410000A0410000000080B500AF4FF0000079
S32D0000F1604FF0804101F510114FF00F02FEF784FA1F48FEF72DFF1CA1D1E900016FF02702FEF77AFA41F264100F
S32D0000F188C1F6FF70194900F05FFE41F25C10C1F6FF70174900F058FE4FF000004FF0804101F5B01103F064F9D3
S32D0000F1B041F26410C1F6FF7000F0FAFD41F25C10C1F6FF7000F0F4FD0C48FEF719FD4FF000004FF0804101F543
S32D0000F1D8A8014FF02802FEF74BFAFEF70DFA80BD00000000008051400000B44200008CC2000082C20000E040CB
S32D0000F20080B500AF4FF000004FF0804101F5AC014FF02302FEF730FA2148FEF701FC1CA1D1E900016FF027023C
S32D0000F228FEF726FA41F26410C1F6FF701B4900F00BFE41F25C10C1F6FF70194900F004FE13A1D1E9000103F0FE
S32D0000F25013F941F26410C1F6FF7000F0A9FD41F25C10C1F6FF7000F0A3FD1048FEF7C8FC07A1D1E900014FF019
S32D0000F2782302FEF7FDF90C48FEF7BEFCFEF7BCF980BD00BFAFF3008000000000008051403333333333331540F5
S32D0000F2A00000B442000086C2000094C200003442000020C1AFF30080F0B593B010AFFFF78BF841F2CC40C1F61D
S32D0000F2C8FF706FF07F4104F0FBFE41F2CC40C1F6FF7004F0D5FE41F23450C1F6FF7008F09DFD024641F29013E4
S32D0000F2F0C1F6FF731A6041F29013C1F6FF731A6841F29413C1F6FF731A6003F0E1F802460B4610461946FDF741
S32D0000F31815FD03467B600BE041F23450C1F6FF7008F07CFD024641F29013C1F6FF731A6041F29013C1F6FF7398
S32D0000F3401B681846C249FDF7EFFF0346002B27D141F29013C1F6FF731B681846BD49FDF7E3FF0346002B1BD149
S32D0000F36803F0B2F804460D467868FDF7B1F902460B4620462946FDF74BF802460B46104619464FF000024FF04C
S32D0000F390804303F53813FDF75BFC0346002B02D04FF0010301E04FF00003002BB8D14FF000004FF080414FF020
S32D0000F3B80F02FEF75DF9A648FEF712FD4FF000004FF0804101F510114FF04602FEF750F9FFF7DEFC41F28C131C
S32D0000F3E0C1F6FF731B681846FDF776F902460B464FF001010C46104619468FA3D3E90023FDF730FC0346002B0C
S32D0000F40802D14FF000031C46E3B2002B21D041F28C13C1F6FF731A6841F29813C1F6FF739A6441F29816C1F694
S32D0000F430FF766C4606F110050FCD0FC40FCD0FC40FCD0FC495E80F0084E80F0096E80F00FDF7E0FFFFF7D4FE3F
S32D0000F45820E041F28C13C1F6FF731A6841F29813C1F6FF739A6441F29816C1F6FF766C4606F110050FCD0FC48A
S32D0000F4800FCD0FC40FCD0FC495E80F0084E80F0096E80F00FDF7BEFFFFF75EFE41F2CC40C1F6FF7004F0F0FD23
S32D0000F4A84FF000004FF0804101F5B2014FF03702FEF7DEF84FF000004FF0804101F578116FF02702FEF7D4F804
S32D0000F4D06248FEF789FC4FF000004FF0804101F5D0114FF02D02FEF7C7F85D48FEF77CFC4FF000004FF0804161
S32D0000F4F86FF04502FEF7BCF841F27010C1F6FF7003F008FC41F26C10C1F6FF7003F002FC4FF000004FF08041C2
S32D0000F52001F59C016FF03102FEF7A6F84FF000004FF0804101F586014FF01902FEF79CF841F28010C1F6FF707D
S32D0000F548464904F011F84FF0C80002F075FF41F28010C1F6FF70424904F006F84FF0C80002F06AFF41F264102D
S32D0000F570C1F6FF703D4900F06BFC41F25C10C1F6FF703B4900F064FC4FF000004FF07E5101F5E80102F070FF44
S32D0000F59841F26410C1F6FF7000F006FC41F25C10C1F6FF7000F000FC41F27010C1F6FF7003F0B0FB41F26C10AF
S32D0000F5C0C1F6FF7003F0AAFB4FF0640002F038FF41F28010C1F6FF70264903F0C9FF4FF000004FF0804101F54B
S32D0000F5E878114FF02302FEF743F813A1D1E900014FF02302FEF73CF81D48FEF7FDFA1D48FEF7EEFB0EA1D1E9DF
S32D0000F61000014FF02D02FEF72FF84FF000004FF07E5101F5E0016FF02702FEF725F80B48FEF7DAFB2EE000BF99
S32D0000F638333333333333E33F00000000008049400000000000405040000080BF000000C00000074300003442B8
S32D0000F660000016420000324300802C4300002842000048420000A0410000C0C000000C424FF000004FF08041DE
S32D0000F68801F510114FF03702FDF7F2FF41F23450C1F6FF7008F0B2FB03464FF00102144618464F49FDF746FE4B
S32D0000F6B00346002B02D14FF000031C46E3B2002BDED141F23450C1F6FF7008F0ABFB034618464549FFF7C8F86C
S32D0000F6D84FF000004FF0804101F580114FF02802FDF7C6FF3F48FEF77BFBFEF7E1FD3D48FEF782FA4FF0000022
S32D0000F7004FF0804101F592014FF03702FDF7B4FF41F27410C1F6FF70354903F029FF4FF000004FF0804101F588
S32D0000F72850114FF04602FDF7A3FF3048FEF758FB4FF000004FF0804101F5BC014FF03202FDF796FF2A48FEF720
S32D0000F75057FA4FF000004FF0804101F588014FF03702FDF789FF2548FEF74AFA1CA1D1E900014FF04602FDF7EF
S32D0000F7787FFF41F29413C1F6FF731B6818461E49FDF732FB03463B604FF001031C4638681A49FDF7EDFD0346C6
S32D0000F7A0002B02D14FF000031C46E3B2002B05D038681449FDF71AFB03463B604FF000004FF0804101F5D20112
S32D0000F7C84FF05A02FDF754FF4FF00003184607F10C07BD46F0BD00BF0000000000C06240000000000000B442BF
S32D0000F7F0000016430000B4C2000082C2000040C1000034430000B44380B582B000AF786039607B68012B3ED1C4
S32D0000F8183A684FF6FF739A4239D141F25810C1F6FF704FF0080103F089FA41F25C10C1F6FF704FF00001184A9D
S32D0000F84000F05EFA41F26410C1F6FF704FF00101134A00F055FA41F26C10C1F6FF704FF0000102F08FFE41F2E1
S32D0000F8687010C1F6FF704FF0070102F087FE41F27410C1F6FF704FF0000103F019FE41F28010C1F6FF704FF0BF
S32D0000F890010103F011FE07F10807BD4680BD00BF0000104180B500AF4FF001004FF6FF71FFF7AAFF80BD00BF7B
S32D0000F8B880B500AF41F29872C1F6FF7241F25813C1F6FF73D31A194641F25813C1F6FF731A460B4610464FF0B9
S32D0000F8E000011A4608F033FC80BD00BF09F0A8FC00F0B0F9FFF7E0FF09F07AFC09F016FC09F0AEFC00F00CF85A
S32D0000F9084FF0000041F2E811C1F6FF71FFF7D0FC0346184608F0F2FB80B500AF4FF4E043C4F204034FF4E04285
S32D0000F930C4F2040202F5805202F13802126842F4785203F5805303F138031A6000F02EF900F094F841F21843E8
S32D0000F958C1F6FF734FF058021A6041F21843C1F6FF731B684FF47A7202FB03F241F21443C1F6FF731A6041F28A
S32D0000F9801443C1F6FF731B681A464FF4E043C4F2040303F5825303F104031B6803F070634FEA136303F101031B
S32D0000F9A8B2FBF3F31A4641F21C43C1F6FF731A604FF4E043C4F204034FF4E042C4F2040202F5805202F13C02CB
S32D0000F9D0126842F0225203F5805303F13C031A604FF4E043C4F204034FF4E042C4F2040202F5805202F130023F
S32D0000F9F8126842F0006203F5805303F130031A604FF45043C4F203034FF480721A614FF0640002F0A5FB4FF4AD
S32D0000FA205043C4F203034FF45042C4F20302526922F010025A614FF45043C4F203034FF000021A604FF450431C
S32D0000FA48C4F203034FF010025A6103F0BBFA03F063FB41F21040C1F6FF7002F005FC41F2CC40C1F6FF7004F0DA
S32D0000FA7043F941F2883002F0E3FC80BD80B400AF4FF48043C4F206034FF000025A704FF48043C4F206034FF07C
S32D0000FA9898021A704FF48043C4F206039B79DBB203F01003002B0CBF00230123DBB2002BF0D14FF48043C4F23E
S32D0000FAC006039B79DBB203F00C034FEA9303022B0CBF00230123DBB2002BEED14FF48043C4F206034FF01802C9
S32D0000FAE81A714FF48043C4F206034FF000025A714FF4E043C4F2040303F5825303F104034FF00002C0F2131291
S32D0000FB101A604FF48043C4F206034FF054025A7100BF4FF48043C4F206039B79DBB203F02003002B14BF0023CC
S32D0000FB380123DBB2002BF0D100BF4FF48043C4F206039B79DBB203F04003002B14BF00230123DBB2002BF0D1E9
S32D0000FB604FF48043C4F206034FF48042C4F206021278D2B202F03F02D2B21A704FF48043C4F206039B79DBB23A
S32D0000FB8803F00C034FEA9303032B0CBF00230123DBB2002BEED14FF000031846BD4680BC704700BF80B400AF8F
S32D0000FBB04FF44043C4F204034FF480725A634FF2C003C4F20F034FF2C002C4F20F02526942F400525A614FF2DD
S32D0000FBD8C003C4F20F034FF2C002C4F20F02126842F400521A604FF44043C4F2040340F20312C0F20A021A6329
S32D0000FC004FF46143CEF200034FF46142CEF20002D2F8882142F08062C3F888214FF46143CEF200034FF4614209
S32D0000FC28CEF20002926842F080629A60BD4680BC704700BF80B483B000AF7860FEE700BF80B400AF00BEBD46F9
S32D0000FC5080BC704780B400AF4FF0E0224CF20003C0F20003C2F8083D4FF40053C4F205034CF22052DA814FF4D8
S32D0000FC780053C4F205034DF62812DA814FF40053C4F205034FF0D2021A80BD4680BC704780B500AF4FF44043D4
S32D0000FCA0C4F20403D3F8A03003F48053002B0CBF00230123DBB2002B1FD04FF44043C4F204034FF44042C4F232
S32D0000FCC80402D2F8A02022F48052C3F8A02041F25450C1F6FF7008F097F94FF2C003C4F20F034FF2C002C4F211
S32D0000FCF00F02126822F400521A6080BD0000000090B585B000AFF8600B467A60FB72FB68FA7A1A71FB684FF01F
S32D0000FD1800025A714FF001031C4678682049FDF727FB0346002B02D14FF000031C46E3B2002B02D01A4B7B602F
S32D0000FD4011E04FF001031C4678681849FDF700FB0346002B02D14FF000031C46E3B2002B01D0124B7B6078683B
S32D0000FD68FCF7B6FC02460B46104619460AA3D3E90023FCF701FD02460B4610461946FCF7DDFF0246FB681A60BB
S32D0000FD90FB68184607F11407BD4690BDAFF30080ABAAAAAAAAAA2040000040410000803F80B582B000AF786074
S32D0000FDB87B685B79002B10D07B684FF000025A717B681B7941F21040C1F6FF7019464FF000024FF01E0302F05A
S32D0000FDE091FA07F10807BD4680BD00BF80B584B000AF786039603B687F2B03DD4FF07F03FB7309E03B6813F1EF
S32D0000FE08800F03DA4FF08003FB7301E03B68FB737B685B79FA7B9A420FD07B68FA7B5A717B681A79FB7B41F215
S32D0000FE301040C1F6FF7011461A464FF01E0302F061FA07F11007BD4680BD00BF00000000B0B584B000AF78609C
S32D0000FE5839604FF001031C4638684D49FDF76AFA0346002B02D14FF000031C46E3B2002B02D0474B3B6011E015
S32D0000FE804FF001031C4638684449FDF775FA0346002B02D14FF000031C46E3B2002B01D03E4B3B603868FCF7EC
S32D0000FEA817FC04460D467B681B681846FCF710FC02460B46104619464FF000024FF0804303F5B203FCF782FD09
S32D0000FED002460B4620462946FCF752FC02460B4610461946FCF72EFF03463B604FF001031C4638682A49FDF757
S32D0000FEF835FA0346002B02D14FF000031C46E3B2002B14D03868FCF7E3FB02460B46104619461DA3D3E90023C0
S32D0000FF20FCF72EFC02460B4610461946FCF7C2FE0346FB6022E03868FCF7CEFB02460B46104619464FF0000204
S32D0000FF484FF0804303F5C003FCF716FC02460B46104619464FF000024FF0804303F5B203FCF734FD02460B46CE
S32D0000FF7010461946FCF79EFE0346FB607868F968FFF734FF07F11007BD46B0BDAFF3008052B81E85EB51F43F54
S32D0000FF980000C8C20000C84200000000AFF3008080B485B000AF02460B46FA71BB71BB79002B07D141F2EC13D4
S32D0000FFC0C1F6FF734FF000021A7006E041F2EC13C1F6FF734FF001021A704FF03803FB7341F2EC13C1F6FF73CF
S32D0000FFE81A78FB7B1343FB734FF4C043C4F206034FF4C042C4F206029278D2B242F01002D2B29A704FF4C04371
S32D00010010C4F206034FF4C042C4F206029278D2B242F02002D2B29A704FF4C043C4F20603FA7B1A7107F1140777
S32D00010038BD4680BC704700BF80B483B000AF4FF001037B6004E000BF7B6803F101037B607B68312BCCBF00236A
S32D000100600123DBB2002BF2D107F10C07BD4680BC704700BF80B582B000AF02460B46FA71BB7141F2ED13C1F6E2
S32D00010088FF731B7818464FF00001FFF789FF4FF4C043C4F20603DB78DBB203F00203002B14BF00230123DBB279
S32D000100B0002BF0D14FF4C043C4F206034FF4C042C4F20602D278D2B242F00202D2B2DA704FF4C043C4F2060356
S32D000100D8FA791A714FF4C043C4F20603DB78DBB203F00203002B14BF00230123DBB2002BF0D14FF4C043C4F264
S32D0001010006034FF4C042C4F20602D278D2B242F00202D2B2DA704FF4C043C4F20603BA791A714FF4C043C4F233
S32D000101280603DB78DBB203F00203002B14BF00230123DBB2002BF0D14FF4C043C4F206034FF4C042C4F2060201
S32D00010150D278D2B242F00202D2B2DA704FF4C043C4F206034FF4C042C4F206029278D2B222F02002D2B29A7056
S32D000101784FF4C043C4F206034FF4C042C4F206029278D2B222F01002D2B29A70FFF754FF07F10807BD4680BD80
S32D000101A080B582B000AF0346FB71FB79184600F06BF807F10807BD4680BD00BF80B582B000AF02460B46FA7120
S32D000101C8BB7100F039F8FB794FEA4303DBB21846FFF7E2FFBB791846FFF7DEFF00F03EF807F10807BD4680BD34
S32D000101F080B500AF4FF0FF0000F046F80346184680BD00BF80B584B000AF0346FB7100F017F8FB794FEA43032E
S32D00010218DBB243F00103DBB2DBB21846FFF7BCFFFFF7E2FF0346FB7300F018F8FB7B184607F11007BD4680BD19
S32D0001024080B400AF4FF24003C4F20F034FF24002C4F20F02926842F480129A60BD4680BC704700BF80B400AFC2
S32D000102684FF24003C4F20F034FF24002C4F20F02526842F480125A60BD4680BC704700BF80B485B000AF03467F
S32D00010290FB714FF00003BB7303E0FB7B03F10103FB734FF44043C4F20A03DB6A4FF00003002BF2D14FF44043E0
S32D000102B8C4F20A034FF44042C4F20A02D26A42F00042DA624FF44043C4F20A03FA795A6300BF4FF44043C4F2ED
S32D000102E00A03DB6A03F40033002B14BF00230123DBB2002BF1D14FF44043C4F20A039B6BBB73BB7B184607F16B
S32D000103081407BD4680BC704780B582B000AF4FF4E043C4F204034FF4E042C4F2040202F5805202F130021268F3
S32D0001033042F4805203F5805303F130031A604FF42043C4F204034FF480721A654FF24003C4F20F034FF2400244
S32D00010358C4F20F02526942F480125A61FFF77EFF4FF42043C4F204034FF400725A654FF42043C4F204034FF481
S32D0001038000729A654FF42043C4F204034FF40072DA654FF44043C4F20A034FF44062C8F200021A604FF440431C
S32D000103A8C4F20A034FF00502C3F60062DA604FF000037B6007E04FF0FF00FFF7EDFE7B6803F101037B607B680C
S32D000103D0092BCCBF00230123DBB2002BEFD104A1D1E9000102F048F807F10807BD4680BD9A9999999999B93F18
S32D000103F890B486B000AFF860B9607A60FA684FF42043C4F206039A4214D14FF4E043C4F204034FF4E042C4F29C
S32D00010420040202F5805202F13402126842F4806203F5805303F134031A6083E0FA684FF43043C4F206039A429D
S32D0001044814D14FF4E043C4F204034FF4E042C4F2040202F5805202F13402126842F4006203F5805303F1340362
S32D000104701A6067E0FA684FF44043C4F206039A4214D14FF4E043C4F204034FF4E042C4F2040202F5805202F1F4
S32D000104983402126842F4805203F5805303F134031A604BE0FA684FF45043C4F206039A4214D14FF4E043C4F20E
S32D000104C004034FF4E042C4F2040202F5805202F13402126842F4005203F5805303F134031A602FE0FA684FF4CD
S32D000104E82043C4F20E039A4214D14FF4E043C4F204034FF4E042C4F2040202F5805202F12802126842F480623E
S32D0001051003F5805303F128031A6013E04FF4E043C4F204034FF4E042C4F2040202F5805202F12802126842F48B
S32D00010538006203F5805303F128031A60FB68DB78DBB223F00C03DAB2FB68DA70FB684FF000029A70BB684FF41C
S32D000105607A7202FB03F27B684FEA031392FBF3F39CB2FB681B78DBB223F01F03FB75234603F4F8534FEA232349
S32D00010588DBB203F01F03DAB2FB7D1343DAB2FB681A70E2B2FB685A70BB684FF4FA4202FB03F27B684FEA031348
S32D000105B092FBF3F39AB2234619464FEAC121CB1A4FEA43139BB2D3189CB2FB689B7ADBB223F01F03FB75E3B241
S32D000105D803F01F03DAB2FB7D1343DAB2FB689A72FB68DB78DBB243F00C03DAB2FB68DA7007F11807BD4690BC66
S32D00010600704700BF80B483B000AF786000BF7B681B79DBB203F02003002B14BF00230123DBB2002BF3D17B68EA
S32D00010628DB79DBB2184607F10C07BD4680BC704780B483B000AF78600B46FB7000BF7B681B79DBB2DBB26FEA10
S32D000106500303DBB24FEAD313DBB2002BF3D17B68FA78DA7107F10C07BD4680BC704700BF80B487B000AFF8607B
S32D00010678B9607A60FB687B6107E0BB68DAB27B691A707B6903F101037B617B68002B0CBF00230123DBB27A68D6
S32D000106A002F1FF327A60002BEBD107F11C07BD4680BC704780B584B000AF786039607B681B6BFB60FA683B68E3
S32D000106C89A4264D07B681B79002B43D07B685A787B6803F1340310461946FA684FF0010301F0ACFB0346002B15
S32D000106F00CBF00230123DBB2002B02D04FF001034BE07B684FF000021A717B685A6A7B681B6AD218FB689A42EA
S32D0001071820D97B68DB78FB7214E07B681B6AFA68D318FB607B685A787B6803F1340310461946FA684FF00103F5
S32D0001074001F080FBFB7A03F1FF33FB72FB7A012B94BF00230123DBB2002BE2D13B68002B19D07B685A787B6821
S32D0001076803F13403104619463A684FF0010301F057FA0346002B0CBF00230123DBB2002B02D04FF0010304E024
S32D000107907B683A681A634FF00003184607F11007BD4680BD80B584B000AF786078684FF00001FFF77FFF03467C
S32D000107B8FB73FB7B002B40F0AE807B681B78032B40F095807B685B79002B00F090807B684FF000021A637B6856
S32D000107E003F1340318464FF000014FF40072FFF73FFF7B684FF0550283F832227B684FF0AA0283F833227B686F
S32D000108084FF0520283F834207B684FF0520283F835207B684FF0610283F836207B684FF0410283F837207B68A9
S32D000108304FF0720283F818227B684FF0720283F819227B684FF0410283F81A227B684FF0610283F81B227B68A9
S32D000108581B69DAB27B6883F81C227B681B699BB24FEA2323DAB27B6883F81D227B681B694FEA1343DAB27B6804
S32D0001088083F81E227B681B694FEA1363DAB27B6883F81F227B68DB68DAB27B6883F820227B68DB689BB24FEA4F
S32D000108A82323DAB27B6883F821227B68DB684FEA1343DAB27B6883F822227B68DB684FEA1363DAB27B6883F80C
S32D000108D023227B6859787B6803F134027B685B69084611461A464FF0010301F0ABFA7B684FF000025A717B689C
S32D000108F85B7818464FF000014FF0000201F084FB0346002B0CBF00230123DBB2002B02D04FF00103FB73FB7B78
S32D00010920184607F11007BD4680BD00BF80B582B000AF78600B467B807B68002B08D07B681B78002B04D07B68C4
S32D00010948DB887A889A4202D04FF009030FE07B685B78184601F0ECFB034603F00103DBB2002B02D04FF0030338
S32D0001097001E04FF00003184607F10807BD4680BD80B586B000AF78607B681A687B689B8810461946FFF7CAFFBF
S32D000109980346FB75FB7D002B40F0C8807B689B7903F02003002B00F0C1807B689B7903F04003002B20D07B68C8
S32D000109C01B6859787B6803F128027B689B69084611461A464FF0010301F034FA0346002B0CBF00230123DBB252
S32D000109E8002B02D04FF00103A1E07B689B7923F04003DAB27B689A717B681A687B68DB6910461946FFF752FED1
S32D00010A100346FB75FB7D002B40F08C807B681B6A3B613B6903F10B033A6902F10B02127842F02002D2B21A70E6
S32D00010A383B6903F11C037A68D268D2B21A703B6903F11D037A68D26892B24FEA2222D2B21A703B6903F11E0352
S32D00010A607A68D2684FEA1242D2B21A703B6903F11F037A68D2684FEA1262D2B21A703B6903F11A037A6812690D
S32D00010A88D2B21A703B6903F11B037A68126992B24FEA2222D2B21A703B6903F114037A6812694FEA1242D2B232
S32D00010AB01A703B6903F115037A6812694FEA124292B24FEA2222D2B21A704FF00003FB603B6903F11603FA6874
S32D00010AD8D2B21A703B6903F11703FA6892B24FEA2222D2B21A703B6903F11803FA684FEA1242D2B21A703B69AA
S32D00010B0003F11903FA684FEA1262D2B21A707B689B7923F02003DAB27B689A717B681B684FF001021A717B68DC
S32D00010B281B681846FFF73AFE0346FB75FB7D184607F11807BD4680BD80B584B000AF78607868FFF719FF034682
S32D00010B50FB73FB7B002B03D17B684FF000021A60FB7B184607F11007BD4680BD80B588B000AF786039604FF006
S32D00010B7880033B614FF00F03FB604FF0FF337B614FF00203FB612AE04FF00103BB611AE0FB69BA6902FB03F3B9
S32D00010BA03A6802FB03F27B68D31ABB60BB68002B09DBBA687B699A4205D2BB687B61FB693B61BB69FB60BB691A
S32D00010BC803F10103BB61BB69102B8CBF00230123DBB2002BDCD1FB694FEA4303FB61FB69B3F5807F8CBF0023DC
S32D00010BF00123DBB2002BCBD14FF48053C4F20B034FF48052C4F20B02D26A22F00802DA624FF48053C4F20B033E
S32D00010C18DB6A1A464FF00F03CFF6F0731340BB614FF48053C4F20B033A694FEA52024FEA02224FEA02424FEA03
S32D00010C401242F96801F1FF314FEA0111C9B21143BA690A4342F46022DA6203E04FF00A0001F0EEFB4FF4805314
S32D00010C68C4F20B035B6A03F00803002B14BF00230123DBB2002BEDD14FF48053C4F20B034FF48052C4F20B0269
S32D00010C90D26A42F00802DA624FF48053C4F20B034FF48052C4F20B02126B42F480121A6307F12007BD4680BDAE
S32D00010CB880B582B000AF786039607B684FF000021A604FF48053C4F20B034FF40042C0F20012DA624FF4805373
S32D00010CE0C4F20B03DB6A03F08073002B0CBF00230123DBB2002BF1D14FF48053C4F20B034FF00002C3F8C02089
S32D00010D084FF48053C4F20B034FF481325A604FF48053C4F20B034FF028029A624FF48053C4F20B034FF00112C7
S32D00010D305A643B689B6818464CF66041C0F20501FFF714FF4FF48053C4F20B035B6A03F00303002B0CBF00237D
S32D00010D580123DBB2002BF1D14FF45043C4F2040340F243421A604FF45043C4F2040340F243425A604FF4504330
S32D00010D80C4F204034FF488629A604FF45043C4F2040340F24342DA604FF45043C4F2040340F243421A614FF4D4
S32D00010DA85043C4F2040340F243425A614FF4E043C4F204034FF4E042C4F2040202F5805202F13002126842F478
S32D00010DD0003203F5805303F130031A604FF48053C4F20B034FF6FF721A634FF48053C4F20B034FF0B302C0F2C9
S32D00010DF87F025A634FF48053C4F20B034FF48052C4F20B02D26A42F00062DA624FF48053C4F20B03DB6A03F0BE
S32D00010E200063002B0CBF00230123DBB2002BF1D14FF48053C4F20B035B6A03F48033002B0CBF00230123DBB276
S32D00010E48002B03D07B684FF001021A604FF48053C4F20B034FF48052C4F20B02126B42F080021A634FF000033C
S32D00010E70184607F10807BD4680BD00BF80B400AF4FF48053C4F20B035B6A1A4640F207331340002B0CBF002335
S32D00010E980123DBB21846BD4680BC704780B485B000AF78604FF48053C4F20B031B6B1A467B681340FB60FB6882
S32D00010EC0002B14BF00230123DBB2002BEED1FB68184607F11407BD4680BC704780B584B000AF78607B681B7817
S32D00010EE803F03F0249F2D053C0F2010353F82230FB60FB68002B06D17B681B78002B02D04FF0010330E14FF42C
S32D00010F108053C4F20B034FF48052C4F20B02126B42F080021A634FF48053C4F20B035B6A03F00103DBB2002B47
S32D00010F38F5D14FF48053C4F20B037A6852689A60FB6823F44003FB607B685B784FEA835303F44003FA68134385
S32D00010F60FB607B685B78022B03D1FB6843F40013FB607B685B78042B16D1FB6803F44033B3F5003F08D1FB688C
S32D00010F8823F44033FB60FB6843F44033FB6007E0FB6823F44033FB60FB6843F40033FB604FF48053C4F20B03BC
S32D00010FB04FF48052C4F20B0252684FEA02424FEA12425A607B68DB68002B32D0FB6803F44033B3F5403F03D0A2
S32D00010FD8FB6843F40013FB607B681B7A002B03D0FB6843F01003FB607B68DB68012B03D9FB6843F02003FB6026
S32D000110007B68DB68B3F1FF3F13D04FF48053C4F20B034FF48052C4F20B02526811467A68D2684FEA02420A432D
S32D000110285A60FB6843F00203FB604FF48053C4F20B034FF000021A604FF48053C4F20B03FA68DA604FF001009E
S32D00011050C0F20E00FFF726FF0346012B0CBF00230123DBB2002B10D04FF48053C4F20B034FF48052C4F20B02C5
S32D00011078126B42F4702242F001021A634FF0010372E04FF48053C4F20B031B6B03F08003002B0CBF00230123AA
S32D000110A0DBB2002B0ED04FF48053C4F20B034FF48052C4F20B02126B42F001121A634FF0010355E04FF480530C
S32D000110C8C4F20B031B6B03F48033002B0CBF00230123DBB2002B0ED04FF48053C4F20B034FF48052C4F20B0280
S32D000110F0126B42F001121A634FF0FF3338E0FB6803F44033002B25D04FF48053C4F20B031B691A467B681A6100
S32D00011118FB6803F44033B3F5803F17D14FF48053C4F20B035B691A467B685A614FF48053C4F20B039B691A46B2
S32D000111407B689A614FF48053C4F20B03DB691A467B68DA614FF48053C4F20B034FF48052C4F20B02126B42F0A5
S32D0001116801021A634FF00003184607F11007BD4680BD00BF80B592B000AF786039604FF00003FB633B68BB6332
S32D0001119041F20423C1F6FF737B637B6B002B03D140F6012300F0A0BC41F20843C1F6FF733B633B6B002B03D15A
S32D000111B840F60B2300F094BC3B6B1B68FB62FB6A002B03D140F60B2300F08ABC7B6841F20432934200F0388215
S32D000111E041F2043293421BD841F20132934238D041F20132934207D8032B00F03D84092B00F0298400F066BC90
S32D0001120841F20232934200F0128241F20332934200F0BE8300F05ABC41F20732934200F04B8341F20732934243
S32D000112300BD841F20532934200F0348241F20632934200F0108300F045BC41F20832934200F0B68241F209323B
S32D00011258934200F0C48200F039BC786B49F2C451C0F20101FFF724FD0346FB63FB6B002B40F030844FF000031B
S32D0001128087F847304FF0000387F82B304FF0000387F82A304FF0000387F829304FF0000387F846304FF000037F
S32D000112A887F828304FF000033B724FF000037B724FF00003FB604FF000033B744FF000037B6107F10803184615
S32D000112D0FFF704FE0346002B0CBF00230123DBB2002B03D04FF00103FB63FCE340F24C4001F0A6F84FF00803CF
S32D000112F83B724FF000037B724FF4D573FB604FF000033B744FF000037B6107F108031846FFF7E0FD03463B64DA
S32D000113203B6C002B0BD1BA69FB689A4203D04FF00103FB63D7E34FF0010387F846304FF0010387F8283097F87F
S32D000113482830002B00F0C6804FF037033B724FF000037B724FF00003FB604FF000033B744FF000037B6107F1C4
S32D0001137008031846FFF7B2FD03463B643B6C002B03D04FF00103FB63ADE34FF069033B724FF000037B724FF0BC
S32D000113980003FB604FF000033B744FF000037B6107F108031846FFF795FD0346002B0CBF00230123DBB2002B92
S32D000113C003D04FF00103FB638DE3BB6903F44013002B00F083804FF000033B644FF00A0001F02EF83B6C03F1B2
S32D000113E801033B644FF037033B724FF000037B724FF00003FB604FF000033B744FF000037B6107F108031846D1
S32D00011410FFF764FD0346002B0CBF00230123DBB2002B03D04FF00103FB6336E04FF069033B724FF000037B7207
S32D0001143897F84630002B05D04FF00003C4F23003FB6002E04FF44013FB604FF000033B744FF000037B6107F120
S32D0001146008031846FFF73AFD0346002B0CBF00230123DBB2002B03D04FF00103FB630CE0BB69002B05DB3B6C53
S32D00011488632B02D84FF0010301E04FF00003002BA0D1FB6B002B40F01F833B6C632B04D94FF0000387F846301F
S32D000114B014E04FF0010387F8473097F84630002B0CD04FF0000387F84630BB6903F08043002B03D04FF0010382
S32D000114D887F8463097F82A30002B03D07B6B4FF007021A6097F82930002B03D07B6B4FF008021A6097F82B30E8
S32D00011500002B03D07B6B4FF004021A6097F84730002B0BD07B6B4FF002021A6097F84630002B03D07B6B4FF042
S32D0001152803021A6097F82B30002B0FD097F84730002B0BD07B6B4FF005021A6097F84630002B03D07B6B4FF047
S32D0001155006021A604FF45043C4F204034FF000021A604FF45043C4F204034FF000025A604FF45043C4F204037B
S32D000115784FF000029A604FF45043C4F204034FF00002DA604FF45043C4F204034FF000021A614FF45043C4F220
S32D000115A004034FF000025A61FB6A9A68FB6A5B6810461946FFF7DAFA4FF45043C4F2040340F243421A604FF404
S32D000115C85043C4F2040340F243425A604FF45043C4F204034FF488629A604FF45043C4F2040340F24342DA60F5
S32D000115F04FF45043C4F2040340F243421A614FF45043C4F2040340F243425A614FF4E043C4F204034FF4E0427A
S32D00011618C4F2040202F5805202F13002126842F4003203F5805303F130031A6057E2B86BFFF750FC03463B6425
S32D000116403B6C002B00F04E824FF00203FB6349E2BB6B002B03D14FF00C03FB6343E24FF48053C4F20B03DB6A07
S32D0001166803F47F434FEA13234FEA43033B644FF48053C4F20B03DB6A03F0F0034FEA131303F101023B6C02FB0E
S32D0001169003F33B64FB6A9A683B6CB2FBF3F2BB6B1A6020E2BB6B002B03D14FF00C03FB6319E2BB6B1B68002BB4
S32D000116B803D14FF00C03FB6311E2FFF7DBFB0346002B14BF00230123DBB2002B70D04FF45043C4F204034FF06C
S32D000116E000021A604FF45043C4F204034FF000025A604FF45043C4F204034FF000029A604FF45043C4F2040370
S32D000117084FF00002DA604FF45043C4F204034FF000021A614FF45043C4F204034FF000025A61FB6A9A68BB6BCC
S32D000117301B6810461946FFF719FA4FF45043C4F2040340F243421A604FF45043C4F2040340F243425A604FF43E
S32D000117585043C4F204034FF488629A604FF45043C4F2040340F24342DA604FF45043C4F2040340F243421A61A2
S32D000117804FF45043C4F2040340F243425A614FF4E043C4F204034FF4E042C4F2040202F5805202F13002126889
S32D000117A842F4003203F5805303F130031A6096E140F60A23FB6392E1BB6B002B03D14FF00C03FB638BE14FF413
S32D000117D08053C4F20B035B684FEAC3434FEAD343BA6B13607FE1BB6B002B03D14FF00C03FB6378E1FFF742FBAD
S32D000117F80346002B14BF00230123DBB2002B2AD0BB6B1A6840F6FF739A4203D94FF00C03FB6364E14FF4805373
S32D00011820C4F20B034FF48052C4F20B02526822F4FE5222F03F025A604FF48053C4F20B034FF48052C4F20B021E
S32D0001184852681146BA6B12684FEAC2424FEAD2420A435A6043E140F60A23FB633FE1BB6B002B03D14FF00C03B8
S32D00011870FB6338E14FF48053C4F20B039B6A03F006034FEA53033B643B6C002B04D1BB6B4FF000021A6026E13A
S32D000118983B6C012B04D1BB6B4FF001021A601EE13B6C102B04D1BB6B4FF002021A6016E14FF00503FB6312E16F
S32D000118C0BB6B002B03D14FF00C03FB630BE1FFF7D5FA0346002B14BF00230123DBB2002B56D0BB6B1B68002B37
S32D000118E816D14FF48053C4F20B034FF48052C4F20B02926A22F006029A624FF48053C4F20B034FF48052C4F281
S32D000119100B02926A9A62E6E0BB6B1B68012B18D14FF48053C4F20B034FF48052C4F20B02926A22F006029A625B
S32D000119384FF48053C4F20B034FF48052C4F20B02926A42F002029A62C9E0BB6B1B68022B16D14FF48053C4F26E
S32D000119600B034FF48052C4F20B02926A22F006029A624FF48053C4F20B034FF48052C4F20B02926A9A62AEE028
S32D000119884FF00503FB63AAE040F60A23FB63A6E0BB6B002B03D14FF00C03FB639FE04FF48053C4F20B034FF44D
S32D000119B08052C4F20B02D26A42F00062DA624FF48053C4F20B03DB6A03F00063002B0CBF00230123DBB2002BFD
S32D000119D8F1D14FF48053C4F20B031B6B03F08003002B0CBF00230123DBB2002B0FD04FF48053C4F20B034FF457
S32D00011A008052C4F20B02126B42F080021A637B6B4FF000021A604FF48053C4F20B035B6A03F48033002B0CBF94
S32D00011A2800230123DBB2002B08D07B6B1B68002B08D17B6B4FF001021A6003E07B6B4FF000021A607B6B1A68BD
S32D00011A50BB6B1A6047E0BB6B4FF01C021A60BB6B03F104034FF004021A60BB6B03F108034FF41E721A6036E03B
S32D00011A784FF00200FFF712FA4FF48053C4F20B031B6B03F4E003002B0CBF00230123DBB2002B0ED04FF48053D9
S32D00011AA0C4F20B034FF48052C4F20B02126B42F4E0021A634FF00403FB634FF48053C4F20B034FF48052C4F220
S32D00011AC80B02126B42F032021A6308E040F60923FB6304E000BF02E000BF00E000BFFB6B184607F14807BD46E9
S32D00011AF080BD00BF80B489B000AF786039607B687B6141F20423C1F6FF733B613B69002B02D14FF0000381E01B
S32D00011B183B691B68022B0BD03B691B68032B07D03B691B68072B03D03B691B68082B0DD14FF48053C4F20B0305
S32D00011B405B6A03F00403002B0CBF00230123DBB2002BF1D13B68FB6156E0FB69B3F5007F28BF4FF40073FB6048
S32D00011B68FB6803F103034FEA9303BB613CE04FF48053C4F20B031B6B03F4E003002B0CBF00230123DBB2002BBB
S32D00011B9010D04FF48053C4F20B034FF48052C4F20B02126B42F4E00242F020021A634FF0000333E04FF48053C3
S32D00011BB8C4F20B035B6A03F40063002B14BF00230123DBB2002BF1D14FF48053C4F20B031B6A1A467B691A603F
S32D00011BE07B6903F104037B61BB6903F1FF33BB61BB69002B0CBF00230123DBB2002BBAD1FA69FB68D31AFB6102
S32D00011C08FB69002B0CBF00230123DBB2002BA0D14FF00103184607F12407BD4680BC704780B58EB000AFB960EE
S32D00011C307A600246FA73BB7341F2F013C1F6FF737B63FB7B002B02D1BB7B002B02D14FF0040381E040F23C438B
S32D00011C58C1F6FF731B78DBB203F00103DBB2002B02D04FF0030373E0BB68002B02D14FF000036DE07B6B1B7BCF
S32D00011C80002B03D17B684FEA43237B60BB7B012B2CD14FF011033B754FF000037B757B68BB614FF001033B7751
S32D00011CA8BB7B3B6207F1140341F202301946FFF761FA0346002B14BF00230123DBB2002B3ED0B8684FF40071EE
S32D00011CD0FFF710FF0346002B0CBF00230123DBB2002B31D04FF00003BB732DE04FF012033B754FF000037B75EE
S32D00011CF87B68BB614FF001033B77BB7B3B6207F1140341F202301946FFF734FA0346002B14BF00230123DBB2E4
S32D00011D20002B11D0BB7B4FEA4323B8681946FFF7E1FE0346002B0CBF00230123DBB2002B02D04FF00003BB73DF
S32D00011D48BB7B002B02D04FF0010301E04FF00003184607F13807BD4680BD00BF80B487B000AF786039607B68D1
S32D00011D70FB603B687B6155E07B69B3F5007F28BF4FF400733B617A693B69D31A7B613B6903F103034FEA930334
S32D00011D983B613BE04FF48053C4F20B031B6B03F4E003002B0CBF00230123DBB2002B10D04FF48053C4F20B037C
S32D00011DC04FF48052C4F20B02126B42F4E00242F010021A634FF0FF332EE04FF48053C4F20B035B6A03F48063CE
S32D00011DE8002B14BF00230123DBB2002BF1D14FF48053C4F20B03FA6812681A62FB6803F10403FB603B6903F18A
S32D00011E10FF333B613B69002B0CBF00230123DBB2002BBBD17B69002B0CBF00230123DBB2002BA1D14FF0010322
S32D00011E38184607F11C07BD4680BC704780B58EB000AFB9607A600246FA73BB7341F2F013C1F6FF737B63FB7B61
S32D00011E60002B02D1BB7B002B02D14FF00403CAE040F23C43C1F6FF731B78DBB203F00103DBB2002B02D04FF077
S32D00011E880303BCE040F23C43C1F6FF731B78DBB203F00403002B0CBF00230123DBB2002B02D04FF00203AAE000
S32D00011EB0BB68002B02D14FF00003A4E07B6B1B7B002B03D17B684FEA43237B60BB7B012B2CD14FF018033B75DB
S32D00011ED84FF000037B757B68BB614FF000033B77BB7B3B6207F1140341F202301946FFF741F90346002B14BF99
S32D00011F0000230123DBB2002B3ED0B8684FF40071FFF728FF0346002B0CBF00230123DBB2002B31D04FF0000333
S32D00011F28BB732DE04FF019033B754FF000037B757B68BB614FF000033B77BB7B3B6207F1140341F20230194679
S32D00011F50FFF714F90346002B14BF00230123DBB2002B11D0BB7B4FEA4323B8681946FFF7F9FE0346002B0CBFB8
S32D00011F7800230123DBB2002B02D04FF00003BB734FF00D033B754FF000037B757B6B1B69BB614FF000033B774E
S32D00011FA04FF000033B6207F1140341F202301946FFF7E4F80346002B0CBF00230123DBB2002B02D04FF001033B
S32D00011FC81DE07A6A48F20803CFF6D9731340002B02D04FF0010312E07B6A03F4F853B3F5106F0CBF00230123CE
S32D00011FF0DBB2002BC8D1BB7B002B02D04FF0010301E04FF00003184607F13807BD4680BD80B58CB000AF0B4692
S32D000120183A600246FA71BB7141F2F013C1F6FF73BB62FB79002B02D04FF004037AE04FF0010387F82F3040F240
S32D000120403C43C1F6FF731B78DBB203F00103DBB2002B02D04FF0030368E0BB79032B5FD801A252F823F000BF43
S32D00012068792001008320010095200100A72001004FF0000387F82F3052E0BB6A9A683B681A604FF0000387F836
S32D000120902F3049E03B684FF400721A804FF0000387F82F3040E04FF009033B724FF000037B72BB6A1B69FB603C
S32D000120B84FF000033B744FF000037B6107F1080341F202301946FFF755F80346002B0CBF00230123DBB2002BA2
S32D000120E002D04FF0010321E07B6A03F44003002B11D13B6A4FEA934303F07F0303F101027B6A4FEA132303F028
S32D00012108030303F1FF3302FA03F23B681A604FF0000387F82F3003E04FF0040387F82F3097F82F30184607F103
S32D000121303007BD4680BD00BF80B483B000AF0346FB71FB79002B02D04FF0010305E040F23C43C1F6FF731B7879
S32D00012158DBB2184607F10C07BD4680BC704700BF80B483B000AF78604FF4E043C4F204034FF4E042C4F204027B
S32D0001218002F5805202F13802126842F0010203F5805303F138031A604FF00003C4F204037A689A604FF00003FA
S32D000121A8C4F204034FF005025A604FF00003C4F204034FF00002C4F20402126842F001021A6000BF4FF0000325
S32D000121D0C4F204031B6803F08003002B14BF00230123DBB2002BF1D14FF00003C4F204034FF00002C4F204026F
S32D000121F8126822F001021A6007F10C07BD4680BC704700BF80B582B000AF786039607B68012B0AD13A684FF697
S32D00012220FF739A4205D141F21040C1F6FF7000F00FF807F10807BD4680BD00BF80B500AF4FF001004FF6FF71EC
S32D00012248FFF7E0FF80BD00BF80B483B000AF78607B684FF000021A707B68184607F10C07BD4680BC704700BFF9
S32D0001227080B582B000AF78607B681B7883F00103DBB2002B36D04FF4E043C4F2040303F5805303F128034FF456
S32D0001229800621A604FF45043C4F204034FF440721A624FF45043C4F204034FF440725A6241F21443C1F6FF7340
S32D000122C01B684FEAD372D3184FEA63034FF43040C4F20E0019464FF46142FEF78DF84FF0640000F0ADF87B6813
S32D000122E84FF001021A704FF0010301E04FF00003184607F10807BD4680BD00BF80B582B000AF7860F970BA70B0
S32D000123107B704FF43040C4F20E004FF07F01FEF78BF94FF43040C4F20E004FF00801FEF783F9FB784FF43040AE
S32D00012338C4F20E001946FEF77BF9BB784FF43040C4F20E001946FEF773F97B784FF43040C4F20E001946FEF7C2
S32D000123606BF94FF43040C4F20E004FF0FF01FEF763F907F10807BD4680BD00BF80B487B000AFF860B9607A6078
S32D00012388FA6844F6D353C1F26203A3FB02134FEA9312BB68D3187B61FA6844F6D353C1F26203A3FB02134FEA0B
S32D000123B093134FF47A7101FB03F3D31AFB60FB684FEAC33244F6D353C1F26203A3FB02134FEA93127B68D31888
S32D000123D83B613B694FEAD3337A69D3187B613B694FEA43434FEA53433B614FF45043C4F203031B681A467B6986
S32D000124009A4211D34FF45043C4F203031B681A467B699A420BD14FF45043C4F203035B681A463B699A4202D2D3
S32D000124284FF0010301E04FF00003002BDDD107F11C07BD4680BC704780B584B000AF78604FF45043C4F20303B3
S32D000124501B68FB604FF45043C4F203035B68BB607B681846F968BA68FFF788FF07F11007BD4680BD000000007F
S32D0001247880B584B000AFC7E900014FF45043C4F203031B68FB604FF45043C4F203035B68BB60D7E900010AA31E
S32D000124A0D3E90023FAF76CF902460B4610461946FAF728FC03461846F968BA68FFF75EFF07F11007BD4680BDA9
S32D000124C80000000000408F4080B584B000AF4FF45043C4F203031B68FB604FF45043C4F203035B68BB60F8687E
S32D000124F0FAF7D0F802460B46C7E90023B868FAF7C9F802460B46104619464FF000024FF0804303F56003FAF7E9
S32D000125185DFA02460B46D7E90001F9F77BFF02460B46C7E90023D7E900231046194607F11007BD4680BD00BF67
S32D0001254080B483B000AF4FF45043C4F203031B684FF47A7202FB03F37B604FF45043C4F203035B684FF47A72C0
S32D0001256802FB03F34FEAD3337A68D3187B607B68184607F10C07BD4680BC704780B584B000AF78600B46FB707C
S32D000125904FF00B03FB73FA78FB7B786811461A4600F0ECF87B68184607F11007BD4680BD80B485B000AF78608E
S32D000125B87B68A3F11003002B01DA03F11F034FEA6313FB60FB68012B48D0022B00F08980002B40F0C9804FF490
S32D000125E06142CEF200024FF46143CEF20003D3F8803119467B68A3F110004FF01F03C8F200030340002B05DAF0
S32D0001260803F1FF3363F01F0303F101034FF0010000FA03F30B43C2F880314FF46142CEF200024FF46143CEF2D8
S32D0001263000031B6819467B68A3F110004FF01F03C8F200030340002B05DA03F1FF3363F01F0303F101034FF0D2
S32D00012658010000FA03F30B43136085E04FF46142CEF200024FF46143CEF20003D3F8843119467B68A3F1100084
S32D000126804FF01F03C8F200030340002B05DA03F1FF3363F01F0303F101034FF0010000FA03F30B43C2F8843140
S32D000126A84FF46142CEF200024FF46143CEF200035B6819467B68A3F110004FF01F03C8F200030340002B05DA9D
S32D000126D003F1FF3363F01F0303F101034FF0010000FA03F30B43536042E04FF46142CEF200024FF46143CEF2A6
S32D000126F80003D3F8883119467B68A3F110004FF01F03C8F200030340002B05DA03F1FF3363F01F0303F1010348
S32D000127204FF0010000FA03F30B43C2F888314FF46142CEF200024FF46143CEF200039B6819467B68A3F110005E
S32D000127484FF01F03C8F200030340002B05DA03F1FF3363F01F0303F101034FF0010000FA03F30B43936000BF34
S32D0001277007F11407BD4680BC704700BF80B584B000AF786013460A46FA70BB707B68FA781A70BB78FB737B68E1
S32D000127981B781A4649F2D063C0F201039B5C042B00F2F68001A252F823F000BFC92701003D280100B12801007D
S32D000127C099290100252901004FF41043C4F204037A681278114649F21472C0F2010252F82110FA7B4FEA0242DF
S32D000127E802F4702242F4887242F0030243F821204FF47043C4F20F034FF47042C4F20F02526911467A6812785F
S32D00012810104649F21472C0F2010252F8202002F01F024FF0010000FA02F26FEA02020A405A614FF06700FFF704
S32D00012838BBFEADE04FF42043C4F204037A681278114649F21472C0F2010252F82110FA7B4FEA024202F470229A
S32D0001286042F4887242F0030243F821204FF24003C4F20F034FF24002C4F20F02526911467A681278104649F2C1
S32D000128881472C0F2010252F8202002F01F024FF0010000FA02F26FEA02020A405A614FF06800FFF781FE73E04A
S32D000128B04FF43043C4F204037A681278114649F21472C0F2010252F82110FA7B4FEA024202F4702242F4887228
S32D000128D842F0030243F821204FF28003C4F20F034FF28002C4F20F02526911467A681278104649F21472C0F2C1
S32D00012900010252F8202002F01F024FF0010000FA02F26FEA02020A405A614FF06900FFF747FE39E04FF45043A6
S32D00012928C4F204037A681278114649F21472C0F2010252F82110FA7B4FEA024202F4702242F4887242F003022E
S32D0001295043F821204FF47143C4F20F034FF47142C4F20F02526911467A681278104649F21472C0F2010252F8CC
S32D00012978202002F01F024FF0010000FA02F26FEA02020A405A614FF06B00FFF70DFE00BF07F11007BD4680BD94
S32D000129A0B0B48BB000AF49F2E023C0F2010307F104041D460FCD0FC495E80F0084E80F004FF000037B6248E066
S32D000129C84FF42043C4F20403D3F8A0301A467B6A4FEA830307F12800C31853F8243C4FF0010101FA03F31340B3
S32D000129F0002B0CBF00230123DBB2002B29D041F24043C1F6FF737A6A53F8223003F1010141F24043C1F6FF7395
S32D00012A187A6A43F822104FF42043C4F204034FF42042C4F20402D2F8A02011467A6A4FEA820207F1280082183E
S32D00012A4052F8242C4FF0010000FA02F20A40C3F8A0207B6A03F101037B627B6A072BCCBF00230123DBB2002B7F
S32D00012A68AED107F12C07BD46B0BC7047B0B489B000AF49F20033C0F2010307F104041D460FCD0FC495E803006D
S32D00012A9084E803004FF00003FB6149E04FF43043C4F20403D3F8A0301A46FB694FEA830307F12000C31853F812
S32D00012AB81C3C4FF0010101FA03F31340002B0CBF00230123DBB2002B2AD0FB6903F1080241F24043C1F6FF73E2
S32D00012AE053F8223003F1010141F24043C1F6FF7343F822104FF43043C4F204034FF43042C4F20402D2F8A0207A
S32D00012B081146FA694FEA820207F12000821852F81C2C4FF0010000FA02F20A40C3F8A020FB6903F10103FB6138
S32D00012B30FB69052BCCBF00230123DBB2002BADD107F12407BD46B0BC704700BFB0B48DB000AF49F21833C0F24A
