S01600002E2E2F526F626F7450726F6A6563742E73313976
S32D0000C000000000200DF6000069F9000069F9000069F9000069F9000069F9000000000000000000000000000005
S32D0000C0280000000069F9000069F900000000000069F9000069F9000069F9000069F9000069F9000069F90000DA
S32D0000C05069F9000069F9000069F9000069F9000069F9000069F9000069F9000069F9000069F9000069F90000EE
S32D0000C07869F9000069F9000069F9000069F9000069F9000069F9000069F9000069F9000069F9000069F90000C6
S32D0000C0A069F9000069F9000069F9000069F9000069F9000069F9000069F9000069F9000069F9000069F900009E
S32D0000C0C869F9000069F9000069F9000069F9000069F9000069F9000069F9000069F9000069F9000069F9000076
S32D0000C0F069F900008965010069F9000069F9000069F9000069F9000069F9000069F9000069F9000069F90000C1
S32D0000C11869F9000069F9000069F9000069F9000069F9000069F9000069F9000069F9000069F9000069F9000025
S32D0000C14069F9000069F9000069F9000069F900000D2E010069F9000069F9000069F9000069F9000069F9000023
S32D0000C16869F9000069F9000069F9000069F9000069F9000069F9000069F9000069F9000069F9000069F90000D5
S32D0000C19069F9000069F9000069F900006D280100C126010095270100B9F900004529010069F9000069F900003B
S32D0000C1B869F9000069F9000069F9000069F9000069F9000069F9000069F9000069F9000069F9000069F9000085
S32D0000C41081F0004102E000BF83F0004330B54FEA41044FEA430594EA050F08BF90EA020F1FBF54EA000C55EAC6
S32D0000C438020C7FEA645C7FEA655C00F0E2804FEA5454D4EB5555B8BF6D420CDD2C4480EA020281EA030382EA0F
S32D0000C460000083EA010180EA020281EA0303362D88BF30BD11F0004F4FEA01314FF4801C4CEA113102D0404263
S32D0000C48861EB410113F0004F4FEA03334CEA133302D0524263EB430394EA050F00F0A780A4F10104D5F1200E8A
S32D0000C4B00DDB02FA0EFC22FA05F2801841F1000103FA0EF2801843FA05F359410EE0A5F120050EF1200E012A2D
S32D0000C4D803FA0EFC28BF4CF0020C43FA05F3C01851EBE37101F0004507D54FF0000EDCF1000C7EEB00006EEB67
S32D0000C5000101B1F5801F1BD3B1F5001F0CD349085FEA30004FEA3C0C04F101044FEA445212F5800F80F09A8000
S32D0000C528BCF1004F08BF5FEA500C50F1000041EB045141EA050130BD5FEA4C0C404141EB010111F4801FA4F114
S32D0000C5500104E9D191F0000F04BF01460020B1FA81F308BF2033A3F10B03B3F120020CDA0C3208DD02F1140C87
S32D0000C578C2F10C0201FA0CF021FA02F10CE002F11402D8BFC2F1200C01FA02F120FA0CFCDCBF41EA0C019040B1
S32D0000C5A0E41AA2BF01EB0451294330BD6FEA04041F3C1CDA0C340EDC04F11404C4F1200220FA04F001FA02F3B6
S32D0000C5C840EA030021FA04F345EA030130BDC4F10C04C4F1200220FA02F001FA04F340EA0300294630BD21FAA8
S32D0000C5F004F0294630BD94F0000F83F4801306BF81F480110134013D4EE77FEA645C18BF7FEA655C29D094EA1C
S32D0000C618050F08BF90EA020F05D054EA000C04BF1946104630BD91EA030F1EBF0021002030BD5FEA545C05D1A3
S32D0000C6404000494128BF41F0004130BD14F580043CBF01F5801130BD01F0004545F0FE4141F470014FF0000031
S32D0000C66830BD7FEA645C1ABF194610467FEA655C1CBF0B46024650EA013406BF52EA033591EA030F41F40021D7
S32D0000C69030BD00BF90F0000F04BF0021704730B54FF4806404F132044FF000054FF0000150E700BF90F0000F66
S32D0000C6B804BF0021704730B54FF4806404F1320410F0004548BF40424FF000013EE700BF42004FEAE2014FEAF9
S32D0000C6E031014FEA02701FBF12F07F4393F07F4F81F06051704792F0000F14BF93F07F4F704730B54FF460741B
S32D0000C70801F0004521F0004120E700BF50EA010208BF704730B54FF000050AE050EA010208BF704730B511F046
S32D0000C730004502D5404261EB41014FF4806404F132045FEA915C3FF4DCAE4FF003025FEADC0C18BF03325FEAA0
S32D0000C758DC0C18BF033202EBDC02C2F1200300FA03FC20FA02F001FA03FE40EA0E0021FA02F11444C1E600BF19
S32D0000C78070B54FF0FF0C4CF4E06C1CEA11541DBF1CEA135594EA0C0F95EA0C0F00F0DEF82C4481EA030621EAF3
S32D0000C7A84C5123EA4C5350EA013518BF52EA033541F4801143F4801338D0A0FB02CE4FF00005E1FB02E506F05F
S32D0000C7D00042E0FB03E54FF00006E1FB03569CF0000F18BF4EF0010EA4F1FF04B6F5007F64F5407404D25FEA0F
S32D0000C7F84E0E6D4146EB060642EAC62141EA55514FEAC52040EA5E504FEACE2EB4F1FD0C88BFBCF5E06F1ED8D2
S32D0000C820BEF1004F08BF5FEA500E50F1000041EB045170BD06F0004646EA010140EA020081EA0301B4EB5C0487
S32D0000C848C2BFD4EB0C0541EA045170BD41F480114FF0000E013C00F3AB8014F1360FDEBF002001F0004170BDF0
S32D0000C870C4F10004203C35DA0C341BDC04F11404C4F1200500FA05F320FA04F001FA05F240EA020001F0004207
S32D0000C89821F0004110EBD37021FA04F642EB06015EEA430E08BF20EAD37070BDC4F10C04C4F1200500FA04F32F
S32D0000C8C020FA05F001FA04F240EA020001F0004110EBD37041F100015EEA430E08BF20EAD37070BDC4F12005C7
S32D0000C8E800FA05F24EEA020E20FA04F301FA05F243EA020321FA04F001F0004121FA04F220EA020000EBD37028
S32D0000C9105EEA430E08BF20EAD37070BD94F0000F0FD101F00046400041EB010111F4801F08BF013CF7D041EA6D
S32D0000C938060195F0000F18BF704703F00046520043EB030313F4801F08BF013DF7D043EA0603704794EA0C0FF1
S32D0000C9600CEA135518BF95EA0C0F0CD050EA410618BF52EA4306D1D181EA030101F000414FF0000070BD50EA38
S32D0000C988410606BF1046194652EA430619D094EA0C0F02D150EA013613D195EA0C0F05D152EA03361CBF10467B
S32D0000C9B019460AD181EA030101F0004141F0FE4141F470014FF0000070BD41F0FE4141F4780170BD70B54FF04D
S32D0000C9D8FF0C4CF4E06C1CEA11541DBF1CEA135594EA0C0F95EA0C0F00F0A7F8A4EB050481EA030E52EA03359B
S32D0000CA004FEA013100F088804FEA03334FF0805545EA131343EA12634FEA022245EA111545EA10654FEA002676
S32D0000CA280EF000419D4208BF964244F1FD0404F5407402D25B084FEA3202B61A65EB03055B084FEA32024FF461
S32D0000CA5080104FF4002CB6EB020E75EB030E22BFB61A754640EA0C005B084FEA3202B6EB020E75EB030E22BF22
S32D0000CA78B61A754640EA5C005B084FEA3202B6EB020E75EB030E22BFB61A754640EA9C005B084FEA3202B6EBEA
S32D0000CAA0020E75EB030E22BFB61A754640EADC0055EA060E18D04FEA051545EA16754FEA06164FEAC30343EAAC
S32D0000CAC852734FEAC2025FEA1C1CC0D111F4801F0BD141EA00014FF000004FF0004CB6E711F4801F04BF0143AE
S32D0000CAF00020B4F1FD0C88BFBCF5E06F3FF6AFAEB5EB030C04BFB6EB020C5FEA500C50F1000041EB045170BDBC
S32D0000CB180EF0004E4EEA113114EB5C04C2BFD4EB0C0541EA045170BD41F480114FF0000E013C90E645EA060EC3
S32D0000CB408DE60CEA135594EA0C0F08BF95EA0C0F3FF43BAF94EA0C0F0AD150EA01347FF434AF95EA0C0F7FF499
S32D0000CB6825AF104619462CE795EA0C0F06D152EA03353FF4FDAE1046194622E750EA410618BF52EA43067FF432
S32D0000CB90C5AE50EA41047FF40DAF52EA43057FF4EBAE12E74FF0FF3C06E000BF4FF0010C02E000BF4FF0010C75
S32D0000CBB84DF804CD4FEA410C7FEA6C5C4FEA430C18BF7FEA6C5C1BD001B050EA410C0CBF52EA430C91EA030FEC
S32D0000CBE002BF90EA020F0020704710F1000F91EA030F58BF994208BF90422CBFD8176FEAE37040F0010070476E
S32D0000CC084FEA410C7FEA6C5C02D150EA013C07D14FEA430C7FEA6C5CD6D152EA033CD3D05DF8040B704700BFCD
S32D0000CC308446104662468C461946634600E000BF01B5FFF7B7FF002848BF10F1000F01BD4DF808EDFFF7F4FF13
S32D0000CC580CBF012000205DF808FB00BF4DF808EDFFF7EAFF34BF012000205DF808FB00BF4DF808EDFFF7E0FF18
S32D0000CC8094BF012000205DF808FB00BF4DF808EDFFF7CEFF94BF012000205DF808FB00BF4DF808EDFFF7C4FF40
S32D0000CCA834BF012000205DF808FB00BF4FEA410212F5001215D211D56FF47873B3EB625212D94FEAC12343F0D6
S32D0000CCD0004343EA505311F0004F23FA02F018BF404270474FF00000704750EA013005D111F0004008BF6FF016
S32D0000CCF8004070474FF00000704700BF4A0011D212F5001211D20DD56FF47873B3EB62520ED44FEAC12343F085
S32D0000CD20004343EA505323FA02F070474FF00000704750EA013002D14FF0FF3070474FF0000070474FEA410241
S32D0000CD48B2F1E04324BFB3F5001CDCF1FE5C0DD901F0004C4FEAC0024CEA5070B2F1004F40EB830008BF20F09E
S32D0000CD700100704711F0804F21D113F13872BCBF01F00040704741F480114FEA5252C2F11802C2F1200C10FAB1
S32D0000CD980CF320FA02F018BF40F001004FEAC1234FEAD32303FA0CFC40EA0C0023FA02F34FEA4303CCE77FEA26
S32D0000CDC0625307D150EA01331EBF4FF0FE4040F44000704701F0004040F0FE4040F40000704700BF80F00040CC
S32D0000CDE802E000BF81F0004142001FBF5FEA410392EA030F7FEA226C7FEA236C6AD04FEA1262D2EB1363C1BF06
S32D0000CE10D218414048404140B8BF5B42192B88BF704710F0004F40F4000020F07F4018BF404211F0004F41F4FA
S32D0000CE38000121F07F4118BF494292EA030F3FD0A2F1010241FA03FC10EB0C00C3F1200301FA03F100F000432B
S32D0000CE6002D5494260EB4000B0F5000F13D3B0F1807F06D340084FEA310102F10102FE2A51D2B1F1004F40EB94
S32D0000CE88C25008BF20F0010040EA03007047490040EB000010F4000FA2F10102EDD1B0FA80FCACF1080CB2EB5F
S32D0000CEB00C0200FA0CF0AABF00EBC25052421843BCBFD0401843704792F0000F81F4000106BF80F400000132EB
S32D0000CED8013BB5E74FEA41037FEA226C18BF7FEA236C21D092EA030F04D092F0000F08BF0846704790EA010FD7
S32D0000CF001CBF0020704712F07F4F04D1400028BF40F00040704712F100723CBF00F50000704700F0004343F0DC
S32D0000CF28FE4040F4000070477FEA226216BF08467FEA23630146420206BF5FEA412390EA010F40F480007047C1
S32D0000CF504FF0000304E000BF10F0004348BF40425FEA000C08BF704743F0964301464FF000001CE050EA010264
S32D0000CF7808BF70474FF000030AE000BF50EA010208BF704711F0004302D5404261EB41015FEA010C02BF84465B
S32D0000CFA00146002043F0B64308BFA3F18053A3F50003BCFA8CF2083AA3EBC25310DB01FA02FC634400FA02FC6B
S32D0000CFC8C2F12002BCF1004F20FA02F243EB020008BF20F00100704702F1200201FA02FCC2F1200250EA4C0034
S32D0000CFF021FA02F243EB020008BF20EADC7070474FF0FF0C1CEAD0521EBF1CEAD15392EA0C0F93EA0C0F6FD019
S32D0000D0181A4480EA010C400218BF5FEA41211ED04FF0006343EA501043EA5111A0FB01310CF00040B1F5000FE7
S32D0000D0403EBF490041EAD3715B0040EA010062F17F02FD2A1DD8B3F1004F40EBC25008BF20F00100704790F058
S32D0000D068000F0CF0004C08BF49024CEA502040EA51207F3AC2BFD2F1FF0340EAC250704740F400004FF0000388
S32D0000D090013A5DDC12F1190FDCBF00F000407047C2F10002410021FA02F1C2F1200200FA02FC5FEA310040F1D5
S32D0000D0B8000053EA4C0308BF20EADC70704792F0000F00F0004C02BF400010F4000F013AF9D040EA0C0093F04C
S32D0000D0E0000F01F0004C02BF490011F4000F013BF9D041EA0C018FE70CEAD15392EA0C0F18BF93EA0C0F0AD00B
S32D0000D10830F0004C18BF31F0004CD8D180EA010000F00040704790F0000F17BF90F0004F084691F0000F91F0BB
S32D0000D130004F14D092EA0C0F01D142020FD193EA0C0F03D14B0218BF084608D180EA010000F0004040F0FE4051
S32D0000D15840F40000704740F0FE4040F4400070474FF0FF0C1CEAD0521EBF1CEAD15392EA0C0F93EA0C0F69D044
S32D0000D180A2EB030280EA010C49024FEA402037D04FF0805343EA111143EA10130CF000408B4238BF5B0042F14E
S32D0000D1A87D024FF4000C8B4224BF5B1A40EA0C00B3EB510F24BFA3EB510340EA5C00B3EB910F24BFA3EB9103A4
S32D0000D1D040EA9C00B3EBD10F24BFA3EBD10340EADC001B0118BF5FEA1C1CE0D1FD2A3FF650AF8B4240EBC25018
S32D0000D1F808BF20F0010070470CF0004C4CEA50207F32C2BFD2F1FF0340EAC250704740F400004FF00003013AF1
S32D0000D22037E792F0000F00F0004C02BF400010F4000F013AF9D040EA0C0093F0000F01F0004C02BF490011F4C9
S32D0000D248000F013BF9D041EA0C0195E70CEAD15392EA0C0F08D142027FF47DAF93EA0C0F7FF470AF084676E7AE
S32D0000D27093EA0C0F04D14B023FF44CAF08466EE730F0004C18BF31F0004CCAD130F000427FF45CAF31F0004376
S32D0000D2987FF43CAF5FE700BF4FF0FF3C06E000BF4FF0010C02E000BF4FF0010C4DF804CD4FEA40024FEA41039F
S32D0000D2C07FEA226C18BF7FEA236C11D001B052EA530C18BF90EA010F58BFB2EB030088BFC81738BF6FEAE1706E
S32D0000D2E818BF40F0010070477FEA226C02D15FEA402C05D17FEA236CE4D15FEA412CE1D05DF8040B704700BF16
S32D0000D310844608466146FFE70FB5FFF7C9FF002848BF10F1000F0FBD4DF808EDFFF7F4FF0CBF012000205DF839
S32D0000D33808FB00BF4DF808EDFFF7EAFF34BF012000205DF808FB00BF4DF808EDFFF7E0FF94BF012000205DF8A9
S32D0000D36008FB00BF4DF808EDFFF7D2FF94BF012000205DF808FB00BF4DF808EDFFF7C8FF34BF012000205DF8B1
S32D0000D38808FB00BF4FEA4002B2F1FE4F0FD34FF09E03B3EB12620DD94FEA002343F0004310F0004F23FA02F060
S32D0000D3B018BF404270474FF00000704712F1610F01D1420205D110F0004008BF6FF0004070474FF00000704797
S32D0000D3D880B483B000AF78607B6823F00043184607F10C07BD4680BC704700BF80B500AF41F27010C1F6FF7025
S32D0000D40005F01CFB41F26C10C1F6FF7005F016FB80BD00BF84B080B582B002AF07F1080C8CE80F0041F2CC4001
S32D0000D428C1F6FF7006F0BCFCBB6841F2CC40C1F6FF7019464FF001024FF0780306F090FFFB6841F2CC40C1F641
S32D0000D450FF7019464FF002024FF0780306F084FF3B6941F2CC40C1F6FF7019464FF003024FF0780306F078FF97
S32D0000D4787B6941F2CC40C1F6FF7019464FF004024FF0780306F06CFFBB6941F2CC40C1F6FF7019464FF0050250
S32D0000D4A04FF0780306F060FF41F2CC40C1F6FF7048F68471C0F201014FF006024FF0000306F032FFD7E9082368
S32D0000D4C84FF0060100914FF07801019141F2CC40C1F6FF7006F084FF41F2CC40C1F6FF7048F68C71C0F20101E3
S32D0000D4F04FF007024FF0000306F016FFD7E90A234FF0070100914FF07801019141F2CC40C1F6FF7006F068FFA8
S32D0000D51841F2CC40C1F6FF7048F69471C0F201014FF008024FF0000306F0FAFED7E90C234FF0080100914FF009
S32D0000D5407801019141F2CC40C1F6FF7006F04CFF41F2CC40C1F6FF7048F6A471C0F201014FF009024FF0000314
S32D0000D56806F0DEFED7E90E234FF0090100914FF07801019141F2CC40C1F6FF7006F030FF41F2CC40C1F6FF70BF
S32D0000D59048F6B071C0F201014FF00A024FF0000306F0C2FED7E910234FF00A0100914FF07801019141F2CC40C0
S32D0000D5B8C1F6FF7006F014FF41F2CC40C1F6FF7048F6B871C0F201014FF00C024FF0000306F0A6FE3B6D41F292
S32D0000D5E0CC40C1F6FF7019464FF00C024FF0780306F0DAFEBD46BDE8804004B0704700BF98B500AF41F2641082
S32D0000D608C1F6FF70174902F0AFFA41F25C10C1F6FF70154902F0A8FA00BF41F23450C1F6FF700AF07BFA0346C8
S32D0000D6304FF00102144618460E49FFF793FE0346002B02D14FF000031C46E3B2002BE8D141F26410C1F6FF70C3
S32D0000D65802F03AFA41F25C10C1F6FF7002F034FA98BD00BF0000964200008C42000080BFF0B5A7B010AFC7E935
S32D0000D68002017A60D7E902014FF000024FF0804303F51013FFF79EF902460B46104619466FA3D3E90023FFF7BC
S32D0000D6A86BF802460B4610461946FFF7FFFA03463B644FF000037B657868FEF7F7FF02460B46C7E912237B687E
S32D0000D6D0002B0ADD7B6803F102031846FEF7EAFF02460B46C7E9122309E07B6803F1FF331846FEF7DFFF024619
S32D0000D6F80B46C7E912234FF00003FB634FF000037B644FF00003BB634FF000037B634FF000024FF0804303F552
S32D0000D720C803C7E90A2350A3D3E90023C7E9082341F27010C1F6FF7005F080F941F26C10C1F6FF7005F07AF902
S32D0000D7481AE17868FFF704FC034641F26410C1F6FF70194602F008FAD7E91201FFF7EEFA034641F25C10C1F629
S32D0000D770FF70194602F0FCF941F27010C1F6FF7005F048F9044641F26C10C1F6FF7005F041F90346E31AFB63D5
S32D0000D798F86BFEF78BFF02460B4610461946D7E90A23FFF713F902460B46C7E90623FA6B7B6CD31A1846FEF746
S32D0000D7C079FF02460B4610461946D7E90823FEF7D7FF02460B46C7E904237B68002B10DDD7E90601D7E90423A6
S32D0000D7E8FEF718FE02460B46D7E91201FEF712FE02460B46C7E912230FE0D7E90601D7E90423FEF707FE02463A
S32D0000D8100B46D7E91201FEF7FFFD02460B46C7E912234FF001031C46D7E912014FF000024FF0404303F5B2032F
S32D0000D838FFF714FA0346002B02D14FF000031C46E3B2002B10D04FF000024FF0404303F5B203C7E9122325E099
S32D0000D86000000000004044409A9999999999C93F4FF001031C46D7E912014FF000024FF0804303F5B203FFF7D9
S32D0000D8880BFA0346002B02D14FF000031C46E3B2002B07D04FF000024FF0804303F5B203C7E9122341F2701063
S32D0000D8B0C1F6FF7005F0AEF803467B6541F27010C1F6FF7005F0A6F8024641F29813C1F6FF731A6041F26C107C
S32D0000D8D8C1F6FF7005F09AF8024641F29813C1F6FF735A6041F29813C1F6FF733A6C1A6141F29813C1F6FF733D
S32D0000D9007A689A60D7E91201FFF7D4F9024641F29813C1F6FF73DA60F86BFEF7CBFE41F29813C1F6FF73C3E92A
S32D0000D9280E0141F29816C1F6FF766C4606F110050FCD0FC40FCD0FC40FCD0FC495E80F0084E80F0096E80F0056
S32D0000D950FFF760FD4FF0320004F002FCFB6B7B6441F27010C1F6FF7005F054F80346BB6341F26C10C1F6FF7058
S32D0000D97805F04CF803467B637B6D83EAE372A2EBE3723B6C9A42ACBF00230123DBB2002B7FF4D7AE41F2641009
S32D0000D9A0C1F6FF7002F094F841F25C10C1F6FF7002F08EF807F15C07BD46F0BDAFF3008090B583B000AF41F2F1
S32D0000D9C85810C1F6FF7005F05BF803467B6007E041F25810C1F6FF7005F052F803467B6040F20043C1F6FF738E
S32D0000D9F01B684FF00102144678681946FFF7BCFC0346002B02D14FF000031C46E3B2002BE2D17B68184607F166
S32D0000DA180C07BD4690BD00BF90B585B000AF7860704BFB60FFF7E2FC4FF001031C4678686D49FFF79DFC0346C0
S32D0000DA40002B02D14FF000031C46E3B2002B0ED041F25C10C1F6FF70664902F089F841F26410C1F6FF70644917
S32D0000DA6802F082F811E041F25C10C1F6FF70604902F07AF841F26410C1F6FF705B4902F073F87B6883F00043FA
S32D0000DA907B6078685949FFF767FB03461846F968FFF7AEFA03461846FEF716FE40F20843C1F6FF73D3E90023D8
S32D0000DAB8FEF762FE02460B4610461946FFF73EF90346BB6041E041F26C10C1F6FF7004F09DFF03461846FFF7E9
S32D0000DAE03BFA03464FF0010214461846B968FFF739FC0346002B02D14FF000031C46E3B2002B05D041F25C1035
S32D0000DB08C1F6FF7001F0E0FF41F27010C1F6FF7004F07CFF03461846FFF71AFA03464FF0010214461846B9689C
S32D0000DB30FFF718FC0346002B02D14FF000031C46E3B2002B05D041F26410C1F6FF7001F0BFFF41F26C10C1F65B
S32D0000DB58FF7004F05BFF03461846FFF7F9F903464FF0010214461846B968FFF7E3FB0346002B02D14FF0000392
S32D0000DB801C46E3B2002B1AD141F27010C1F6FF7004F040FF03461846FFF7DEF903464FF0010214461846B96886
S32D0000DBA8FFF7C8FB0346002B02D14FF000031C46E3B2002B02D04FF0010301E04FF00003002B80D141F25C1098
S32D0000DBD0C1F6FF7001F07CFF41F26410C1F6FF7001F076FF07F11407BD4690BD19A4A941000000000000A0C1F7
S32D0000DBF80000A0410000B443F0B595B010AF7860744BBB60FFF7F2FB4FF001031C4678687149FFF7ADFB0346C3
S32D0000DC20002B02D14FF000031C46E3B2002B1BD040F21043C1F6FF731B681846FFF78CF9034641F26410C1F6D8
S32D0000DC48FF70194601F090FF78686449FFF788FA03461846B968FFF7CFF90346FB6084E040F21043C1F6FF731F
S32D0000DC701B68C3F100031846FFF76EF9034641F26410C1F6FF70194601F072FF7B6883F0004318465349FFF731
S32D0000DC9867FA03461846B968FFF7AEF90346FB6063E040F21043C1F6FF731A6841F29813C1F6FF739A6041F24D
S32D0000DCC06C10C1F6FF7004F0A5FE024641F29813C1F6FF731A60F868FEF7FEFC40F20843C1F6FF73D3E9002360
S32D0000DCE8FEF74AFD02460B4614461D4641F27010C1F6FF7004F08AFE03461846FEF7D6FC02460B46204629464B
S32D0000DD10FEF782FB02460B461046194641F29813C1F6FF73C3E90E0141F23450C1F6FF7009F008FF03461846DF
S32D0000DD38FEF7CEFC41F29813C1F6FF73C3E90A0141F29816C1F6FF766C4606F110050FCD0FC40FCD0FC40FCD3B
S32D0000DD600FC495E80F0084E80F0096E80F00FFF751FB41F27010C1F6FF7004F04BFE03461846FEF797FC04465D
S32D0000DD880D46F868FEF7A4FC40F20843C1F6FF73D3E90023FEF7F0FC02460B464FF001010E4620462946FEF7C7
S32D0000DDB059FF0346002B02D14FF000031E46F3B2002B7FF472AF41F26410C1F6FF7001F07FFE07F11407BD464B
S32D0000DDD8F0BD00BF57A52942000000000000B443F0B595B010AF7860744BBB60FFF7FEFA4FF001031C46786885
S32D0000DE007149FFF7B9FA0346002B02D14FF000031C46E3B2002B1BD040F21043C1F6FF731B681846FFF798F8E6
S32D0000DE28034641F25C10C1F6FF70194601F09CFE78686449FFF794F903461846B968FFF7DBF80346FB6084E02B
S32D0000DE5040F21043C1F6FF731B68C3F100031846FFF77AF8034641F25C10C1F6FF70194601F07EFE7B6883F0C6
S32D0000DE78004318465349FFF773F903461846B968FFF7BAF80346FB6063E040F21043C1F6FF731A6841F2981378
S32D0000DEA0C1F6FF73DA6041F26C10C1F6FF7004F0B1FD024641F29813C1F6FF735A60F868FEF70AFC40F2084399
S32D0000DEC8C1F6FF73D3E90023FEF756FC02460B4614461D4641F26C10C1F6FF7004F096FD03461846FEF7E2FBB2
S32D0000DEF002460B4620462946FEF78EFA02460B461046194641F29813C1F6FF73C3E90E0141F23450C1F6FF702C
S32D0000DF1809F014FE03461846FEF7DAFB41F29813C1F6FF73C3E90A0141F29816C1F6FF766C4606F110050FCDFA
S32D0000DF400FC40FCD0FC40FCD0FC495E80F0084E80F0096E80F00FFF75DFA41F26C10C1F6FF7004F057FD03463B
S32D0000DF681846FEF7A3FB04460D46F868FEF7B0FB40F20843C1F6FF73D3E90023FEF7FCFB02460B464FF00101B2
S32D0000DF900E4620462946FEF765FE0346002B02D14FF000031E46F3B2002B7FF472AF41F25C10C1F6FF7001F0DB
S32D0000DFB88BFD07F11407BD46F0BD00BF57A52942000000000000B443F0B595B010AF786041F23450C1F6FF7075
S32D0000DFE009F0B0FD03464FF0010214461846AD49FFF7C2F90346002B02D14FF000031C46E3B2002B0BD041F2CA
S32D0000E0083450C1F6FF7009F099FD024641F29013C1F6FF731A607868FFF7EEFD41F29013C1F6FF731B6818464F
S32D0000E0307968FEF7DBFE0346FB604FF001031C46F8689849FFF77AF90346002B02D14FF000031C46E3B2002B75
S32D0000E05806D0F8689249FEF7C7FE0346FB60B6E04FF001031C46F8688D49FFF781F90346002B02D14FF00003C1
S32D0000E0801C46E3B2002B00F0A680F8688649FEF7ADFE0346FB609EE041F23450C1F6FF7009F050FD034618467F
S32D0000E0A88049FEF7A1FE03464FF0010214461846F968FFF73FF90346002B02D14FF000031C46E3B2002B31D06F
S32D0000E0D07748FFF795FD41F23450C1F6FF7009F031FD03461846FEF7F7FA41F29813C1F6FF73C3E90A01F8682C
S32D0000E0F8FEF7EEFA41F29813C1F6FF73C3E90C0141F29816C1F6FF766C4606F110050FCD0FC40FCD0FC40FCD58
S32D0000E1200FC495E80F0084E80F0096E80F00FFF771F94CE041F23450C1F6FF7009F002FD034618465949FEF7CB
S32D0000E14851FE03464FF0010214461846F968FFF70FF90346002B02D14FF000031C46E3B2002B30D05148FFF77E
S32D0000E17047FD41F23450C1F6FF7009F0E3FC03461846FEF7A9FA41F29813C1F6FF73C3E90A01F868FEF7A0FA9C
S32D0000E19841F29813C1F6FF73C3E90C0141F29816C1F6FF766C4606F110050FCD0FC40FCD0FC40FCD0FC495E844
S32D0000E1C00F0084E80F0096E80F00FFF723F94FF4967003F0C5FFF868FEF77EFA04460D4641F23450C1F6FF70C1
S32D0000E1E809F0ACFC03461846FEF772FA02460B46104619464FF000024FF07E5303F5F003FEF708F902460B4647
S32D0000E2104FF001010E4620462946FEF741FD0346002B02D14FF000031E46F3B2002B2CD1F868FEF751FA04469F
S32D0000E2380D4641F23450C1F6FF7009F07FFC03461846FEF745FA02460B46104619464FF000024FF07E5303F5A2
S32D0000E260F003FEF7D9F802460B464FF001010E4620462946FEF7F6FC0346002B02D14FF000031E46F3B2002B30
S32D0000E28802D04FF0010301E04FF00003002B7FF4FFAE07F11407BD46F0BD00BF000000000000B4430000803FAD
S32D0000E2B0000000BF0000003F80B582B000AF40F22043C1F6FF731B681846FFF75FF8034641F28010C1F6FF700E
S32D0000E2D8194604F09BFF40F21C43C1F6FF731B681846FFF74FF8034641F28010C1F6FF70194604F0A9FF41F2F3
S32D0000E3008010C1F6FF70DFF8181404F0C1FF40F21843C1F6FF731B681846FFF737F8034641F27410C1F6FF70A0
S32D0000E328194604F073FF40F21443C1F6FF731B681846FFF727F8034641F27410C1F6FF70194604F081FF41F22E
S32D0000E3507410C1F6FF70F34904F09AFF41F23450C1F6FF7008F0FEFE41F2CC40C1F6FF706FF07F4105F038FDAD
S32D0000E37841F2CC40C1F6FF704FF0000105F058FD41F2CC40C1F6FF7005F00AFD00BF07F104023B4641F2CC40AA
S32D0000E3A0C1F6FF7011461A4605F08AFE0346002BF1D153E041F23450C1F6FF7009F0A2FB024640F22843C1F67D
S32D0000E3C8FF731A6041F23450C1F6FF7009F0A6FB024640F22443C1F6FF731A6041F23450C1F6FF7009F0AAFBC5
S32D0000E3F0024640F22C43C1F6FF731A6040F22843C1F6FF731B6841F2CC40C1F6FF7019464FF000024FF00003E3
S32D0000E41805F0C6FF40F22443C1F6FF731B6841F2CC40C1F6FF7019464FF001024FF0000305F0B6FF40F22C4344
S32D0000E440C1F6FF731B6841F2CC40C1F6FF7019464FF002024FF0000305F0A6FF07F104023B4641F2CC40C1F6AA
S32D0000E468FF7011461A4605F027FE034683F00103DBB2002B9AD1A6A1D1E9000103F088FE09E041F2CC40C1F609
S32D0000E490FF7048F6C471C0F2010106F00DF807F104023B4641F2CC40C1F6FF7011461A4605F006FE0346002BC5
S32D0000E4B8E7D109E041F2CC40C1F6FF7048F6CC71C0F2010105F0F4FF07F104023B4641F2CC40C1F6FF701146DE
S32D0000E4E01A4605F0EDFD0346002BE7D153E041F23450C1F6FF7009F005FB024640F23043C1F6FF731A6041F2D7
S32D0000E5083450C1F6FF7009F009FB024640F23443C1F6FF731A6041F23450C1F6FF7009F00DFB024640F23843D7
S32D0000E530C1F6FF731A6040F23043C1F6FF731B6841F2CC40C1F6FF7019464FF000024FF0000305F029FF40F233
S32D0000E5583443C1F6FF731B6841F2CC40C1F6FF7019464FF001024FF0000305F019FF40F23843C1F6FF731B68C4
S32D0000E58041F2CC40C1F6FF7019464FF002024FF0000305F009FF07F104023B4641F2CC40C1F6FF7011461A468C
S32D0000E5A805F08AFD034683F00103DBB2002B9AD157A1D1E9000103F0EBFD00BF07F104023B4641F2CC40C1F624
S32D0000E5D0FF7011461A4605F073FD034683F00103DBB2002BEED14FF000004FF07E5101F5E00103F0D1FD09E08D
S32D0000E5F841F2CC40C1F6FF7048F6E471C0F2010105F056FF07F104023B4641F2CC40C1F6FF7011461A4605F06F
S32D0000E6204FFD0346002BE7D14FF000004FF07E5101F5E00103F0B0FD00BF07F104023B4641F2CC40C1F6FF70ED
S32D0000E64811461A4605F038FD034683F00103DBB2002BEED141F2CC40C1F6FF7005F0A0FB41F2CC40C1F6FF7032
S32D0000E6706FF07F4105F0B8FB41F2CC40C1F6FF704FF0000105F0D8FB41F2CC40C1F6FF7048F6F871C0F2010188
S32D0000E69805F00EFF4FF000004FF07E5101F5E00103F076FD00BF07F104023B4641F2CC40C1F6FF7011461A466E
S32D0000E6C005F0FEFC034683F00103DBB2002BEED100BF07F104023B4641F2CC40C1F6FF7011461A4605F0ECFCCF
S32D0000E6E80346002BF1D141F2CC40C1F6FF704FF4004105F075FB41F2CC40C1F6FF7005F04FFBFFF759F907F19C
S32D0000E7100807BD4680BD00BF9A9999999999B93F000048420000A041B0B586B000AF786039604FF001031C4673
S32D0000E7387868A949FEF7FEFD0346002B02D14FF000031C46E3B2002B08D07868A349FEF74BFB03463B617B689F
S32D0000E7607B6109E09F487968FEF740FB034683F000437B617B683B613868FDF7ADFF02460B461046194690A3B3
S32D0000E788D3E90023FDF746FE02460B4610461946FEF7D4FA0346FB603868FDF799FF02460B461046194686A3F4
S32D0000E7B0D3E90023FDF730FE02460B4610461946FEF7C0FA0346BB60F868FDF785FF02460B464FF001010C46D5
S32D0000E7D8104619467CA3D3E90023FEF75DFA0346002B02D14FF000031C46E3B2002B05D0F8687A49FEF7F6FA8C
S32D0000E8000346FB604FF001031C46B8687649FEF795FD0346002B02D14FF000031C46E3B2002B05D06F48B968E3
S32D0000E828FEF7E0FA0346BB604FF001031C4638686C49FEF789FD0346002B02D14FF000031C46E3B283F0010323
S32D0000E850DBB2002B1BD13868FDF73EFF02460B464FF001010C46104619465BA3D3E90023FEF7F8F90346002B0D
S32D0000E87802D14FF000031C46E3B283F00103DBB2002B00F062814FF001031C4638685649FEF764FD0346002BB6
S32D0000E8A002D14FF000031C46E3B283F00103DBB2002B40F0A1804FF001031C4638684949FEF746FD0346002B3B
S32D0000E8C802D14FF000031C46E3B283F00103DBB2002B00F03A818BE041F23450C1F6FF7009F02CF903464FF04E
S32D0000E8F00102144618463A49FEF720FD0346002B02D14FF000031C46E3B2002B15D041F23450C1F6FF7009F044
S32D0000E91815F9034618463149FEF766FA03463B6141F23450C1F6FF7009F008F903467B6116E041F23450C1F608
S32D0000E940FF7009F0FFF8034626481946FEF74EFA034683F000437B6141F23450C1F6FF7009F0F0F803463B6179
S32D0000E96838683969FEF73EFA03461846FEF730FD054638687969FEF735FA03461846FEF727FD03464FF001020D
S32D0000E990144628461946FEF7EFFC0346002B02D14FF000031C46E3B2002B03D01148FFF727F902E00F48FFF736
S32D0000E9B817FA4FF4967003F0CFFB1AE0AFF300809A9999999999C93FA4703D0AD77F76409A9999999999B9BFE9
S32D0000E9E0000034430000B443000000000000803F0080B343CDCCCC3E00BF41F23450C1F6FF7009F09FF803464E
S32D0000EA084FF0010214461846B968FEF7B1FC0346002B02D14FF000031C46E3B283F00103DBB2002B19D041F258
S32D0000EA303450C1F6FF7009F085F803464FF0010214461846F968FEF779FC0346002B02D14FF000031C46E3B20A
S32D0000EA58002B02D04FF0010301E04FF00003002B7FF43AAFE2E041F23450C1F6FF7009F065F803464FF0010226
S32D0000EA80144618466D49FEF759FC0346002B02D14FF000031C46E3B2002B15D041F23450C1F6FF7009F04EF804
S32D0000EAA8034618466449FEF79FF903463B6141F23450C1F6FF7009F041F803467B6116E041F23450C1F6FF7073
S32D0000EAD009F038F803465A481946FEF787F9034683F000437B6141F23450C1F6FF7009F029F803463B613868D9
S32D0000EAF83969FEF777F903461846FEF769FC054638687969FEF76EF903461846FEF760FC03464FF001021446E2
S32D0000EB2028461946FEF728FC0346002B02D14FF000031C46E3B2002B03D04248FFF760F802E04048FFF750F9E2
S32D0000EB484FF0640003F008FB00E000BF41F23450C1F6FF7008F0F2FF03464FF00102144618463749FEF7FAFBF4
S32D0000EB700346002B02D14FF000031C46E3B283F00103DBB2002B19D141F23450C1F6FF7008F0D8FF03464FF0AA
S32D0000EB980102144618462B49FEF7D6FB0346002B02D14FF000031C46E3B283F00103DBB2002B36D041F23450EE
S32D0000EBC0C1F6FF7008F0BEFF03464FF00102144618461F49FEF7C6FB0346002B02D14FF000031C46E3B283F0F8
S32D0000EBE80103DBB2002B19D141F23450C1F6FF7008F0A4FF03464FF00102144618460E49FEF7A2FB0346002B41
S32D0000EC1002D14FF000031C46E3B283F00103DBB2002B02D04FF0010301E04FF00003002B7FF41DAF07F11807E2
S32D0000EC38BD46B0BD000034430000B4439A99993E000000000000003F00C0B343AFF30080F0B597B010AF41F2D1
S32D0000EC603450C1F6FF7008F04DFF03467B6141F23450C1F6FF7008F055FF03463B6141F23450C1F6FF7008F090
S32D0000EC885DFF0346FB6003F0AFFA02460B4610461946FEF753F80346BB6041F28C13C1F6FF738E4A1A608D4BAB
S32D0000ECB07B604FF000004FF0804101F550116FF03B02FEF7D9FC41F23450C1F6FF7008F039FF024640F22C4369
S32D0000ECD8C1F6FF731B6810461946FEF783F803463B6041F23450C1F6FF7008F027FF024640F22C43C1F6FF734C
S32D0000ED001B6810461946FFF70FFD35E04FF000004FF0804101F592016FF02702FEF7ACFC41F23450C1F6FF70CC
S32D0000ED2808F00CFF024640F22C43C1F6FF731B6810461946FFF7F4FC41F23450C1F6FF7008F0DCFE03467B61B6
S32D0000ED5041F23450C1F6FF7008F0E4FE03463B6141F23450C1F6FF7008F0ECFE0346FB604FF4967003F0F4F96D
S32D0000ED7840F22843C1F6FF731B684FF00102144678691946FEF7D6FA0346002B02D14FF000031C46E3B2002BD8
S32D0000EDA0B4D14FF000004FF0804101F578116FF02702FEF761FC41F27010C1F6FF7003F03DFE41F26410C1F6C3
S32D0000EDC8FF70474900F0D0FE41F25C10C1F6FF70434900F0C9FE4CE041F25810C1F6FF7003F04EFE024641F2B1
S32D0000EDF08C13C1F6FF731B684FF001010C4610461946FEF79BFA0346002B02D14FF000031C46E3B2002B30D02D
S32D0000EE1841F25810C1F6FF7003F032FE024641F28C13C1F6FF731A6041F2CC40C1F6FF7004F0B6FF41F28C134B
S32D0000EE40C1F6FF731A6841F29813C1F6FF739A6441F29816C1F6FF766C4606F110050FCD0FC40FCD0FC40FCDEF
S32D0000EE680FC495E80F0084E80F0096E80F00FEF7CDFA41F27010C1F6FF7003F0C7FD0346312BCCBF0023012352
S32D0000EE90DBB2002BA4D141F26410C1F6FF7000F017FE41F25C10C1F6FF7000F011FE41F27010C1F6FF7003F0C5
S32D0000EEB8C1FD41F26C10C1F6FF7003F0BBFD4FF000004FF0804101F578116FF02702FEF7CFFB07F11C07BD46CB
S32D0000EEE0F0BD00BF333353400000A04180B500AF4FF000004FF0804101F510114FF00F02FEF7BAFB0C48FFF740
S32D0000EF0863F84FF000004FF0804101F5F2016FF01D02FEF7ADFB4FF000004FF0804101F5A8014FF02802FEF701
S32D0000EF30A3FBFEF765FB80BD0000B4420000000080B500AF20A1D1E900014FF02302FEF793FB2348FEF764FD85
S32D0000EF581DA1D1E900016FF02702FEF789FB41F26410C1F6FF701D4900F0FEFD41F25C10C1F6FF701A4900F0DB
S32D0000EF80F7FD15A1D1E9000103F006F941F26410C1F6FF7000F09CFD41F25C10C1F6FF7000F096FD1148FEF720
S32D0000EFA82BFE09A1D1E900014FF02302FEF760FB0D48FEF721FEFEF71FFB80BDAFF3008000000000008056400C
S32D0000EFD0000000000080514033333333333315400000B442000048C2000034C2000034420000A0C1AFF300808C
S32D0000EFF880B500AF4FF000004FF0804101F588016FF01D02FEF734FB0148FEF7E9FE80BD00005C4200000000A7
S32D0000F020F0B593B010AFFFF747F941F2CC40C1F6FF706FF07F4104F0D7FE41F2CC40C1F6FF7004F0B1FE41F25D
S32D0000F0483450C1F6FF7008F079FD024641F29013C1F6FF731A6041F29013C1F6FF731A6841F29413C1F6FF733D
S32D0000F0701A6003F0BDF802460B4610461946FDF761FE03467B600BE041F23450C1F6FF7008F058FD024641F2FB
S32D0000F0989013C1F6FF731A6041F29013C1F6FF731B681846DFF82814FEF73AF90346002B28D141F29013C1F6EF
S32D0000F0C0FF731B681846DFF81414FEF72DF90346002B1BD103F08CF804460D467868FDF7FBFA02460B46204679
S32D0000F0E82946FDF795F902460B46104619464FF000024FF0804303F53813FDF7A5FD0346002B02D04FF0010316
S32D0000F11001E04FF00003002BB6D14FF000004FF080414FF00F02FEF7A7FAED48FEF75CFE4FF000004FF0804114
S32D0000F13801F510114FF04602FEF79AFAFFF788FD41F28C13C1F6FF731B681846FDF7C0FA02460B464FF00101A3
S32D0000F1600C4610461946D8A3D3E90023FDF77AFD0346002B02D14FF000031C46E3B2002B21D041F28C13C1F690
S32D0000F188FF731A6841F29813C1F6FF739A6441F29816C1F6FF766C4606F110050FCD0FC40FCD0FC40FCD0FC488
S32D0000F1B095E80F0084E80F0096E80F00FEF72AF9FFF7BEFE20E041F28C13C1F6FF731A6841F29813C1F6FF734F
S32D0000F1D89A6441F29816C1F6FF766C4606F110050FCD0FC40FCD0FC40FCD0FC495E80F0084E80F0096E80F009F
S32D0000F200FEF708F9FFF772FE41F2CC40C1F6FF7004F0CAFD4FF000004FF0804101F5B2014FF03702FEF728FAED
S32D0000F2284FF000004FF0804101F578116FF02702FEF71EFAA948FEF7D3FD4FF000004FF0804101F5E0114FF04A
S32D0000F2502D02FEF711FAA448FEF7C6FD4FF000004FF080416FF04502FEF706FA41F27010C1F6FF7003F0E2FB3A
S32D0000F27841F26C10C1F6FF7003F0DCFB4FF000004FF0804101F59C016FF03102FEF7F0F94FF000004FF0804148
S32D0000F2A001F586014FF01902FEF7E6F941F28010C1F6FF708D4903F0EBFF4FF0C80002F04FFF41F28010C1F638
S32D0000F2C8FF70894903F0E0FF4FF0C80002F044FF41F26410C1F6FF70844900F045FC41F25C10C1F6FF7082496E
S32D0000F2F000F03EFC4FF000004FF07E5101F5F00102F04AFF41F26410C1F6FF7000F0E0FB41F25C10C1F6FF70FA
S32D0000F31800F0DAFB41F27010C1F6FF7003F08AFB41F26C10C1F6FF7003F084FB4FF4967002F012FF41F280105B
S32D0000F340C1F6FF706D4903F0A3FF4FF000004FF0804101F578114FF02302FEF78DF95CA1D1E900014FF0230275
S32D0000F368FEF786F96448FEF747FC6448FEF738FD4FF000004FF0804101F5A8014FF02D02FEF776F95E48FEF7FE
S32D0000F3902BFDFFF731FE0DE04FF000004FF0804101F510114FF02302FEF766F94FF4967002F0D6FE41F2345041
S32D0000F3B8C1F6FF7008F0B2FB03464FF00102144618465049FDF7B6FF0346002B02D14FF000031C46E3B2002B2C
S32D0000F3E0DAD14FF000004FF0804101F578114FF02302FEF741F94648FEF7F6FC4448FEF7FFFB4FF000004FF095
S32D0000F408804101F59C014FF02302FEF731F941F27410C1F6FF703D4903F036FF4FF000004FF0804101F55011DE
S32D0000F4304FF04602FEF720F94FF000004FF0804101F550116FF01D02FEF716F93248FEF7CBFC4FF000004FF04D
S32D0000F458804101F5BC014FF01E02FEF709F92D48FEF7CAFB4FF000004FF0804101F588014FF03702FEF7FCF86E
S32D0000F4802748FEF7BDFB4FF000004FF0804101F5D2014FF03702FEF7EFF82248FEF7B0FB4FF000004FF080419D
S32D0000F4A801F5D2014FF03202FEF7E2F84FF00003184607F10C07BD46F0BD00BFAFF30080666666666666E63F66
S32D0000F4D00000000000804A40000080BF000000C000000743000034420000184200003243000030430000D041F2
S32D0000F4F8000048420000A041000080C000000C4200002041000000000000B442000016430000B4C2000082C283
S32D0000F520000020C10000704180B582B000AF786039607B68012B3ED13A684FF6FF739A4239D141F25810C1F6F5
S32D0000F548FF704FF0080103F089FA41F25C10C1F6FF704FF00001184A00F05EFA41F26410C1F6FF704FF00101AB
S32D0000F570134A00F055FA41F26C10C1F6FF704FF0000102F08FFE41F27010C1F6FF704FF0070102F087FE41F273
S32D0000F5987410C1F6FF704FF0000103F019FE41F28010C1F6FF704FF0010103F011FE07F10807BD4680BD00BF1F
S32D0000F5C00000104180B500AF4FF001004FF6FF71FFF7AAFF80BD00BF80B500AF41F29872C1F6FF7241F2581371
S32D0000F5E8C1F6FF73D31A194641F25813C1F6FF731A460B4610464FF000011A4608F033FC80BD00BF09F0A8FC52
S32D0000F61000F0B0F9FFF7E0FF09F07AFC09F016FC09F0AEFC00F00CF84FF0000041F2E811C1F6FF71FFF7F4FCD5
S32D0000F6380346184608F0F2FB80B500AF4FF4E043C4F204034FF4E042C4F2040202F5805202F13802126842F44A
S32D0000F660785203F5805303F138031A6000F02EF900F094F841F21843C1F6FF734FF058021A6041F21843C1F69C
S32D0000F688FF731B684FF47A7202FB03F241F21443C1F6FF731A6041F21443C1F6FF731B681A464FF4E043C4F25F
S32D0000F6B0040303F5825303F104031B6803F070634FEA136303F10103B2FBF3F31A4641F21C43C1F6FF731A6045
S32D0000F6D84FF4E043C4F204034FF4E042C4F2040202F5805202F13C02126842F0225203F5805303F13C031A602E
S32D0000F7004FF4E043C4F204034FF4E042C4F2040202F5805202F13002126842F0006203F5805303F130031A602F
S32D0000F7284FF45043C4F203034FF480721A614FF0640002F0A5FB4FF45043C4F203034FF45042C4F2030252695F
S32D0000F75022F010025A614FF45043C4F203034FF000021A604FF45043C4F203034FF010025A6103F0BBFA03F026
S32D0000F77863FB41F21040C1F6FF7002F005FC41F2CC40C1F6FF7004F043F941F2883002F0E3FC80BD80B400AFF8
S32D0000F7A04FF48043C4F206034FF000025A704FF48043C4F206034FF098021A704FF48043C4F206039B79DBB2DD
S32D0000F7C803F01003002B0CBF00230123DBB2002BF0D14FF48043C4F206039B79DBB203F00C034FEA9303022BF3
S32D0000F7F00CBF00230123DBB2002BEED14FF48043C4F206034FF018021A714FF48043C4F206034FF000025A71E8
S32D0000F8184FF4E043C4F2040303F5825303F104034FF00002C0F213121A604FF48043C4F206034FF054025A7120
S32D0000F84000BF4FF48043C4F206039B79DBB203F02003002B14BF00230123DBB2002BF0D100BF4FF48043C4F226
S32D0000F86806039B79DBB203F04003002B14BF00230123DBB2002BF0D14FF48043C4F206034FF48042C4F206024C
S32D0000F8901278D2B202F03F02D2B21A704FF48043C4F206039B79DBB203F00C034FEA9303032B0CBF0023012384
S32D0000F8B8DBB2002BEED14FF000031846BD4680BC704700BF80B400AF4FF44043C4F204034FF480725A634FF2BD
S32D0000F8E0C003C4F20F034FF2C002C4F20F02526942F400525A614FF2C003C4F20F034FF2C002C4F20F02126897
S32D0000F90842F400521A604FF44043C4F2040340F20312C0F20A021A634FF46143CEF200034FF46142CEF2000278
S32D0000F930D2F8882142F08062C3F888214FF46143CEF200034FF46142CEF20002926842F080629A60BD4680BC25
S32D0000F958704700BF80B483B000AF7860FEE700BF80B400AF00BEBD4680BC704780B400AF4FF0E0224CF200037D
S32D0000F980C0F20003C2F8083D4FF40053C4F205034CF22052DA814FF40053C4F205034DF62812DA814FF4005384
S32D0000F9A8C4F205034FF0D2021A80BD4680BC704780B500AF4FF44043C4F20403D3F8A03003F48053002B0CBF0E
S32D0000F9D000230123DBB2002B1FD04FF44043C4F204034FF44042C4F20402D2F8A02022F48052C3F8A02041F2F7
S32D0000F9F85450C1F6FF7008F097F94FF2C003C4F20F034FF2C002C4F20F02126822F400521A6080BD0000000060
S32D0000FA2090B585B000AFF8600B467A60FB72FB68FA7A1A71FB684FF000025A714FF001031C4678682049FDF7EC
S32D0000FA4897FC0346002B02D14FF000031C46E3B2002B02D01A4B7B6011E04FF001031C4678681849FDF770FC09
S32D0000FA700346002B02D14FF000031C46E3B2002B01D0124B7B607868FCF726FE02460B46104619460AA3D3E906
S32D0000FA980023FCF771FE02460B4610461946FDF74DF90246FB681A60FB68184607F11407BD4690BDAFF30080C8
S32D0000FAC0ABAAAAAAAAAA2040000040410000803F80B582B000AF78607B685B79002B10D07B684FF000025A71DC
S32D0000FAE87B681B7941F21040C1F6FF7019464FF000024FF01E0302F091FA07F10807BD4680BD00BF80B584B0E4
S32D0000FB1000AF786039603B687F2B03DD4FF07F03FB7309E03B6813F1800F03DA4FF08003FB7301E03B68FB732D
S32D0000FB387B685B79FA7B9A420FD07B68FA7B5A717B681A79FB7B41F21040C1F6FF7011461A464FF01E0302F0F7
S32D0000FB6061FA07F11007BD4680BD00BF00000000B0B584B000AF786039604FF001031C4638684D49FDF7DAFBB1
S32D0000FB880346002B02D14FF000031C46E3B2002B02D0474B3B6011E04FF001031C4638684449FDF7E5FB0346C5
S32D0000FBB0002B02D14FF000031C46E3B2002B01D03E4B3B603868FCF787FD04460D467B681B681846FCF780FDE8
S32D0000FBD802460B46104619464FF000024FF0804303F5B203FCF7F2FE02460B4620462946FCF7C2FD02460B4625
S32D0000FC0010461946FDF79EF803463B604FF001031C4638682A49FDF7A5FB0346002B02D14FF000031C46E3B2E7
S32D0000FC28002B14D03868FCF753FD02460B46104619461DA3D3E90023FCF79EFD02460B4610461946FDF732F8D5
S32D0000FC500346FB6022E03868FCF73EFD02460B46104619464FF000024FF0804303F5C003FCF786FD02460B46B7
S32D0000FC78104619464FF000024FF0804303F5B203FCF7A4FE02460B4610461946FDF70EF80346FB607868F968F7
S32D0000FCA0FFF734FF07F11007BD46B0BDAFF3008052B81E85EB51F43F0000C8C20000C84200000000AFF300809A
S32D0000FCC880B485B000AF02460B46FA71BB71BB79002B07D141F2EC13C1F6FF734FF000021A7006E041F2EC1351
S32D0000FCF0C1F6FF734FF001021A704FF03803FB7341F2EC13C1F6FF731A78FB7B1343FB734FF4C043C4F20603DD
S32D0000FD184FF4C042C4F206029278D2B242F01002D2B29A704FF4C043C4F206034FF4C042C4F206029278D2B2C4
S32D0000FD4042F02002D2B29A704FF4C043C4F20603FA7B1A7107F11407BD4680BC704700BF80B483B000AF4FF091
S32D0000FD6801037B6004E000BF7B6803F101037B607B68312BCCBF00230123DBB2002BF2D107F10C07BD4680BC5F
S32D0000FD90704700BF80B582B000AF02460B46FA71BB7141F2ED13C1F6FF731B7818464FF00001FFF789FF4FF43B
S32D0000FDB8C043C4F20603DB78DBB203F00203002B14BF00230123DBB2002BF0D14FF4C043C4F206034FF4C0427B
S32D0000FDE0C4F20602D278D2B242F00202D2B2DA704FF4C043C4F20603FA791A714FF4C043C4F20603DB78DBB27D
S32D0000FE0803F00203002B14BF00230123DBB2002BF0D14FF4C043C4F206034FF4C042C4F20602D278D2B242F00E
S32D0000FE300202D2B2DA704FF4C043C4F20603BA791A714FF4C043C4F20603DB78DBB203F00203002B14BF002311
S32D0000FE580123DBB2002BF0D14FF4C043C4F206034FF4C042C4F20602D278D2B242F00202D2B2DA704FF4C043BF
S32D0000FE80C4F206034FF4C042C4F206029278D2B222F02002D2B29A704FF4C043C4F206034FF4C042C4F206023A
S32D0000FEA89278D2B222F01002D2B29A70FFF754FF07F10807BD4680BD80B582B000AF0346FB71FB79184600F0CF
S32D0000FED06BF807F10807BD4680BD00BF80B582B000AF02460B46FA71BB7100F039F8FB794FEA4303DBB2184656
S32D0000FEF8FFF7E2FFBB791846FFF7DEFF00F03EF807F10807BD4680BD80B500AF4FF0FF0000F046F8034618463C
S32D0000FF2080BD00BF80B584B000AF0346FB7100F017F8FB794FEA4303DBB243F00103DBB2DBB21846FFF7BCFF0B
S32D0000FF48FFF7E2FF0346FB7300F018F8FB7B184607F11007BD4680BD80B400AF4FF24003C4F20F034FF2400228
S32D0000FF70C4F20F02926842F480129A60BD4680BC704700BF80B400AF4FF24003C4F20F034FF24002C4F20F02B2
S32D0000FF98526842F480125A60BD4680BC704700BF80B485B000AF0346FB714FF00003BB7303E0FB7B03F10103BC
S32D0000FFC0FB734FF44043C4F20A03DB6A4FF00003002BF2D14FF44043C4F20A034FF44042C4F20A02D26A42F029
S32D0000FFE80042DA624FF44043C4F20A03FA795A6300BF4FF44043C4F20A03DB6A03F40033002B14BF00230123B8
S32D00010010DBB2002BF1D14FF44043C4F20A039B6BBB73BB7B184607F11407BD4680BC704780B582B000AF4FF494
S32D00010038E043C4F204034FF4E042C4F2040202F5805202F13002126842F4805203F5805303F130031A604FF479
S32D000100602043C4F204034FF480721A654FF24003C4F20F034FF24002C4F20F02526942F480125A61FFF77EFF56
S32D000100884FF42043C4F204034FF400725A654FF42043C4F204034FF400729A654FF42043C4F204034FF4007243
S32D000100B0DA654FF44043C4F20A034FF44062C8F200021A604FF44043C4F20A034FF00502C3F60062DA604FF0DB
S32D000100D800037B6007E04FF0FF00FFF7EDFE7B6803F101037B607B68092BCCBF00230123DBB2002BEFD104A159
S32D00010100D1E9000102F048F807F10807BD4680BD9A9999999999B93F90B486B000AFF860B9607A60FA684FF4F4
S32D000101282043C4F206039A4214D14FF4E043C4F204034FF4E042C4F2040202F5805202F13402126842F48062FD
S32D0001015003F5805303F134031A6083E0FA684FF43043C4F206039A4214D14FF4E043C4F204034FF4E042C4F2D7
S32D00010178040202F5805202F13402126842F4006203F5805303F134031A6067E0FA684FF44043C4F206039A42D4
S32D000101A014D14FF4E043C4F204034FF4E042C4F2040202F5805202F13402126842F4805203F5805303F134039D
S32D000101C81A604BE0FA684FF45043C4F206039A4214D14FF4E043C4F204034FF4E042C4F2040202F5805202F1AB
S32D000101F03402126842F4005203F5805303F134031A602FE0FA684FF42043C4F20E039A4214D14FF4E043C4F27D
S32D0001021804034FF4E042C4F2040202F5805202F12802126842F4806203F5805303F128031A6013E04FF4E0435A
S32D00010240C4F204034FF4E042C4F2040202F5805202F12802126842F4006203F5805303F128031A60FB68DB789F
S32D00010268DBB223F00C03DAB2FB68DA70FB684FF000029A70BB684FF47A7202FB03F27B684FEA031392FBF3F3E8
S32D000102909CB2FB681B78DBB223F01F03FB75234603F4F8534FEA2323DBB203F01F03DAB2FB7D1343DAB2FB68B4
S32D000102B81A70E2B2FB685A70BB684FF4FA4202FB03F27B684FEA031392FBF3F39AB2234619464FEAC121CB1A7F
S32D000102E04FEA43139BB2D3189CB2FB689B7ADBB223F01F03FB75E3B203F01F03DAB2FB7D1343DAB2FB689A7231
S32D00010308FB68DB78DBB243F00C03DAB2FB68DA7007F11807BD4690BC704700BF80B483B000AF786000BF7B689C
S32D000103301B79DBB203F02003002B14BF00230123DBB2002BF3D17B68DB79DBB2184607F10C07BD4680BC704783
S32D0001035880B483B000AF78600B46FB7000BF7B681B79DBB2DBB26FEA0303DBB24FEAD313DBB2002BF3D17B6812
S32D00010380FA78DA7107F10C07BD4680BC704700BF80B487B000AFF860B9607A60FB687B6107E0BB68DAB27B69B3
S32D000103A81A707B6903F101037B617B68002B0CBF00230123DBB27A6802F1FF327A60002BEBD107F11C07BD4652
S32D000103D080BC704780B584B000AF786039607B681B6BFB60FA683B689A4264D07B681B79002B43D07B685A783F
S32D000103F87B6803F1340310461946FA684FF0010301F0ACFB0346002B0CBF00230123DBB2002B02D04FF0010383
S32D000104204BE07B684FF000021A717B685A6A7B681B6AD218FB689A4220D97B68DB78FB7214E07B681B6AFA6841
S32D00010448D318FB607B685A787B6803F1340310461946FA684FF0010301F080FBFB7A03F1FF33FB72FB7A012B0D
S32D0001047094BF00230123DBB2002BE2D13B68002B19D07B685A787B6803F13403104619463A684FF0010301F053
S32D0001049857FA0346002B0CBF00230123DBB2002B02D04FF0010304E07B683A681A634FF00003184607F11007FC
S32D000104C0BD4680BD80B584B000AF786078684FF00001FFF77FFF0346FB73FB7B002B40F0AE807B681B78032BEF
S32D000104E840F095807B685B79002B00F090807B684FF000021A637B6803F1340318464FF000014FF40072FFF7C6
S32D000105103FFF7B684FF0550283F832227B684FF0AA0283F833227B684FF0520283F834207B684FF0520283F862
S32D0001053835207B684FF0610283F836207B684FF0410283F837207B684FF0720283F818227B684FF0720283F856
S32D0001056019227B684FF0410283F81A227B684FF0610283F81B227B681B69DAB27B6883F81C227B681B699BB295
S32D000105884FEA2323DAB27B6883F81D227B681B694FEA1343DAB27B6883F81E227B681B694FEA1363DAB27B68F7
S32D000105B083F81F227B68DB68DAB27B6883F820227B68DB689BB24FEA2323DAB27B6883F821227B68DB684FEA90
S32D000105D81343DAB27B6883F822227B68DB684FEA1363DAB27B6883F823227B6859787B6803F134027B685B6904
S32D00010600084611461A464FF0010301F0ABFA7B684FF000025A717B685B7818464FF000014FF0000201F084FBF9
S32D000106280346002B0CBF00230123DBB2002B02D04FF00103FB73FB7B184607F11007BD4680BD00BF80B582B099
S32D0001065000AF78600B467B807B68002B08D07B681B78002B04D07B68DB887A889A4202D04FF009030FE07B683A
S32D000106785B78184601F0ECFB034603F00103DBB2002B02D04FF0030301E04FF00003184607F10807BD4680BD73
S32D000106A080B586B000AF78607B681A687B689B8810461946FFF7CAFF0346FB75FB7D002B40F0C8807B689B798F
S32D000106C803F02003002B00F0C1807B689B7903F04003002B20D07B681B6859787B6803F128027B689B690846DC
S32D000106F011461A464FF0010301F034FA0346002B0CBF00230123DBB2002B02D04FF00103A1E07B689B7923F0E4
S32D000107184003DAB27B689A717B681A687B68DB6910461946FFF752FE0346FB75FB7D002B40F08C807B681B6A6E
S32D000107403B613B6903F10B033A6902F10B02127842F02002D2B21A703B6903F11C037A68D268D2B21A703B6934
S32D0001076803F11D037A68D26892B24FEA2222D2B21A703B6903F11E037A68D2684FEA1242D2B21A703B6903F15B
S32D000107901F037A68D2684FEA1262D2B21A703B6903F11A037A681269D2B21A703B6903F11B037A68126992B2CA
S32D000107B84FEA2222D2B21A703B6903F114037A6812694FEA1242D2B21A703B6903F115037A6812694FEA124246
S32D000107E092B24FEA2222D2B21A704FF00003FB603B6903F11603FA68D2B21A703B6903F11703FA6892B24FEACC
S32D000108082222D2B21A703B6903F11803FA684FEA1242D2B21A703B6903F11903FA684FEA1262D2B21A707B680B
S32D000108309B7923F02003DAB27B689A717B681B684FF001021A717B681B681846FFF73AFE0346FB75FB7D184621
S32D0001085807F11807BD4680BD80B584B000AF78607868FFF719FF0346FB73FB7B002B03D17B684FF000021A6072
S32D00010880FB7B184607F11007BD4680BD80B588B000AF786039604FF080033B614FF00F03FB604FF0FF337B6142
S32D000108A84FF00203FB612AE04FF00103BB611AE0FB69BA6902FB03F33A6802FB03F27B68D31ABB60BB68002BD7
S32D000108D009DBBA687B699A4205D2BB687B61FB693B61BB69FB60BB6903F10103BB61BB69102B8CBF00230123B5
S32D000108F8DBB2002BDCD1FB694FEA4303FB61FB69B3F5807F8CBF00230123DBB2002BCBD14FF48053C4F20B0362
S32D000109204FF48052C4F20B02D26A22F00802DA624FF48053C4F20B03DB6A1A464FF00F03CFF6F0731340BB61D5
S32D000109484FF48053C4F20B033A694FEA52024FEA02224FEA02424FEA1242F96801F1FF314FEA0111C9B2114372
S32D00010970BA690A4342F46022DA6203E04FF00A0001F0EEFB4FF48053C4F20B035B6A03F00803002B14BF002330
S32D000109980123DBB2002BEDD14FF48053C4F20B034FF48052C4F20B02D26A42F00802DA624FF48053C4F20B0356
S32D000109C04FF48052C4F20B02126B42F480121A6307F12007BD4680BD80B582B000AF786039607B684FF0000264
S32D000109E81A604FF48053C4F20B034FF40042C0F20012DA624FF48053C4F20B03DB6A03F08073002B0CBF0023E9
S32D00010A100123DBB2002BF1D14FF48053C4F20B034FF00002C3F8C0204FF48053C4F20B034FF481325A604FF496
S32D00010A388053C4F20B034FF028029A624FF48053C4F20B034FF001125A643B689B6818464CF66041C0F205010A
S32D00010A60FFF714FF4FF48053C4F20B035B6A03F00303002B0CBF00230123DBB2002BF1D14FF45043C4F204037C
S32D00010A8840F243421A604FF45043C4F2040340F243425A604FF45043C4F204034FF488629A604FF45043C4F2C4
S32D00010AB0040340F24342DA604FF45043C4F2040340F243421A614FF45043C4F2040340F243425A614FF4E043EF
S32D00010AD8C4F204034FF4E042C4F2040202F5805202F13002126842F4003203F5805303F130031A604FF48053BF
S32D00010B00C4F20B034FF6FF721A634FF48053C4F20B034FF0B302C0F27F025A634FF48053C4F20B034FF4805222
S32D00010B28C4F20B02D26A42F00062DA624FF48053C4F20B03DB6A03F00063002B0CBF00230123DBB2002BF1D1A3
S32D00010B504FF48053C4F20B035B6A03F48033002B0CBF00230123DBB2002B03D07B684FF001021A604FF48053B0
S32D00010B78C4F20B034FF48052C4F20B02126B42F080021A634FF00003184607F10807BD4680BD00BF80B400AF7B
S32D00010BA04FF48053C4F20B035B6A1A4640F207331340002B0CBF00230123DBB21846BD4680BC704780B485B0E1
S32D00010BC800AF78604FF48053C4F20B031B6B1A467B681340FB60FB68002B14BF00230123DBB2002BEED1FB68A4
S32D00010BF0184607F11407BD4680BC704780B584B000AF78607B681B7803F03F0249F2F023C0F2010353F8223034
S32D00010C18FB60FB68002B06D17B681B78002B02D04FF0010330E14FF48053C4F20B034FF48052C4F20B02126BF7
S32D00010C4042F080021A634FF48053C4F20B035B6A03F00103DBB2002BF5D14FF48053C4F20B037A6852689A60D0
S32D00010C68FB6823F44003FB607B685B784FEA835303F44003FA681343FB607B685B78022B03D1FB6843F40013CF
S32D00010C90FB607B685B78042B16D1FB6803F44033B3F5003F08D1FB6823F44033FB60FB6843F44033FB6007E0EA
S32D00010CB8FB6823F44033FB60FB6843F40033FB604FF48053C4F20B034FF48052C4F20B0252684FEA02424FEA7B
S32D00010CE012425A607B68DB68002B32D0FB6803F44033B3F5403F03D0FB6843F40013FB607B681B7A002B03D03F
S32D00010D08FB6843F01003FB607B68DB68012B03D9FB6843F02003FB607B68DB68B3F1FF3F13D04FF48053C4F2BF
S32D00010D300B034FF48052C4F20B02526811467A68D2684FEA02420A435A60FB6843F00203FB604FF48053C4F23B
S32D00010D580B034FF000021A604FF48053C4F20B03FA68DA604FF00100C0F20E00FFF726FF0346012B0CBF0023AF
S32D00010D800123DBB2002B10D04FF48053C4F20B034FF48052C4F20B02126B42F4702242F001021A634FF001039C
S32D00010DA872E04FF48053C4F20B031B6B03F08003002B0CBF00230123DBB2002B0ED04FF48053C4F20B034FF404
S32D00010DD08052C4F20B02126B42F001121A634FF0010355E04FF48053C4F20B031B6B03F48033002B0CBF002385
S32D00010DF80123DBB2002B0ED04FF48053C4F20B034FF48052C4F20B02126B42F001121A634FF0FF3338E0FB6835
S32D00010E2003F44033002B25D04FF48053C4F20B031B691A467B681A61FB6803F44033B3F5803F17D14FF48053CB
S32D00010E48C4F20B035B691A467B685A614FF48053C4F20B039B691A467B689A614FF48053C4F20B03DB691A465B
S32D00010E707B68DA614FF48053C4F20B034FF48052C4F20B02126B42F001021A634FF00003184607F11007BD46A2
S32D00010E9880BD00BF80B592B000AF786039604FF00003FB633B68BB6341F20423C1F6FF737B637B6B002B03D1F1
S32D00010EC040F6012300F0A0BC41F20843C1F6FF733B633B6B002B03D140F60B2300F094BC3B6B1B68FB62FB6AE4
S32D00010EE8002B03D140F60B2300F08ABC7B6841F20432934200F0388241F2043293421BD841F20132934238D003
S32D00010F1041F20132934207D8032B00F03D84092B00F0298400F066BC41F20232934200F0128241F203329342D9
S32D00010F3800F0BE8300F05ABC41F20732934200F04B8341F2073293420BD841F20532934200F0348241F20632E0
S32D00010F60934200F0108300F045BC41F20832934200F0B68241F20932934200F0C48200F039BC786B49F2E4212E
S32D00010F88C0F20101FFF724FD0346FB63FB6B002B40F030844FF0000387F847304FF0000387F82B304FF00003BD
S32D00010FB087F82A304FF0000387F829304FF0000387F846304FF0000387F828304FF000033B724FF000037B72B1
S32D00010FD84FF00003FB604FF000033B744FF000037B6107F108031846FFF704FE0346002B0CBF00230123DBB2D2
S32D00011000002B03D04FF00103FB63FCE340F24C4001F0A6F84FF008033B724FF000037B724FF4D573FB604FF0AB
S32D0001102800033B744FF000037B6107F108031846FFF7E0FD03463B643B6C002B0BD1BA69FB689A4203D04FF08B
S32D000110500103FB63D7E34FF0010387F846304FF0010387F8283097F82830002B00F0C6804FF037033B724FF056
S32D0001107800037B724FF00003FB604FF000033B744FF000037B6107F108031846FFF7B2FD03463B643B6C002BED
S32D000110A003D04FF00103FB63ADE34FF069033B724FF000037B724FF00003FB604FF000033B744FF000037B61EA
S32D000110C807F108031846FFF795FD0346002B0CBF00230123DBB2002B03D04FF00103FB638DE3BB6903F4401380
S32D000110F0002B00F083804FF000033B644FF00A0001F02EF83B6C03F101033B644FF037033B724FF000037B72DF
S32D000111184FF00003FB604FF000033B744FF000037B6107F108031846FFF764FD0346002B0CBF00230123DBB231
S32D00011140002B03D04FF00103FB6336E04FF069033B724FF000037B7297F84630002B05D04FF00003C4F2300314
S32D00011168FB6002E04FF44013FB604FF000033B744FF000037B6107F108031846FFF73AFD0346002B0CBF00232B
S32D000111900123DBB2002B03D04FF00103FB630CE0BB69002B05DB3B6C632B02D84FF0010301E04FF00003002B25
S32D000111B8A0D1FB6B002B40F01F833B6C632B04D94FF0000387F8463014E04FF0010387F8473097F84630002B8E
S32D000111E00CD04FF0000387F84630BB6903F08043002B03D04FF0010387F8463097F82A30002B03D07B6B4FF0B1
S32D0001120807021A6097F82930002B03D07B6B4FF008021A6097F82B30002B03D07B6B4FF004021A6097F8473012
S32D00011230002B0BD07B6B4FF002021A6097F84630002B03D07B6B4FF003021A6097F82B30002B0FD097F8473045
S32D00011258002B0BD07B6B4FF005021A6097F84630002B03D07B6B4FF006021A604FF45043C4F204034FF000023D
S32D000112801A604FF45043C4F204034FF000025A604FF45043C4F204034FF000029A604FF45043C4F204034FF097
S32D000112A80002DA604FF45043C4F204034FF000021A614FF45043C4F204034FF000025A61FB6A9A68FB6A5B686E
S32D000112D010461946FFF7DAFA4FF45043C4F2040340F243421A604FF45043C4F2040340F243425A604FF45043D2
S32D000112F8C4F204034FF488629A604FF45043C4F2040340F24342DA604FF45043C4F2040340F243421A614FF457
S32D000113205043C4F2040340F243425A614FF4E043C4F204034FF4E042C4F2040202F5805202F13002126842F4FA
S32D00011348003203F5805303F130031A6057E2B86BFFF750FC03463B643B6C002B00F04E824FF00203FB6349E2F3
S32D00011370BB6B002B03D14FF00C03FB6343E24FF48053C4F20B03DB6A03F47F434FEA13234FEA43033B644FF4B0
S32D000113988053C4F20B03DB6A03F0F0034FEA131303F101023B6C02FB03F33B64FB6A9A683B6CB2FBF3F2BB6B0F
S32D000113C01A6020E2BB6B002B03D14FF00C03FB6319E2BB6B1B68002B03D14FF00C03FB6311E2FFF7DBFB03465A
S32D000113E8002B14BF00230123DBB2002B70D04FF45043C4F204034FF000021A604FF45043C4F204034FF0000277
S32D000114105A604FF45043C4F204034FF000029A604FF45043C4F204034FF00002DA604FF45043C4F204034FF045
S32D0001143800021A614FF45043C4F204034FF000025A61FB6A9A68BB6B1B6810461946FFF719FA4FF45043C4F21F
S32D00011460040340F243421A604FF45043C4F2040340F243425A604FF45043C4F204034FF488629A604FF4504391
S32D00011488C4F2040340F24342DA604FF45043C4F2040340F243421A614FF45043C4F2040340F243425A614FF47A
S32D000114B0E043C4F204034FF4E042C4F2040202F5805202F13002126842F4003203F5805303F130031A6096E159
S32D000114D840F60A23FB6392E1BB6B002B03D14FF00C03FB638BE14FF48053C4F20B035B684FEAC3434FEAD34349
S32D00011500BA6B13607FE1BB6B002B03D14FF00C03FB6378E1FFF742FB0346002B14BF00230123DBB2002B2AD027
S32D00011528BB6B1A6840F6FF739A4203D94FF00C03FB6364E14FF48053C4F20B034FF48052C4F20B02526822F419
S32D00011550FE5222F03F025A604FF48053C4F20B034FF48052C4F20B0252681146BA6B12684FEAC2424FEAD24223
S32D000115780A435A6043E140F60A23FB633FE1BB6B002B03D14FF00C03FB6338E14FF48053C4F20B039B6A03F07C
S32D000115A006034FEA53033B643B6C002B04D1BB6B4FF000021A6026E13B6C012B04D1BB6B4FF001021A601EE1CD
S32D000115C83B6C102B04D1BB6B4FF002021A6016E14FF00503FB6312E1BB6B002B03D14FF00C03FB630BE1FFF718
S32D000115F0D5FA0346002B14BF00230123DBB2002B56D0BB6B1B68002B16D14FF48053C4F20B034FF48052C4F231
S32D000116180B02926A22F006029A624FF48053C4F20B034FF48052C4F20B02926A9A62E6E0BB6B1B68012B18D156
S32D000116404FF48053C4F20B034FF48052C4F20B02926A22F006029A624FF48053C4F20B034FF48052C4F20B0205
S32D00011668926A42F002029A62C9E0BB6B1B68022B16D14FF48053C4F20B034FF48052C4F20B02926A22F00602F7
S32D000116909A624FF48053C4F20B034FF48052C4F20B02926A9A62AEE04FF00503FB63AAE040F60A23FB63A6E081
S32D000116B8BB6B002B03D14FF00C03FB639FE04FF48053C4F20B034FF48052C4F20B02D26A42F00062DA624FF4B2
S32D000116E08053C4F20B03DB6A03F00063002B0CBF00230123DBB2002BF1D14FF48053C4F20B031B6B03F080031C
S32D00011708002B0CBF00230123DBB2002B0FD04FF48053C4F20B034FF48052C4F20B02126B42F080021A637B6B98
S32D000117304FF000021A604FF48053C4F20B035B6A03F48033002B0CBF00230123DBB2002B08D07B6B1B68002B25
S32D0001175808D17B6B4FF001021A6003E07B6B4FF000021A607B6B1A68BB6B1A6047E0BB6B4FF01C021A60BB6B11
S32D0001178003F104034FF004021A60BB6B03F108034FF41E721A6036E04FF00200FFF712FA4FF48053C4F20B03DB
S32D000117A81B6B03F4E003002B0CBF00230123DBB2002B0ED04FF48053C4F20B034FF48052C4F20B02126B42F47A
S32D000117D0E0021A634FF00403FB634FF48053C4F20B034FF48052C4F20B02126B42F032021A6308E040F609238B
S32D000117F8FB6304E000BF02E000BF00E000BFFB6B184607F14807BD4680BD00BF80B489B000AF786039607B6807
S32D000118207B6141F20423C1F6FF733B613B69002B02D14FF0000381E03B691B68022B0BD03B691B68032B07D0FE
S32D000118483B691B68072B03D03B691B68082B0DD14FF48053C4F20B035B6A03F00403002B0CBF00230123DBB2AA
S32D00011870002BF1D13B68FB6156E0FB69B3F5007F28BF4FF40073FB60FB6803F103034FEA9303BB613CE04FF4FD
S32D000118988053C4F20B031B6B03F4E003002B0CBF00230123DBB2002B10D04FF48053C4F20B034FF48052C4F2B0
S32D000118C00B02126B42F4E00242F020021A634FF0000333E04FF48053C4F20B035B6A03F40063002B14BF002317
S32D000118E80123DBB2002BF1D14FF48053C4F20B031B6A1A467B691A607B6903F104037B61BB6903F1FF33BB61F5
S32D00011910BB69002B0CBF00230123DBB2002BBAD1FA69FB68D31AFB61FB69002B0CBF00230123DBB2002BA0D12B
S32D000119384FF00103184607F12407BD4680BC704780B58EB000AFB9607A600246FA73BB7341F2F013C1F6FF736F
S32D000119607B63FB7B002B02D1BB7B002B02D14FF0040381E040F23C43C1F6FF731B78DBB203F00103DBB2002B82
S32D0001198802D04FF0030373E0BB68002B02D14FF000036DE07B6B1B7B002B03D17B684FEA43237B60BB7B012BDC
S32D000119B02CD14FF011033B754FF000037B757B68BB614FF001033B77BB7B3B6207F1140341F202301946FFF746
S32D000119D861FA0346002B14BF00230123DBB2002B3ED0B8684FF40071FFF710FF0346002B0CBF00230123DBB245
S32D00011A00002B31D04FF00003BB732DE04FF012033B754FF000037B757B68BB614FF001033B77BB7B3B6207F119
S32D00011A28140341F202301946FFF734FA0346002B14BF00230123DBB2002B11D0BB7B4FEA4323B8681946FFF71F
S32D00011A50E1FE0346002B0CBF00230123DBB2002B02D04FF00003BB73BB7B002B02D04FF0010301E04FF000036F
S32D00011A78184607F13807BD4680BD00BF80B487B000AF786039607B68FB603B687B6155E07B69B3F5007F28BF3C
S32D00011AA04FF400733B617A693B69D31A7B613B6903F103034FEA93033B613BE04FF48053C4F20B031B6B03F4FA
S32D00011AC8E003002B0CBF00230123DBB2002B10D04FF48053C4F20B034FF48052C4F20B02126B42F4E00242F0BE
S32D00011AF010021A634FF0FF332EE04FF48053C4F20B035B6A03F48063002B14BF00230123DBB2002BF1D14FF43E
S32D00011B188053C4F20B03FA6812681A62FB6803F10403FB603B6903F1FF333B613B69002B0CBF00230123DBB222
S32D00011B40002BBBD17B69002B0CBF00230123DBB2002BA1D14FF00103184607F11C07BD4680BC704780B58EB04F
S32D00011B6800AFB9607A600246FA73BB7341F2F013C1F6FF737B63FB7B002B02D1BB7B002B02D14FF00403CAE0F4
S32D00011B9040F23C43C1F6FF731B78DBB203F00103DBB2002B02D04FF00303BCE040F23C43C1F6FF731B78DBB2D0
S32D00011BB803F00403002B0CBF00230123DBB2002B02D04FF00203AAE0BB68002B02D14FF00003A4E07B6B1B7B0C
S32D00011BE0002B03D17B684FEA43237B60BB7B012B2CD14FF018033B754FF000037B757B68BB614FF000033B77EC
S32D00011C08BB7B3B6207F1140341F202301946FFF741F90346002B14BF00230123DBB2002B3ED0B8684FF40071AF
S32D00011C30FFF728FF0346002B0CBF00230123DBB2002B31D04FF00003BB732DE04FF019033B754FF000037B756F
S32D00011C587B68BB614FF000033B77BB7B3B6207F1140341F202301946FFF714F90346002B14BF00230123DBB2A6
S32D00011C80002B11D0BB7B4FEA4323B8681946FFF7F9FE0346002B0CBF00230123DBB2002B02D04FF00003BB7368
S32D00011CA84FF00D033B754FF000037B757B6B1B69BB614FF000033B774FF000033B6207F1140341F202301946B0
S32D00011CD0FFF7E4F80346002B0CBF00230123DBB2002B02D04FF001031DE07A6A48F20803CFF6D9731340002B0B
S32D00011CF802D04FF0010312E07B6A03F4F853B3F5106F0CBF00230123DBB2002BC8D1BB7B002B02D04FF001038F
S32D00011D2001E04FF00003184607F13807BD4680BD80B58CB000AF0B463A600246FA71BB7141F2F013C1F6FF7353
S32D00011D48BB62FB79002B02D04FF004037AE04FF0010387F82F3040F23C43C1F6FF731B78DBB203F00103DBB29F
S32D00011D70002B02D04FF0030368E0BB79032B5FD801A252F823F000BF991D0100A31D0100B51D0100C71D010032
S32D00011D984FF0000387F82F3052E0BB6A9A683B681A604FF0000387F82F3049E03B684FF400721A804FF0000309
S32D00011DC087F82F3040E04FF009033B724FF000037B72BB6A1B69FB604FF000033B744FF000037B6107F10803B9
S32D00011DE841F202301946FFF755F80346002B0CBF00230123DBB2002B02D04FF0010321E07B6A03F44003002B27
S32D00011E1011D13B6A4FEA934303F07F0303F101027B6A4FEA132303F0030303F1FF3302FA03F23B681A604FF0E1
S32D00011E38000387F82F3003E04FF0040387F82F3097F82F30184607F13007BD4680BD00BF80B483B000AF0346BA
S32D00011E60FB71FB79002B02D04FF0010305E040F23C43C1F6FF731B78DBB2184607F10C07BD4680BC704700BF36
S32D00011E8880B483B000AF78604FF4E043C4F204034FF4E042C4F2040202F5805202F13802126842F0010203F55C
S32D00011EB0805303F138031A604FF00003C4F204037A689A604FF00003C4F204034FF005025A604FF00003C4F2B5
S32D00011ED804034FF00002C4F20402126842F001021A6000BF4FF00003C4F204031B6803F08003002B14BF0023D6
S32D00011F000123DBB2002BF1D14FF00003C4F204034FF00002C4F20402126822F001021A6007F10C07BD4680BCC5
S32D00011F28704700BF80B582B000AF786039607B68012B0AD13A684FF6FF739A4205D141F21040C1F6FF7000F0FF
S32D00011F500FF807F10807BD4680BD00BF80B500AF4FF001004FF6FF71FFF7E0FF80BD00BF80B483B000AF7860BD
S32D00011F787B684FF000021A707B68184607F10C07BD4680BC704700BF80B582B000AF78607B681B7883F00103B0
S32D00011FA0DBB2002B36D04FF4E043C4F2040303F5805303F128034FF400621A604FF45043C4F204034FF44072A0
S32D00011FC81A624FF45043C4F204034FF440725A6241F21443C1F6FF731B684FEAD372D3184FEA63034FF4304039
S32D00011FF0C4F20E0019464FF46142FEF78DF84FF0640000F0ADF87B684FF001021A704FF0010301E04FF00003F2
S32D00012018184607F10807BD4680BD00BF80B582B000AF7860F970BA707B704FF43040C4F20E004FF07F01FEF79E
S32D000120408BF94FF43040C4F20E004FF00801FEF783F9FB784FF43040C4F20E001946FEF77BF9BB784FF4304025
S32D00012068C4F20E001946FEF773F97B784FF43040C4F20E001946FEF76BF94FF43040C4F20E004FF0FF01FEF7F8
S32D0001209063F907F10807BD4680BD00BF80B487B000AFF860B9607A60FA6844F6D353C1F26203A3FB02134FEA94
S32D000120B89312BB68D3187B61FA6844F6D353C1F26203A3FB02134FEA93134FF47A7101FB03F3D31AFB60FB6833
S32D000120E04FEAC33244F6D353C1F26203A3FB02134FEA93127B68D3183B613B694FEAD3337A69D3187B613B69FF
S32D000121084FEA43434FEA53433B614FF45043C4F203031B681A467B699A4211D34FF45043C4F203031B681A46F0
S32D000121307B699A420BD14FF45043C4F203035B681A463B699A4202D24FF0010301E04FF00003002BDDD107F1A4
S32D000121581C07BD4680BC704780B584B000AF78604FF45043C4F203031B68FB604FF45043C4F203035B68BB606F
S32D000121807B681846F968BA68FFF788FF07F11007BD4680BD0000000080B584B000AFC7E900014FF45043C4F24B
S32D000121A803031B68FB604FF45043C4F203035B68BB60D7E900010AA3D3E90023FAF7DCFA02460B461046194652
S32D000121D0FAF798FD03461846F968BA68FFF75EFF07F11007BD4680BD0000000000408F4080B584B000AF4FF424
S32D000121F85043C4F203031B68FB604FF45043C4F203035B68BB60F868FAF740FA02460B46C7E90023B868FAF713
S32D0001222039FA02460B46104619464FF000024FF0804303F56003FAF7CDFB02460B46D7E90001FAF7EBF8024641
S32D000122480B46C7E90023D7E900231046194607F11007BD4680BD00BF80B483B000AF4FF45043C4F203031B6872
S32D000122704FF47A7202FB03F37B604FF45043C4F203035B684FF47A7202FB03F34FEAD3337A68D3187B607B6801
S32D00012298184607F10C07BD4680BC704780B584B000AF78600B46FB704FF00B03FB73FA78FB7B786811461A46D2
S32D000122C000F0ECF87B68184607F11007BD4680BD80B485B000AF78607B68A3F11003002B01DA03F11F034FEABC
S32D000122E86313FB60FB68012B48D0022B00F08980002B40F0C9804FF46142CEF200024FF46143CEF20003D3F868
S32D00012310803119467B68A3F110004FF01F03C8F200030340002B05DA03F1FF3363F01F0303F101034FF00100C9
S32D0001233800FA03F30B43C2F880314FF46142CEF200024FF46143CEF200031B6819467B68A3F110004FF01F03B1
S32D00012360C8F200030340002B05DA03F1FF3363F01F0303F101034FF0010000FA03F30B43136085E04FF4614275
S32D00012388CEF200024FF46143CEF20003D3F8843119467B68A3F110004FF01F03C8F200030340002B05DA03F1F5
S32D000123B0FF3363F01F0303F101034FF0010000FA03F30B43C2F884314FF46142CEF200024FF46143CEF2000320
S32D000123D85B6819467B68A3F110004FF01F03C8F200030340002B05DA03F1FF3363F01F0303F101034FF00100EF
S32D0001240000FA03F30B43536042E04FF46142CEF200024FF46143CEF20003D3F8883119467B68A3F110004FF09F
S32D000124281F03C8F200030340002B05DA03F1FF3363F01F0303F101034FF0010000FA03F30B43C2F888314FF492
S32D000124506142CEF200024FF46143CEF200039B6819467B68A3F110004FF01F03C8F200030340002B05DA03F106
S32D00012478FF3363F01F0303F101034FF0010000FA03F30B43936000BF07F11407BD4680BC704700BF80B584B035
S32D000124A000AF786013460A46FA70BB707B68FA781A70BB78FB737B681B781A4649F2F033C0F201039B5C042BB8
S32D000124C800F2F68001A252F823F000BFE92401005D250100D1250100B9260100452601004FF41043C4F2040397
S32D000124F07A681278114649F23442C0F2010252F82110FA7B4FEA024202F4702242F4887242F0030243F82120BC
S32D000125184FF47043C4F20F034FF47042C4F20F02526911467A681278104649F23442C0F2010252F8202002F064
S32D000125401F024FF0010000FA02F26FEA02020A405A614FF06700FFF7BBFEADE04FF42043C4F204037A6812780A
S32D00012568114649F23442C0F2010252F82110FA7B4FEA024202F4702242F4887242F0030243F821204FF240032B
S32D00012590C4F20F034FF24002C4F20F02526911467A681278104649F23442C0F2010252F8202002F01F024FF0F4
S32D000125B8010000FA02F26FEA02020A405A614FF06800FFF781FE73E04FF43043C4F204037A681278114649F2C3
S32D000125E03442C0F2010252F82110FA7B4FEA024202F4702242F4887242F0030243F821204FF28003C4F20F033D
S32D000126084FF28002C4F20F02526911467A681278104649F23442C0F2010252F8202002F01F024FF0010000FA08
S32D0001263002F26FEA02020A405A614FF06900FFF747FE39E04FF45043C4F204037A681278114649F23442C0F270
S32D00012658010252F82110FA7B4FEA024202F4702242F4887242F0030243F821204FF47143C4F20F034FF47142C3
S32D00012680C4F20F02526911467A681278104649F23442C0F2010252F8202002F01F024FF0010000FA02F26FEA06
S32D000126A802020A405A614FF06B00FFF70DFE00BF07F11007BD4680BDB0B48BB000AF49F20003C0F2010307F107
S32D000126D004041D460FCD0FC495E80F0084E80F004FF000037B6248E04FF42043C4F20403D3F8A0301A467B6A30
S32D000126F84FEA830307F12800C31853F8243C4FF0010101FA03F31340002B0CBF00230123DBB2002B29D041F2A8
S32D000127204043C1F6FF737A6A53F8223003F1010141F24043C1F6FF737A6A43F822104FF42043C4F204034FF491
S32D000127482042C4F20402D2F8A02011467A6A4FEA820207F12800821852F8242C4FF0010000FA02F20A40C3F83B
S32D00012770A0207B6A03F101037B627B6A072BCCBF00230123DBB2002BAED107F12C07BD46B0BC7047B0B489B0B2
S32D0001279800AF49F22003C0F2010307F104041D460FCD0FC495E8030084E803004FF00003FB6149E04FF43043D1
S32D000127C0C4F20403D3F8A0301A46FB694FEA830307F12000C31853F81C3C4FF0010101FA03F31340002B0CBFFE
S32D000127E800230123DBB2002B2AD0FB6903F1080241F24043C1F6FF7353F8223003F1010141F24043C1F6FF7316
S32D0001281043F822104FF43043C4F204034FF43042C4F20402D2F8A0201146FA694FEA820207F12000821852F84B
S32D000128381C2C4FF0010000FA02F20A40C3F8A020FB6903F10103FB61FB69052BCCBF00230123DBB2002BADD1E2
S32D0001286007F12407BD46B0BC704700BFB0B48DB000AF49F23803C0F201033C461D460FCD0FC40FCD0FC495E805
S32D00012888070084E807004FF00003FB6249E04FF41043C4F20403D3F8A0301A46FB6A4FEA830307F13000C3186A
S32D000128B053F8303C4FF0010101FA03F31340002B0CBF00230123DBB2002B2AD0FB6A03F10E0241F24043C1F6F8
S32D000128D8FF7353F8223003F1010141F24043C1F6FF7343F822104FF41043C4F204034FF41042C4F20402D2F812
S32D00012900A0201146FA6A4FEA820207F13000821852F8302C4FF0010000FA02F20A40C3F8A020FB6A03F10103B8
S32D00012928FB62FB6A0A2BCCBF00230123DBB2002BADD107F13407BD46B0BC7047B0B487B000AF49F26403C0F28A
S32D0001295001033C461D460FCD0FC42B6823604FF000037B6149E04FF45043C4F20403D3F8A0301A467B694FEAB8
S32D00012978830307F11800C31853F8183C4FF0010101FA03F31340002B0CBF00230123DBB2002B2AD07B6903F1D4
S32D000129A0190241F24043C1F6FF7353F8223003F1010141F24043C1F6FF7343F822104FF45043C4F204034FF459
S32D000129C85042C4F20402D2F8A02011467A694FEA820207F11800821852F8182C4FF0010000FA02F20A40C3F8A6
S32D000129F0A0207B6903F101037B617B69042BCCBF00230123DBB2002BADD107F11C07BD46B0BC704780B483B07D
S32D00012A1800AF78607B681B781A4641F24043C1F6FF7353F82230184607F10C07BD4680BC704700BF80B483B031
S32D00012A4000AF78607B681B781A4641F24043C1F6FF734FF0000143F8221007F10C07BD4680BC704780B483B016
S32D00012A6800AF78600B46FB707B68FA781A707B68184607F10C07BD4680BC70470000000080B586B000AF7860E9
S32D00012A907B681B781A4649F2B443C0F2010353F822303B617B681B781A4649F21043C0F201039B5CFB733B69FD
S32D00012AB8DBB203F01F03DAB241F22043C1F6FF731A723B69DBB203F01F03DAB241F22043C1F6FF735A724FF4D6
S32D00012AE06143CEF200034FF01002C3F88820FB7B002B1ED14FF43040C4F2030041F22041C1F6FF7100F004FB06
S32D00012B084FF43043C4F203031B6803F08003002B14BF00230123DBB2002BF1D14FF43043C4F203031B697B61A2
S32D00012B301DE04FF43040C4F20B0041F22041C1F6FF7100F0E5FA4FF43043C4F20B031B6803F08003002B14BF0A
